{
  "contracts/oldContracts/contracts/testing/MedianOracle.sol": {
    "MedianOracle": {
      "abi": [
        {
          "inputs": [],
          "name": "payload_",
          "outputs": [
            {
              "internalType": "uint256",
              "name": "",
              "type": "uint256"
            }
          ],
          "stateMutability": "view",
          "type": "function"
        },
        {
          "inputs": [
            {
              "internalType": "uint256",
              "name": "payload",
              "type": "uint256"
            }
          ],
          "name": "pushReport",
          "outputs": [],
          "stateMutability": "nonpayable",
          "type": "function"
        }
      ],
      "evm": {
        "bytecode": {
          "linkReferences": {},
          "object": "608060405234801561001057600080fd5b5060b08061001f6000396000f3fe6080604052348015600f57600080fd5b506004361060325760003560e01c80631e20d14b14603757806397dac77d146049575b600080fd5b604760423660046063565b600055565b005b605160005481565b60405190815260200160405180910390f35b6000602082840312156073578081fd5b503591905056fea2646970667358221220785684472fa92d3cdae2c175869a26456b64b05d777ac445accb99ab773141ca64736f6c63430008030033",
          "opcodes": "PUSH1 0x80 PUSH1 0x40 MSTORE CALLVALUE DUP1 ISZERO PUSH2 0x10 JUMPI PUSH1 0x0 DUP1 REVERT JUMPDEST POP PUSH1 0xB0 DUP1 PUSH2 0x1F PUSH1 0x0 CODECOPY PUSH1 0x0 RETURN INVALID PUSH1 0x80 PUSH1 0x40 MSTORE CALLVALUE DUP1 ISZERO PUSH1 0xF JUMPI PUSH1 0x0 DUP1 REVERT JUMPDEST POP PUSH1 0x4 CALLDATASIZE LT PUSH1 0x32 JUMPI PUSH1 0x0 CALLDATALOAD PUSH1 0xE0 SHR DUP1 PUSH4 0x1E20D14B EQ PUSH1 0x37 JUMPI DUP1 PUSH4 0x97DAC77D EQ PUSH1 0x49 JUMPI JUMPDEST PUSH1 0x0 DUP1 REVERT JUMPDEST PUSH1 0x47 PUSH1 0x42 CALLDATASIZE PUSH1 0x4 PUSH1 0x63 JUMP JUMPDEST PUSH1 0x0 SSTORE JUMP JUMPDEST STOP JUMPDEST PUSH1 0x51 PUSH1 0x0 SLOAD DUP2 JUMP JUMPDEST PUSH1 0x40 MLOAD SWAP1 DUP2 MSTORE PUSH1 0x20 ADD PUSH1 0x40 MLOAD DUP1 SWAP2 SUB SWAP1 RETURN JUMPDEST PUSH1 0x0 PUSH1 0x20 DUP3 DUP5 SUB SLT ISZERO PUSH1 0x73 JUMPI DUP1 DUP2 REVERT JUMPDEST POP CALLDATALOAD SWAP2 SWAP1 POP JUMP INVALID LOG2 PUSH5 0x6970667358 0x22 SLT KECCAK256 PUSH25 0x5684472FA92D3CDAE2C175869A26456B64B05D777AC445ACCB SWAP10 0xAB PUSH24 0x3141CA64736F6C6343000803003300000000000000000000 "
        },
        "methodIdentifiers": {
          "payload_()": "97dac77d",
          "pushReport(uint256)": "1e20d14b"
        }
      }
    }
  }
}