{
  "contracts/oldContracts/contracts/testing/ForceSendEther.sol": {
    "ForceSendEther": {
      "abi": [
        {
          "inputs": [
            {
              "internalType": "address payable",
              "name": "_beneficiary",
              "type": "address"
            }
          ],
          "name": "forceSendEther",
          "outputs": [],
          "stateMutability": "payable",
          "type": "function"
        },
        {
          "stateMutability": "payable",
          "type": "receive"
        }
      ],
      "evm": {
        "bytecode": {
          "linkReferences": {},
          "object": "6080604052348015600f57600080fd5b5060a98061001e6000396000f3fe608060405260043610601f5760003560e01c806306c4a68414602a576025565b36602557005b600080fd5b603960353660046047565b603b565b005b806001600160a01b0316ff5b6000602082840312156057578081fd5b81356001600160a01b0381168114606c578182fd5b939250505056fea2646970667358221220c8d247c9531888f7e692621386c7acb106c330b71bb89fdf5de18a87fc2bebe864736f6c63430008030033",
          "opcodes": "PUSH1 0x80 PUSH1 0x40 MSTORE CALLVALUE DUP1 ISZERO PUSH1 0xF JUMPI PUSH1 0x0 DUP1 REVERT JUMPDEST POP PUSH1 0xA9 DUP1 PUSH2 0x1E PUSH1 0x0 CODECOPY PUSH1 0x0 RETURN INVALID PUSH1 0x80 PUSH1 0x40 MSTORE PUSH1 0x4 CALLDATASIZE LT PUSH1 0x1F JUMPI PUSH1 0x0 CALLDATALOAD PUSH1 0xE0 SHR DUP1 PUSH4 0x6C4A684 EQ PUSH1 0x2A JUMPI PUSH1 0x25 JUMP JUMPDEST CALLDATASIZE PUSH1 0x25 JUMPI STOP JUMPDEST PUSH1 0x0 DUP1 REVERT JUMPDEST PUSH1 0x39 PUSH1 0x35 CALLDATASIZE PUSH1 0x4 PUSH1 0x47 JUMP JUMPDEST PUSH1 0x3B JUMP JUMPDEST STOP JUMPDEST DUP1 PUSH1 0x1 PUSH1 0x1 PUSH1 0xA0 SHL SUB AND SELFDESTRUCT JUMPDEST PUSH1 0x0 PUSH1 0x20 DUP3 DUP5 SUB SLT ISZERO PUSH1 0x57 JUMPI DUP1 DUP2 REVERT JUMPDEST DUP2 CALLDATALOAD PUSH1 0x1 PUSH1 0x1 PUSH1 0xA0 SHL SUB DUP2 AND DUP2 EQ PUSH1 0x6C JUMPI DUP2 DUP3 REVERT JUMPDEST SWAP4 SWAP3 POP POP POP JUMP INVALID LOG2 PUSH5 0x6970667358 0x22 SLT KECCAK256 0xC8 0xD2 SELFBALANCE 0xC9 MSTORE8 XOR DUP9 0xF7 0xE6 SWAP3 PUSH3 0x1386C7 0xAC 0xB1 MOD 0xC3 ADDRESS 0xB7 SHL 0xB8 SWAP16 0xDF 0x5D 0xE1 DUP11 DUP8 0xFC 0x2B 0xEB 0xE8 PUSH5 0x736F6C6343 STOP ADDMOD SUB STOP CALLER "
        },
        "methodIdentifiers": {
          "forceSendEther(address)": "06c4a684"
        }
      }
    }
  }
}