{
  "contracts/oldContracts/contracts/TellorFlex.sol": {
    "TellorFlex": {
      "abi": [
        {
          "inputs": [
            {
              "internalType": "address",
              "name": "_token",
              "type": "address"
            },
            {
              "internalType": "address",
              "name": "_governance",
              "type": "address"
            },
            {
              "internalType": "uint256",
              "name": "_stakeAmount",
              "type": "uint256"
            },
            {
              "internalType": "uint256",
              "name": "_reportingLock",
              "type": "uint256"
            }
          ],
          "stateMutability": "nonpayable",
          "type": "constructor"
        },
        {
          "anonymous": false,
          "inputs": [
            {
              "indexed": false,
              "internalType": "address",
              "name": "_newGovernanceAddress",
              "type": "address"
            }
          ],
          "name": "NewGovernanceAddress",
          "type": "event"
        },
        {
          "anonymous": false,
          "inputs": [
            {
              "indexed": false,
              "internalType": "bytes32",
              "name": "_queryId",
              "type": "bytes32"
            },
            {
              "indexed": false,
              "internalType": "uint256",
              "name": "_time",
              "type": "uint256"
            },
            {
              "indexed": false,
              "internalType": "bytes",
              "name": "_value",
              "type": "bytes"
            },
            {
              "indexed": false,
              "internalType": "uint256",
              "name": "_nonce",
              "type": "uint256"
            },
            {
              "indexed": false,
              "internalType": "bytes",
              "name": "_queryData",
              "type": "bytes"
            },
            {
              "indexed": false,
              "internalType": "address",
              "name": "_reporter",
              "type": "address"
            }
          ],
          "name": "NewReport",
          "type": "event"
        },
        {
          "anonymous": false,
          "inputs": [
            {
              "indexed": false,
              "internalType": "uint256",
              "name": "_newReportingLock",
              "type": "uint256"
            }
          ],
          "name": "NewReportingLock",
          "type": "event"
        },
        {
          "anonymous": false,
          "inputs": [
            {
              "indexed": false,
              "internalType": "uint256",
              "name": "_newStakeAmount",
              "type": "uint256"
            }
          ],
          "name": "NewStakeAmount",
          "type": "event"
        },
        {
          "anonymous": false,
          "inputs": [
            {
              "indexed": false,
              "internalType": "address",
              "name": "_staker",
              "type": "address"
            },
            {
              "indexed": false,
              "internalType": "uint256",
              "name": "_amount",
              "type": "uint256"
            }
          ],
          "name": "NewStaker",
          "type": "event"
        },
        {
          "anonymous": false,
          "inputs": [
            {
              "indexed": false,
              "internalType": "address",
              "name": "_reporter",
              "type": "address"
            },
            {
              "indexed": false,
              "internalType": "address",
              "name": "_recipient",
              "type": "address"
            },
            {
              "indexed": false,
              "internalType": "uint256",
              "name": "_slashAmount",
              "type": "uint256"
            }
          ],
          "name": "ReporterSlashed",
          "type": "event"
        },
        {
          "anonymous": false,
          "inputs": [
            {
              "indexed": false,
              "internalType": "address",
              "name": "_staker",
              "type": "address"
            },
            {
              "indexed": false,
              "internalType": "uint256",
              "name": "_amount",
              "type": "uint256"
            }
          ],
          "name": "StakeWithdrawRequested",
          "type": "event"
        },
        {
          "anonymous": false,
          "inputs": [
            {
              "indexed": false,
              "internalType": "address",
              "name": "_staker",
              "type": "address"
            }
          ],
          "name": "StakeWithdrawn",
          "type": "event"
        },
        {
          "anonymous": false,
          "inputs": [
            {
              "indexed": false,
              "internalType": "bytes32",
              "name": "_queryId",
              "type": "bytes32"
            },
            {
              "indexed": false,
              "internalType": "uint256",
              "name": "_timestamp",
              "type": "uint256"
            }
          ],
          "name": "ValueRemoved",
          "type": "event"
        },
        {
          "inputs": [
            {
              "internalType": "address",
              "name": "_newGovernanceAddress",
              "type": "address"
            }
          ],
          "name": "changeGovernanceAddress",
          "outputs": [],
          "stateMutability": "nonpayable",
          "type": "function"
        },
        {
          "inputs": [
            {
              "internalType": "uint256",
              "name": "_newReportingLock",
              "type": "uint256"
            }
          ],
          "name": "changeReportingLock",
          "outputs": [],
          "stateMutability": "nonpayable",
          "type": "function"
        },
        {
          "inputs": [
            {
              "internalType": "uint256",
              "name": "_newStakeAmount",
              "type": "uint256"
            }
          ],
          "name": "changeStakeAmount",
          "outputs": [],
          "stateMutability": "nonpayable",
          "type": "function"
        },
        {
          "inputs": [
            {
              "internalType": "uint256",
              "name": "_amount",
              "type": "uint256"
            }
          ],
          "name": "depositStake",
          "outputs": [],
          "stateMutability": "nonpayable",
          "type": "function"
        },
        {
          "inputs": [
            {
              "internalType": "bytes32",
              "name": "_queryId",
              "type": "bytes32"
            },
            {
              "internalType": "uint256",
              "name": "_timestamp",
              "type": "uint256"
            }
          ],
          "name": "getBlockNumberByTimestamp",
          "outputs": [
            {
              "internalType": "uint256",
              "name": "",
              "type": "uint256"
            }
          ],
          "stateMutability": "view",
          "type": "function"
        },
        {
          "inputs": [
            {
              "internalType": "bytes32",
              "name": "_queryId",
              "type": "bytes32"
            }
          ],
          "name": "getCurrentValue",
          "outputs": [
            {
              "internalType": "bytes",
              "name": "",
              "type": "bytes"
            }
          ],
          "stateMutability": "view",
          "type": "function"
        },
        {
          "inputs": [],
          "name": "getGovernanceAddress",
          "outputs": [
            {
              "internalType": "address",
              "name": "",
              "type": "address"
            }
          ],
          "stateMutability": "view",
          "type": "function"
        },
        {
          "inputs": [
            {
              "internalType": "bytes32",
              "name": "_queryId",
              "type": "bytes32"
            }
          ],
          "name": "getNewValueCountbyQueryId",
          "outputs": [
            {
              "internalType": "uint256",
              "name": "",
              "type": "uint256"
            }
          ],
          "stateMutability": "view",
          "type": "function"
        },
        {
          "inputs": [
            {
              "internalType": "bytes32",
              "name": "_queryId",
              "type": "bytes32"
            },
            {
              "internalType": "uint256",
              "name": "_timestamp",
              "type": "uint256"
            }
          ],
          "name": "getReportDetails",
          "outputs": [
            {
              "internalType": "address",
              "name": "",
              "type": "address"
            },
            {
              "internalType": "bool",
              "name": "",
              "type": "bool"
            }
          ],
          "stateMutability": "view",
          "type": "function"
        },
        {
          "inputs": [
            {
              "internalType": "bytes32",
              "name": "_queryId",
              "type": "bytes32"
            },
            {
              "internalType": "uint256",
              "name": "_timestamp",
              "type": "uint256"
            }
          ],
          "name": "getReporterByTimestamp",
          "outputs": [
            {
              "internalType": "address",
              "name": "",
              "type": "address"
            }
          ],
          "stateMutability": "view",
          "type": "function"
        },
        {
          "inputs": [
            {
              "internalType": "address",
              "name": "_reporter",
              "type": "address"
            }
          ],
          "name": "getReporterLastTimestamp",
          "outputs": [
            {
              "internalType": "uint256",
              "name": "",
              "type": "uint256"
            }
          ],
          "stateMutability": "view",
          "type": "function"
        },
        {
          "inputs": [],
          "name": "getReportingLock",
          "outputs": [
            {
              "internalType": "uint256",
              "name": "",
              "type": "uint256"
            }
          ],
          "stateMutability": "view",
          "type": "function"
        },
        {
          "inputs": [
            {
              "internalType": "address",
              "name": "_reporter",
              "type": "address"
            }
          ],
          "name": "getReportsSubmittedByAddress",
          "outputs": [
            {
              "internalType": "uint256",
              "name": "",
              "type": "uint256"
            }
          ],
          "stateMutability": "view",
          "type": "function"
        },
        {
          "inputs": [
            {
              "internalType": "address",
              "name": "_reporter",
              "type": "address"
            },
            {
              "internalType": "bytes32",
              "name": "_queryId",
              "type": "bytes32"
            }
          ],
          "name": "getReportsSubmittedByAddressAndQueryId",
          "outputs": [
            {
              "internalType": "uint256",
              "name": "",
              "type": "uint256"
            }
          ],
          "stateMutability": "view",
          "type": "function"
        },
        {
          "inputs": [],
          "name": "getStakeAmount",
          "outputs": [
            {
              "internalType": "uint256",
              "name": "",
              "type": "uint256"
            }
          ],
          "stateMutability": "view",
          "type": "function"
        },
        {
          "inputs": [
            {
              "internalType": "address",
              "name": "_staker",
              "type": "address"
            }
          ],
          "name": "getStakerInfo",
          "outputs": [
            {
              "internalType": "uint256",
              "name": "",
              "type": "uint256"
            },
            {
              "internalType": "uint256",
              "name": "",
              "type": "uint256"
            },
            {
              "internalType": "uint256",
              "name": "",
              "type": "uint256"
            },
            {
              "internalType": "uint256",
              "name": "",
              "type": "uint256"
            },
            {
              "internalType": "uint256",
              "name": "",
              "type": "uint256"
            }
          ],
          "stateMutability": "view",
          "type": "function"
        },
        {
          "inputs": [],
          "name": "getTimeOfLastNewValue",
          "outputs": [
            {
              "internalType": "uint256",
              "name": "",
              "type": "uint256"
            }
          ],
          "stateMutability": "view",
          "type": "function"
        },
        {
          "inputs": [
            {
              "internalType": "bytes32",
              "name": "_queryId",
              "type": "bytes32"
            },
            {
              "internalType": "uint256",
              "name": "_timestamp",
              "type": "uint256"
            }
          ],
          "name": "getTimestampIndexByTimestamp",
          "outputs": [
            {
              "internalType": "uint256",
              "name": "",
              "type": "uint256"
            }
          ],
          "stateMutability": "view",
          "type": "function"
        },
        {
          "inputs": [
            {
              "internalType": "bytes32",
              "name": "_queryId",
              "type": "bytes32"
            },
            {
              "internalType": "uint256",
              "name": "_index",
              "type": "uint256"
            }
          ],
          "name": "getTimestampbyQueryIdandIndex",
          "outputs": [
            {
              "internalType": "uint256",
              "name": "",
              "type": "uint256"
            }
          ],
          "stateMutability": "view",
          "type": "function"
        },
        {
          "inputs": [],
          "name": "getTokenAddress",
          "outputs": [
            {
              "internalType": "address",
              "name": "",
              "type": "address"
            }
          ],
          "stateMutability": "view",
          "type": "function"
        },
        {
          "inputs": [],
          "name": "getTotalStakeAmount",
          "outputs": [
            {
              "internalType": "uint256",
              "name": "",
              "type": "uint256"
            }
          ],
          "stateMutability": "view",
          "type": "function"
        },
        {
          "inputs": [],
          "name": "governance",
          "outputs": [
            {
              "internalType": "address",
              "name": "",
              "type": "address"
            }
          ],
          "stateMutability": "view",
          "type": "function"
        },
        {
          "inputs": [
            {
              "internalType": "bytes32",
              "name": "_queryId",
              "type": "bytes32"
            },
            {
              "internalType": "uint256",
              "name": "_timestamp",
              "type": "uint256"
            }
          ],
          "name": "removeValue",
          "outputs": [],
          "stateMutability": "nonpayable",
          "type": "function"
        },
        {
          "inputs": [],
          "name": "reportingLock",
          "outputs": [
            {
              "internalType": "uint256",
              "name": "",
              "type": "uint256"
            }
          ],
          "stateMutability": "view",
          "type": "function"
        },
        {
          "inputs": [
            {
              "internalType": "uint256",
              "name": "_amount",
              "type": "uint256"
            }
          ],
          "name": "requestStakingWithdraw",
          "outputs": [],
          "stateMutability": "nonpayable",
          "type": "function"
        },
        {
          "inputs": [
            {
              "internalType": "bytes32",
              "name": "_queryId",
              "type": "bytes32"
            },
            {
              "internalType": "uint256",
              "name": "_timestamp",
              "type": "uint256"
            }
          ],
          "name": "retrieveData",
          "outputs": [
            {
              "internalType": "bytes",
              "name": "",
              "type": "bytes"
            }
          ],
          "stateMutability": "view",
          "type": "function"
        },
        {
          "inputs": [
            {
              "internalType": "address",
              "name": "_reporter",
              "type": "address"
            },
            {
              "internalType": "address",
              "name": "_recipient",
              "type": "address"
            }
          ],
          "name": "slashReporter",
          "outputs": [
            {
              "internalType": "uint256",
              "name": "",
              "type": "uint256"
            }
          ],
          "stateMutability": "nonpayable",
          "type": "function"
        },
        {
          "inputs": [],
          "name": "stakeAmount",
          "outputs": [
            {
              "internalType": "uint256",
              "name": "",
              "type": "uint256"
            }
          ],
          "stateMutability": "view",
          "type": "function"
        },
        {
          "inputs": [
            {
              "internalType": "bytes32",
              "name": "_queryId",
              "type": "bytes32"
            },
            {
              "internalType": "bytes",
              "name": "_value",
              "type": "bytes"
            },
            {
              "internalType": "uint256",
              "name": "_nonce",
              "type": "uint256"
            },
            {
              "internalType": "bytes",
              "name": "_queryData",
              "type": "bytes"
            }
          ],
          "name": "submitValue",
          "outputs": [],
          "stateMutability": "nonpayable",
          "type": "function"
        },
        {
          "inputs": [],
          "name": "timeOfLastNewValue",
          "outputs": [
            {
              "internalType": "uint256",
              "name": "",
              "type": "uint256"
            }
          ],
          "stateMutability": "view",
          "type": "function"
        },
        {
          "inputs": [],
          "name": "token",
          "outputs": [
            {
              "internalType": "contract IERC20",
              "name": "",
              "type": "address"
            }
          ],
          "stateMutability": "view",
          "type": "function"
        },
        {
          "inputs": [],
          "name": "totalStakeAmount",
          "outputs": [
            {
              "internalType": "uint256",
              "name": "",
              "type": "uint256"
            }
          ],
          "stateMutability": "view",
          "type": "function"
        },
        {
          "inputs": [],
          "name": "withdrawStake",
          "outputs": [],
          "stateMutability": "nonpayable",
          "type": "function"
        }
      ],
      "evm": {
        "bytecode": {
          "linkReferences": {},
          "object": "6080604052426005553480156200001557600080fd5b5060405162001f3d38038062001f3d833981016040819052620000389162000148565b6001600160a01b038416620000945760405162461bcd60e51b815260206004820152601660248201527f6d7573742073657420746f6b656e20616464726573730000000000000000000060448201526064015b60405180910390fd5b6001600160a01b038316620000ec5760405162461bcd60e51b815260206004820152601b60248201527f6d7573742073657420676f7665726e616e63652061646472657373000000000060448201526064016200008b565b600080546001600160a01b039586166001600160a01b03199182161790915560018054949095169316929092179092556002919091556004556200018f565b80516001600160a01b03811681146200014357600080fd5b919050565b600080600080608085870312156200015e578384fd5b62000169856200012b565b935062000179602086016200012b565b6040860151606090960151949790965092505050565b611d9e806200019f6000396000f3fe608060405234801561001057600080fd5b50600436106101fb5760003560e01c8063722580b61161011a578063adf1639d116100ad578063ca79b5a91161007c578063ca79b5a9146104e6578063cb82cc8f146104f9578063ce5e11bf1461050c578063e07c54861461051f578063fc0c546a14610557576101fb565b8063adf1639d146104a3578063bed9d861146104c3578063c0f95d52146104cb578063c5958af9146104d3576101fb565b80638929f4c6116100e95780638929f4c614610429578063935408d01461043c57806394409a561461046b5780639d9b16ed14610474576101fb565b8063722580b614610382578063732524941461038a578063733bdef01461039b57806377b03e0d14610409576101fb565b80634dfc2a34116101925780635d183cfa116101615780635d183cfa1461034a5780635eaa9ced1461035d57806360c7dc47146103705780636fd4f22914610379576101fb565b80634dfc2a34146102e557806350005b83146102f85780635aa6e675146103245780635b5edcfc14610337576101fb565b80632b6696a7116101ce5780632b6696a71461028f5780633321fc41146102c15780633878293e146102ca578063460c33a2146102dd576101fb565b80630636769e1461020057806310fe9ae81461021557806311938e081461023f57806314c2a1bc14610287575b600080fd5b61021361020e366004611957565b61056a565b005b6000546001600160a01b03165b6040516001600160a01b0390911681526020015b60405180910390f35b61027961024d3660046119aa565b6001600160a01b0391909116600090815260076020908152604080832093835260059093019052205490565b604051908152602001610236565b600354610279565b6102a261029d366004611ab0565b610648565b604080516001600160a01b039093168352901515602083015201610236565b61027960045481565b6102796102d8366004611957565b61072f565b600454610279565b6102796102f3366004611978565b610751565b610279610306366004611957565b6001600160a01b031660009081526007602052604090206003015490565b600154610222906001600160a01b031681565b610213610345366004611ab0565b6109f5565b6102136103583660046119f3565b610c83565b61021361036b366004611a0b565b610d43565b61027960025481565b61027960055481565b600254610279565b6001546001600160a01b0316610222565b6103e16103a9366004611957565b6001600160a01b0316600090815260076020526040902080546001820154600283015460038401546004909401549294919390929091565b604080519586526020860194909452928401919091526060830152608082015260a001610236565b6102796104173660046119f3565b60009081526006602052604090205490565b6102136104373660046119f3565b61108e565b61027961044a366004611ab0565b60009182526006602090815260408084209284526002909201905290205490565b61027960035481565b610279610482366004611ab0565b60009182526006602090815260408084209284526001909201905290205490565b6104b66104b13660046119f3565b611182565b6040516102369190611c24565b61021361126f565b600554610279565b6104b66104e1366004611ab0565b6113f3565b6102136104f43660046119f3565b6114a4565b6102136105073660046119f3565b611562565b61027961051a366004611ab0565b61176b565b61022261052d366004611ab0565b6000918252600660209081526040808420928452600490920190529020546001600160a01b031690565b600054610222906001600160a01b031681565b6001546001600160a01b0316331461059d5760405162461bcd60e51b815260040161059490611c37565b60405180910390fd5b6001600160a01b0381166105f35760405162461bcd60e51b815260206004820152601b60248201527f6d7573742073657420676f7665726e616e6365206164647265737300000000006044820152606401610594565b600180546001600160a01b0319166001600160a01b0383169081179091556040519081527f682527aafb5b7e86077049b38534cd433dd39d523b92b0455dab09a16dc0a7db906020015b60405180910390a150565b6000828152600660209081526040808320848452600101909152812054819081901580156106ce5750604080516020808201835260009182905287825260068152828220878352600301905281902090517fc5d2460186f7233c927e7db2dcc703c0e500b653ca82273b7bfad8045d85a470916106c491611b1c565b6040518091039020145b80156106fe575060008581526006602090815260408083208784526004019091529020546001600160a01b031615155b60009586526006602090815260408088209688526004909601905293909420546001600160a01b0316949293505050565b6001600160a01b0381166000908152600760205260409020600401545b919050565b6001546000906001600160a01b031633146107b95760405162461bcd60e51b815260206004820152602260248201527f6f6e6c7920676f7665726e616e63652063616e20736c617368207265706f727460448201526132b960f11b6064820152608401610594565b6001600160a01b0383166000908152600760205260408120600281015460018201549192916107e89190611c78565b1161082b5760405162461bcd60e51b81526020600482015260136024820152727a65726f207374616b65722062616c616e636560681b6044820152606401610594565b60006002548260020154106108605760025490506002548260020160008282546108559190611ccf565b9091555061091b9050565b600254826001015483600201546108779190611c78565b106108db5750600280549082015461088f9082611ccf565b8260010160008282546108a29190611ccf565b909155505060028083015490546108b99190611ccf565b600360008282546108ca9190611ccf565b90915550506000600283015561091b565b816002015482600101546108ef9190611c78565b90508160010154600360008282546109079190611ccf565b909155505060006001830181905560028301555b60005460405163a9059cbb60e01b81526001600160a01b038681166004830152602482018490529091169063a9059cbb90604401602060405180830381600087803b15801561096957600080fd5b505af115801561097d573d6000803e3d6000fd5b505050506040513d601f19601f820116820180604052508101906109a191906119d3565b50604080516001600160a01b038088168252861660208201529081018290527f4317784407a22e643706ef000f5c0eea399dea3632613786167ab71c9446e3ac9060600160405180910390a1949350505050565b6001546001600160a01b03163314610a1f5760405162461bcd60e51b815260040161059490611c37565b600082815260066020908152604080832084845260018101909252909120548154829082908110610a6057634e487b7160e01b600052603260045260246000fd5b90600052602060002001548314610aad5760405162461bcd60e51b81526020600482015260116024820152700696e76616c69642074696d657374616d7607c1b6044820152606401610594565b805b8254610abd90600190611ccf565b811015610b955782610ad0826001611c78565b81548110610aee57634e487b7160e01b600052603260045260246000fd5b9060005260206000200154836000018281548110610b1c57634e487b7160e01b600052603260045260246000fd5b90600052602060002001819055506001836001016000856000018481548110610b5557634e487b7160e01b600052603260045260246000fd5b906000526020600020015481526020019081526020016000206000828254610b7d9190611ccf565b90915550819050610b8d81611d21565b915050610aaf565b5081548290610ba690600190611ccf565b81548110610bc457634e487b7160e01b600052603260045260246000fd5b60009182526020822001558154829080610bee57634e487b7160e01b600052603160045260246000fd5b600082815260208082208301600019908101839055909201909255604080518083018083528482528785526003870190935292209151610c2f9291906117ac565b50600083815260018301602090815260408083209290925581518681529081018590527fb326db0e54476c677e2b35b75856ac6f4d8bbfb0a6de6690582ebe4dabce0de7910160405180910390a150505050565b6001546001600160a01b03163314610cad5760405162461bcd60e51b815260040161059490611c37565b60008111610d0e5760405162461bcd60e51b815260206004820152602860248201527f7265706f7274696e67206c6f636b206d7573742062652067726561746572207460448201526768616e207a65726f60c01b6064820152608401610594565b60048190556040518181527f15585049a76f383bbfc7c421ee17aeb528a0947dc478a0c796166239a452ba579060200161063d565b60008581526006602052604090208054831480610d5e575082155b610daa5760405162461bcd60e51b815260206004820181905260248201527f6e6f6e6365206d757374206d617463682074696d657374616d7020696e6465786044820152606401610594565b33600090815260076020526040902060025460018201541015610e215760405162461bcd60e51b815260206004820152602960248201527f62616c616e6365206d7573742062652067726561746572207468616e207374616044820152681ad948185b5bdd5b9d60ba1b6064820152608401610594565b6002548160010154610e339190611c90565b600454610e42906103e8611cb0565b610e4c9190611c90565b6003820154610e5b9042611ccf565b610e67906103e8611cb0565b11610ec65760405162461bcd60e51b815260206004820152602960248201527f7374696c6c20696e207265706f727465722074696d65206c6f636b2c20706c6560448201526861736520776169742160b81b6064820152608401610594565b82516020840120871480610edb575060648711155b610f275760405162461bcd60e51b815260206004820152601d60248201527f6964206d7573742062652068617368206f6620627974657320646174610000006044820152606401610594565b426003820181905560009081526004830160205260409020546001600160a01b031615610f965760405162461bcd60e51b815260206004820152601e60248201527f74696d657374616d7020616c7265616479207265706f7274656420666f7200006044820152606401610594565b81544260008181526001808601602090815260408084208690559185018755868352808320909401839055918152600285018352818120439055600385019092529020610fe4908787611830565b5042600081815260048085016020526040822080546001600160a01b0319163317905560059290925590820180549161101c83611d21565b90915550506000878152600582016020526040812080549161103d83611d21565b91905055507f48e9e2c732ba278de6ac88a3a57a5c5ba13d3d8370e709b3b98333a57876ca958742888888883360405161107d9796959493929190611bb7565b60405180910390a150505050505050565b33600090815260076020526040902060018101548211156110f15760405162461bcd60e51b815260206004820152601b60248201527f696e73756666696369656e74207374616b65642062616c616e636500000000006044820152606401610594565b42815560028101805483919060009061110b908490611c78565b92505081905550818160010160008282546111269190611ccf565b92505081905550816003600082825461113f9190611ccf565b909155505060408051338152602081018490527f3d8d9df4bd0172df32e557fa48e96435cd7f2cac06aaffacfaee608e6f7898ef91015b60405180910390a15050565b60008181526006602052604081208054606092600383019290916111a890600190611ccf565b815481106111c657634e487b7160e01b600052603260045260246000fd5b9060005260206000200154815260200190815260200160002080546111ea90611ce6565b80601f016020809104026020016040519081016040528092919081815260200182805461121690611ce6565b80156112635780601f1061123857610100808354040283529160200191611263565b820191906000526020600020905b81548152906001019060200180831161124657829003601f168201915b50505050509050919050565b336000908152600760205260409020805462093a809061128f9042611ccf565b10156112d25760405162461bcd60e51b8152602060048201526012602482015271372064617973206469646e2774207061737360701b6044820152606401610594565b60008160020154116113315760405162461bcd60e51b815260206004820152602260248201527f7265706f72746572206e6f74206c6f636b656420666f72207769746864726177604482015261185b60f21b6064820152608401610594565b600054600282015460405163a9059cbb60e01b815233600482015260248101919091526001600160a01b039091169063a9059cbb90604401602060405180830381600087803b15801561138357600080fd5b505af1158015611397573d6000803e3d6000fd5b505050506040513d601f19601f820116820180604052508101906113bb91906119d3565b50600060028201556040513381527f4a7934670bd8304e7da22378be1368f7c4fef17c5aee81804beda8638fe428ec9060200161063d565b6000828152600660209081526040808320848452600301909152902080546060919061141e90611ce6565b80601f016020809104026020016040519081016040528092919081815260200182805461144a90611ce6565b80156114975780601f1061146c57610100808354040283529160200191611497565b820191906000526020600020905b81548152906001019060200180831161147a57829003601f168201915b5050505050905092915050565b6001546001600160a01b031633146114ce5760405162461bcd60e51b815260040161059490611c37565b6000811161152d5760405162461bcd60e51b815260206004820152602660248201527f7374616b6520616d6f756e74206d7573742062652067726561746572207468616044820152656e207a65726f60d01b6064820152608401610594565b60028190556040518181527f1af37d6aaef3c5ef293c3c63d0ac302f60db7fde22eb9f5e96ebd569928321109060200161063d565b33600090815260076020526040902060028101541561166a57818160020154106115a5578181600201600082825461159a9190611ccf565b909155506116659050565b60005460028201546001600160a01b03909116906323b872dd90339030906115cd9087611ccf565b6040516001600160e01b031960e086901b1681526001600160a01b0393841660048201529290911660248301526044820152606401602060405180830381600087803b15801561161c57600080fd5b505af1158015611630573d6000803e3d6000fd5b505050506040513d601f19601f8201168201806040525081019061165491906119d3565b61165d57600080fd5b600060028201555b6116fd565b6000546040516323b872dd60e01b8152336004820152306024820152604481018490526001600160a01b03909116906323b872dd90606401602060405180830381600087803b1580156116bc57600080fd5b505af11580156116d0573d6000803e3d6000fd5b505050506040513d601f19601f820116820180604052508101906116f491906119d3565b6116fd57600080fd5b428155600181018054839190600090611717908490611c78565b9250508190555081600360008282546117309190611c78565b909155505060408051338152602081018490527fa96c2cce65119a2170d1711a6e82f18f2006448828483ba7545e5954765436479101611176565b600082815260066020526040812080548390811061179957634e487b7160e01b600052603260045260246000fd5b9060005260206000200154905092915050565b8280546117b890611ce6565b90600052602060002090601f0160209004810192826117da5760008555611820565b82601f106117f357805160ff1916838001178555611820565b82800160010185558215611820579182015b82811115611820578251825591602001919060010190611805565b5061182c9291506118a4565b5090565b82805461183c90611ce6565b90600052602060002090601f01602090048101928261185e5760008555611820565b82601f106118775782800160ff19823516178555611820565b82800160010185558215611820579182015b82811115611820578235825591602001919060010190611889565b5b8082111561182c57600081556001016118a5565b80356001600160a01b038116811461074c57600080fd5b600082601f8301126118e0578081fd5b813567ffffffffffffffff808211156118fb576118fb611d52565b604051601f8301601f19908116603f0116810190828211818310171561192357611923611d52565b8160405283815286602085880101111561193b578485fd5b8360208701602083013792830160200193909352509392505050565b600060208284031215611968578081fd5b611971826118b9565b9392505050565b6000806040838503121561198a578081fd5b611993836118b9565b91506119a1602084016118b9565b90509250929050565b600080604083850312156119bc578182fd5b6119c5836118b9565b946020939093013593505050565b6000602082840312156119e4578081fd5b81518015158114611971578182fd5b600060208284031215611a04578081fd5b5035919050565b600080600080600060808688031215611a22578081fd5b85359450602086013567ffffffffffffffff80821115611a40578283fd5b818801915088601f830112611a53578283fd5b813581811115611a61578384fd5b896020828501011115611a72578384fd5b60208301965080955050604088013593506060880135915080821115611a96578283fd5b50611aa3888289016118d0565b9150509295509295909350565b60008060408385031215611ac2578182fd5b50508035926020909101359150565b60008151808452815b81811015611af657602081850181015186830182015201611ada565b81811115611b075782602083870101525b50601f01601f19169290920160200192915050565b600080835482600182811c915080831680611b3857607f831692505b6020808410821415611b5857634e487b7160e01b87526022600452602487fd5b818015611b6c5760018114611b7d57611ba9565b60ff19861689528489019650611ba9565b60008a815260209020885b86811015611ba15781548b820152908501908301611b88565b505084890196505b509498975050505050505050565b600088825287602083015260c060408301528560c0830152858760e08401378060e08784010152601f19601f870116820185606084015260e0838203016080840152611c0660e0820186611ad1565b9150506001600160a01b03831660a083015298975050505050505050565b6000602082526119716020830184611ad1565b60208082526021908201527f63616c6c6572206d75737420626520676f7665726e616e6365206164647265736040820152607360f81b606082015260800190565b60008219821115611c8b57611c8b611d3c565b500190565b600082611cab57634e487b7160e01b81526012600452602481fd5b500490565b6000816000190483118215151615611cca57611cca611d3c565b500290565b600082821015611ce157611ce1611d3c565b500390565b600181811c90821680611cfa57607f821691505b60208210811415611d1b57634e487b7160e01b600052602260045260246000fd5b50919050565b6000600019821415611d3557611d35611d3c565b5060010190565b634e487b7160e01b600052601160045260246000fd5b634e487b7160e01b600052604160045260246000fdfea264697066735822122086944903ad045b119ab3fe11e3834da1309096fb2119975569503be54ff38c3564736f6c63430008030033",
          "opcodes": "PUSH1 0x80 PUSH1 0x40 MSTORE TIMESTAMP PUSH1 0x5 SSTORE CALLVALUE DUP1 ISZERO PUSH3 0x15 JUMPI PUSH1 0x0 DUP1 REVERT JUMPDEST POP PUSH1 0x40 MLOAD PUSH3 0x1F3D CODESIZE SUB DUP1 PUSH3 0x1F3D DUP4 CODECOPY DUP2 ADD PUSH1 0x40 DUP2 SWAP1 MSTORE PUSH3 0x38 SWAP2 PUSH3 0x148 JUMP JUMPDEST PUSH1 0x1 PUSH1 0x1 PUSH1 0xA0 SHL SUB DUP5 AND PUSH3 0x94 JUMPI PUSH1 0x40 MLOAD PUSH3 0x461BCD PUSH1 0xE5 SHL DUP2 MSTORE PUSH1 0x20 PUSH1 0x4 DUP3 ADD MSTORE PUSH1 0x16 PUSH1 0x24 DUP3 ADD MSTORE PUSH32 0x6D7573742073657420746F6B656E206164647265737300000000000000000000 PUSH1 0x44 DUP3 ADD MSTORE PUSH1 0x64 ADD JUMPDEST PUSH1 0x40 MLOAD DUP1 SWAP2 SUB SWAP1 REVERT JUMPDEST PUSH1 0x1 PUSH1 0x1 PUSH1 0xA0 SHL SUB DUP4 AND PUSH3 0xEC JUMPI PUSH1 0x40 MLOAD PUSH3 0x461BCD PUSH1 0xE5 SHL DUP2 MSTORE PUSH1 0x20 PUSH1 0x4 DUP3 ADD MSTORE PUSH1 0x1B PUSH1 0x24 DUP3 ADD MSTORE PUSH32 0x6D7573742073657420676F7665726E616E636520616464726573730000000000 PUSH1 0x44 DUP3 ADD MSTORE PUSH1 0x64 ADD PUSH3 0x8B JUMP JUMPDEST PUSH1 0x0 DUP1 SLOAD PUSH1 0x1 PUSH1 0x1 PUSH1 0xA0 SHL SUB SWAP6 DUP7 AND PUSH1 0x1 PUSH1 0x1 PUSH1 0xA0 SHL SUB NOT SWAP2 DUP3 AND OR SWAP1 SWAP2 SSTORE PUSH1 0x1 DUP1 SLOAD SWAP5 SWAP1 SWAP6 AND SWAP4 AND SWAP3 SWAP1 SWAP3 OR SWAP1 SWAP3 SSTORE PUSH1 0x2 SWAP2 SWAP1 SWAP2 SSTORE PUSH1 0x4 SSTORE PUSH3 0x18F JUMP JUMPDEST DUP1 MLOAD PUSH1 0x1 PUSH1 0x1 PUSH1 0xA0 SHL SUB DUP2 AND DUP2 EQ PUSH3 0x143 JUMPI PUSH1 0x0 DUP1 REVERT JUMPDEST SWAP2 SWAP1 POP JUMP JUMPDEST PUSH1 0x0 DUP1 PUSH1 0x0 DUP1 PUSH1 0x80 DUP6 DUP8 SUB SLT ISZERO PUSH3 0x15E JUMPI DUP4 DUP5 REVERT JUMPDEST PUSH3 0x169 DUP6 PUSH3 0x12B JUMP JUMPDEST SWAP4 POP PUSH3 0x179 PUSH1 0x20 DUP7 ADD PUSH3 0x12B JUMP JUMPDEST PUSH1 0x40 DUP7 ADD MLOAD PUSH1 0x60 SWAP1 SWAP7 ADD MLOAD SWAP5 SWAP8 SWAP1 SWAP7 POP SWAP3 POP POP POP JUMP JUMPDEST PUSH2 0x1D9E DUP1 PUSH3 0x19F PUSH1 0x0 CODECOPY PUSH1 0x0 RETURN INVALID PUSH1 0x80 PUSH1 0x40 MSTORE CALLVALUE DUP1 ISZERO PUSH2 0x10 JUMPI PUSH1 0x0 DUP1 REVERT JUMPDEST POP PUSH1 0x4 CALLDATASIZE LT PUSH2 0x1FB JUMPI PUSH1 0x0 CALLDATALOAD PUSH1 0xE0 SHR DUP1 PUSH4 0x722580B6 GT PUSH2 0x11A JUMPI DUP1 PUSH4 0xADF1639D GT PUSH2 0xAD JUMPI DUP1 PUSH4 0xCA79B5A9 GT PUSH2 0x7C JUMPI DUP1 PUSH4 0xCA79B5A9 EQ PUSH2 0x4E6 JUMPI DUP1 PUSH4 0xCB82CC8F EQ PUSH2 0x4F9 JUMPI DUP1 PUSH4 0xCE5E11BF EQ PUSH2 0x50C JUMPI DUP1 PUSH4 0xE07C5486 EQ PUSH2 0x51F JUMPI DUP1 PUSH4 0xFC0C546A EQ PUSH2 0x557 JUMPI PUSH2 0x1FB JUMP JUMPDEST DUP1 PUSH4 0xADF1639D EQ PUSH2 0x4A3 JUMPI DUP1 PUSH4 0xBED9D861 EQ PUSH2 0x4C3 JUMPI DUP1 PUSH4 0xC0F95D52 EQ PUSH2 0x4CB JUMPI DUP1 PUSH4 0xC5958AF9 EQ PUSH2 0x4D3 JUMPI PUSH2 0x1FB JUMP JUMPDEST DUP1 PUSH4 0x8929F4C6 GT PUSH2 0xE9 JUMPI DUP1 PUSH4 0x8929F4C6 EQ PUSH2 0x429 JUMPI DUP1 PUSH4 0x935408D0 EQ PUSH2 0x43C JUMPI DUP1 PUSH4 0x94409A56 EQ PUSH2 0x46B JUMPI DUP1 PUSH4 0x9D9B16ED EQ PUSH2 0x474 JUMPI PUSH2 0x1FB JUMP JUMPDEST DUP1 PUSH4 0x722580B6 EQ PUSH2 0x382 JUMPI DUP1 PUSH4 0x73252494 EQ PUSH2 0x38A JUMPI DUP1 PUSH4 0x733BDEF0 EQ PUSH2 0x39B JUMPI DUP1 PUSH4 0x77B03E0D EQ PUSH2 0x409 JUMPI PUSH2 0x1FB JUMP JUMPDEST DUP1 PUSH4 0x4DFC2A34 GT PUSH2 0x192 JUMPI DUP1 PUSH4 0x5D183CFA GT PUSH2 0x161 JUMPI DUP1 PUSH4 0x5D183CFA EQ PUSH2 0x34A JUMPI DUP1 PUSH4 0x5EAA9CED EQ PUSH2 0x35D JUMPI DUP1 PUSH4 0x60C7DC47 EQ PUSH2 0x370 JUMPI DUP1 PUSH4 0x6FD4F229 EQ PUSH2 0x379 JUMPI PUSH2 0x1FB JUMP JUMPDEST DUP1 PUSH4 0x4DFC2A34 EQ PUSH2 0x2E5 JUMPI DUP1 PUSH4 0x50005B83 EQ PUSH2 0x2F8 JUMPI DUP1 PUSH4 0x5AA6E675 EQ PUSH2 0x324 JUMPI DUP1 PUSH4 0x5B5EDCFC EQ PUSH2 0x337 JUMPI PUSH2 0x1FB JUMP JUMPDEST DUP1 PUSH4 0x2B6696A7 GT PUSH2 0x1CE JUMPI DUP1 PUSH4 0x2B6696A7 EQ PUSH2 0x28F JUMPI DUP1 PUSH4 0x3321FC41 EQ PUSH2 0x2C1 JUMPI DUP1 PUSH4 0x3878293E EQ PUSH2 0x2CA JUMPI DUP1 PUSH4 0x460C33A2 EQ PUSH2 0x2DD JUMPI PUSH2 0x1FB JUMP JUMPDEST DUP1 PUSH4 0x636769E EQ PUSH2 0x200 JUMPI DUP1 PUSH4 0x10FE9AE8 EQ PUSH2 0x215 JUMPI DUP1 PUSH4 0x11938E08 EQ PUSH2 0x23F JUMPI DUP1 PUSH4 0x14C2A1BC EQ PUSH2 0x287 JUMPI JUMPDEST PUSH1 0x0 DUP1 REVERT JUMPDEST PUSH2 0x213 PUSH2 0x20E CALLDATASIZE PUSH1 0x4 PUSH2 0x1957 JUMP JUMPDEST PUSH2 0x56A JUMP JUMPDEST STOP JUMPDEST PUSH1 0x0 SLOAD PUSH1 0x1 PUSH1 0x1 PUSH1 0xA0 SHL SUB AND JUMPDEST PUSH1 0x40 MLOAD PUSH1 0x1 PUSH1 0x1 PUSH1 0xA0 SHL SUB SWAP1 SWAP2 AND DUP2 MSTORE PUSH1 0x20 ADD JUMPDEST PUSH1 0x40 MLOAD DUP1 SWAP2 SUB SWAP1 RETURN JUMPDEST PUSH2 0x279 PUSH2 0x24D CALLDATASIZE PUSH1 0x4 PUSH2 0x19AA JUMP JUMPDEST PUSH1 0x1 PUSH1 0x1 PUSH1 0xA0 SHL SUB SWAP2 SWAP1 SWAP2 AND PUSH1 0x0 SWAP1 DUP2 MSTORE PUSH1 0x7 PUSH1 0x20 SWAP1 DUP2 MSTORE PUSH1 0x40 DUP1 DUP4 KECCAK256 SWAP4 DUP4 MSTORE PUSH1 0x5 SWAP1 SWAP4 ADD SWAP1 MSTORE KECCAK256 SLOAD SWAP1 JUMP JUMPDEST PUSH1 0x40 MLOAD SWAP1 DUP2 MSTORE PUSH1 0x20 ADD PUSH2 0x236 JUMP JUMPDEST PUSH1 0x3 SLOAD PUSH2 0x279 JUMP JUMPDEST PUSH2 0x2A2 PUSH2 0x29D CALLDATASIZE PUSH1 0x4 PUSH2 0x1AB0 JUMP JUMPDEST PUSH2 0x648 JUMP JUMPDEST PUSH1 0x40 DUP1 MLOAD PUSH1 0x1 PUSH1 0x1 PUSH1 0xA0 SHL SUB SWAP1 SWAP4 AND DUP4 MSTORE SWAP1 ISZERO ISZERO PUSH1 0x20 DUP4 ADD MSTORE ADD PUSH2 0x236 JUMP JUMPDEST PUSH2 0x279 PUSH1 0x4 SLOAD DUP2 JUMP JUMPDEST PUSH2 0x279 PUSH2 0x2D8 CALLDATASIZE PUSH1 0x4 PUSH2 0x1957 JUMP JUMPDEST PUSH2 0x72F JUMP JUMPDEST PUSH1 0x4 SLOAD PUSH2 0x279 JUMP JUMPDEST PUSH2 0x279 PUSH2 0x2F3 CALLDATASIZE PUSH1 0x4 PUSH2 0x1978 JUMP JUMPDEST PUSH2 0x751 JUMP JUMPDEST PUSH2 0x279 PUSH2 0x306 CALLDATASIZE PUSH1 0x4 PUSH2 0x1957 JUMP JUMPDEST PUSH1 0x1 PUSH1 0x1 PUSH1 0xA0 SHL SUB AND PUSH1 0x0 SWAP1 DUP2 MSTORE PUSH1 0x7 PUSH1 0x20 MSTORE PUSH1 0x40 SWAP1 KECCAK256 PUSH1 0x3 ADD SLOAD SWAP1 JUMP JUMPDEST PUSH1 0x1 SLOAD PUSH2 0x222 SWAP1 PUSH1 0x1 PUSH1 0x1 PUSH1 0xA0 SHL SUB AND DUP2 JUMP JUMPDEST PUSH2 0x213 PUSH2 0x345 CALLDATASIZE PUSH1 0x4 PUSH2 0x1AB0 JUMP JUMPDEST PUSH2 0x9F5 JUMP JUMPDEST PUSH2 0x213 PUSH2 0x358 CALLDATASIZE PUSH1 0x4 PUSH2 0x19F3 JUMP JUMPDEST PUSH2 0xC83 JUMP JUMPDEST PUSH2 0x213 PUSH2 0x36B CALLDATASIZE PUSH1 0x4 PUSH2 0x1A0B JUMP JUMPDEST PUSH2 0xD43 JUMP JUMPDEST PUSH2 0x279 PUSH1 0x2 SLOAD DUP2 JUMP JUMPDEST PUSH2 0x279 PUSH1 0x5 SLOAD DUP2 JUMP JUMPDEST PUSH1 0x2 SLOAD PUSH2 0x279 JUMP JUMPDEST PUSH1 0x1 SLOAD PUSH1 0x1 PUSH1 0x1 PUSH1 0xA0 SHL SUB AND PUSH2 0x222 JUMP JUMPDEST PUSH2 0x3E1 PUSH2 0x3A9 CALLDATASIZE PUSH1 0x4 PUSH2 0x1957 JUMP JUMPDEST PUSH1 0x1 PUSH1 0x1 PUSH1 0xA0 SHL SUB AND PUSH1 0x0 SWAP1 DUP2 MSTORE PUSH1 0x7 PUSH1 0x20 MSTORE PUSH1 0x40 SWAP1 KECCAK256 DUP1 SLOAD PUSH1 0x1 DUP3 ADD SLOAD PUSH1 0x2 DUP4 ADD SLOAD PUSH1 0x3 DUP5 ADD SLOAD PUSH1 0x4 SWAP1 SWAP5 ADD SLOAD SWAP3 SWAP5 SWAP2 SWAP4 SWAP1 SWAP3 SWAP1 SWAP2 JUMP JUMPDEST PUSH1 0x40 DUP1 MLOAD SWAP6 DUP7 MSTORE PUSH1 0x20 DUP7 ADD SWAP5 SWAP1 SWAP5 MSTORE SWAP3 DUP5 ADD SWAP2 SWAP1 SWAP2 MSTORE PUSH1 0x60 DUP4 ADD MSTORE PUSH1 0x80 DUP3 ADD MSTORE PUSH1 0xA0 ADD PUSH2 0x236 JUMP JUMPDEST PUSH2 0x279 PUSH2 0x417 CALLDATASIZE PUSH1 0x4 PUSH2 0x19F3 JUMP JUMPDEST PUSH1 0x0 SWAP1 DUP2 MSTORE PUSH1 0x6 PUSH1 0x20 MSTORE PUSH1 0x40 SWAP1 KECCAK256 SLOAD SWAP1 JUMP JUMPDEST PUSH2 0x213 PUSH2 0x437 CALLDATASIZE PUSH1 0x4 PUSH2 0x19F3 JUMP JUMPDEST PUSH2 0x108E JUMP JUMPDEST PUSH2 0x279 PUSH2 0x44A CALLDATASIZE PUSH1 0x4 PUSH2 0x1AB0 JUMP JUMPDEST PUSH1 0x0 SWAP2 DUP3 MSTORE PUSH1 0x6 PUSH1 0x20 SWAP1 DUP2 MSTORE PUSH1 0x40 DUP1 DUP5 KECCAK256 SWAP3 DUP5 MSTORE PUSH1 0x2 SWAP1 SWAP3 ADD SWAP1 MSTORE SWAP1 KECCAK256 SLOAD SWAP1 JUMP JUMPDEST PUSH2 0x279 PUSH1 0x3 SLOAD DUP2 JUMP JUMPDEST PUSH2 0x279 PUSH2 0x482 CALLDATASIZE PUSH1 0x4 PUSH2 0x1AB0 JUMP JUMPDEST PUSH1 0x0 SWAP2 DUP3 MSTORE PUSH1 0x6 PUSH1 0x20 SWAP1 DUP2 MSTORE PUSH1 0x40 DUP1 DUP5 KECCAK256 SWAP3 DUP5 MSTORE PUSH1 0x1 SWAP1 SWAP3 ADD SWAP1 MSTORE SWAP1 KECCAK256 SLOAD SWAP1 JUMP JUMPDEST PUSH2 0x4B6 PUSH2 0x4B1 CALLDATASIZE PUSH1 0x4 PUSH2 0x19F3 JUMP JUMPDEST PUSH2 0x1182 JUMP JUMPDEST PUSH1 0x40 MLOAD PUSH2 0x236 SWAP2 SWAP1 PUSH2 0x1C24 JUMP JUMPDEST PUSH2 0x213 PUSH2 0x126F JUMP JUMPDEST PUSH1 0x5 SLOAD PUSH2 0x279 JUMP JUMPDEST PUSH2 0x4B6 PUSH2 0x4E1 CALLDATASIZE PUSH1 0x4 PUSH2 0x1AB0 JUMP JUMPDEST PUSH2 0x13F3 JUMP JUMPDEST PUSH2 0x213 PUSH2 0x4F4 CALLDATASIZE PUSH1 0x4 PUSH2 0x19F3 JUMP JUMPDEST PUSH2 0x14A4 JUMP JUMPDEST PUSH2 0x213 PUSH2 0x507 CALLDATASIZE PUSH1 0x4 PUSH2 0x19F3 JUMP JUMPDEST PUSH2 0x1562 JUMP JUMPDEST PUSH2 0x279 PUSH2 0x51A CALLDATASIZE PUSH1 0x4 PUSH2 0x1AB0 JUMP JUMPDEST PUSH2 0x176B JUMP JUMPDEST PUSH2 0x222 PUSH2 0x52D CALLDATASIZE PUSH1 0x4 PUSH2 0x1AB0 JUMP JUMPDEST PUSH1 0x0 SWAP2 DUP3 MSTORE PUSH1 0x6 PUSH1 0x20 SWAP1 DUP2 MSTORE PUSH1 0x40 DUP1 DUP5 KECCAK256 SWAP3 DUP5 MSTORE PUSH1 0x4 SWAP1 SWAP3 ADD SWAP1 MSTORE SWAP1 KECCAK256 SLOAD PUSH1 0x1 PUSH1 0x1 PUSH1 0xA0 SHL SUB AND SWAP1 JUMP JUMPDEST PUSH1 0x0 SLOAD PUSH2 0x222 SWAP1 PUSH1 0x1 PUSH1 0x1 PUSH1 0xA0 SHL SUB AND DUP2 JUMP JUMPDEST PUSH1 0x1 SLOAD PUSH1 0x1 PUSH1 0x1 PUSH1 0xA0 SHL SUB AND CALLER EQ PUSH2 0x59D JUMPI PUSH1 0x40 MLOAD PUSH3 0x461BCD PUSH1 0xE5 SHL DUP2 MSTORE PUSH1 0x4 ADD PUSH2 0x594 SWAP1 PUSH2 0x1C37 JUMP JUMPDEST PUSH1 0x40 MLOAD DUP1 SWAP2 SUB SWAP1 REVERT JUMPDEST PUSH1 0x1 PUSH1 0x1 PUSH1 0xA0 SHL SUB DUP2 AND PUSH2 0x5F3 JUMPI PUSH1 0x40 MLOAD PUSH3 0x461BCD PUSH1 0xE5 SHL DUP2 MSTORE PUSH1 0x20 PUSH1 0x4 DUP3 ADD MSTORE PUSH1 0x1B PUSH1 0x24 DUP3 ADD MSTORE PUSH32 0x6D7573742073657420676F7665726E616E636520616464726573730000000000 PUSH1 0x44 DUP3 ADD MSTORE PUSH1 0x64 ADD PUSH2 0x594 JUMP JUMPDEST PUSH1 0x1 DUP1 SLOAD PUSH1 0x1 PUSH1 0x1 PUSH1 0xA0 SHL SUB NOT AND PUSH1 0x1 PUSH1 0x1 PUSH1 0xA0 SHL SUB DUP4 AND SWAP1 DUP2 OR SWAP1 SWAP2 SSTORE PUSH1 0x40 MLOAD SWAP1 DUP2 MSTORE PUSH32 0x682527AAFB5B7E86077049B38534CD433DD39D523B92B0455DAB09A16DC0A7DB SWAP1 PUSH1 0x20 ADD JUMPDEST PUSH1 0x40 MLOAD DUP1 SWAP2 SUB SWAP1 LOG1 POP JUMP JUMPDEST PUSH1 0x0 DUP3 DUP2 MSTORE PUSH1 0x6 PUSH1 0x20 SWAP1 DUP2 MSTORE PUSH1 0x40 DUP1 DUP4 KECCAK256 DUP5 DUP5 MSTORE PUSH1 0x1 ADD SWAP1 SWAP2 MSTORE DUP2 KECCAK256 SLOAD DUP2 SWAP1 DUP2 SWAP1 ISZERO DUP1 ISZERO PUSH2 0x6CE JUMPI POP PUSH1 0x40 DUP1 MLOAD PUSH1 0x20 DUP1 DUP3 ADD DUP4 MSTORE PUSH1 0x0 SWAP2 DUP3 SWAP1 MSTORE DUP8 DUP3 MSTORE PUSH1 0x6 DUP2 MSTORE DUP3 DUP3 KECCAK256 DUP8 DUP4 MSTORE PUSH1 0x3 ADD SWAP1 MSTORE DUP2 SWAP1 KECCAK256 SWAP1 MLOAD PUSH32 0xC5D2460186F7233C927E7DB2DCC703C0E500B653CA82273B7BFAD8045D85A470 SWAP2 PUSH2 0x6C4 SWAP2 PUSH2 0x1B1C JUMP JUMPDEST PUSH1 0x40 MLOAD DUP1 SWAP2 SUB SWAP1 KECCAK256 EQ JUMPDEST DUP1 ISZERO PUSH2 0x6FE JUMPI POP PUSH1 0x0 DUP6 DUP2 MSTORE PUSH1 0x6 PUSH1 0x20 SWAP1 DUP2 MSTORE PUSH1 0x40 DUP1 DUP4 KECCAK256 DUP8 DUP5 MSTORE PUSH1 0x4 ADD SWAP1 SWAP2 MSTORE SWAP1 KECCAK256 SLOAD PUSH1 0x1 PUSH1 0x1 PUSH1 0xA0 SHL SUB AND ISZERO ISZERO JUMPDEST PUSH1 0x0 SWAP6 DUP7 MSTORE PUSH1 0x6 PUSH1 0x20 SWAP1 DUP2 MSTORE PUSH1 0x40 DUP1 DUP9 KECCAK256 SWAP7 DUP9 MSTORE PUSH1 0x4 SWAP1 SWAP7 ADD SWAP1 MSTORE SWAP4 SWAP1 SWAP5 KECCAK256 SLOAD PUSH1 0x1 PUSH1 0x1 PUSH1 0xA0 SHL SUB AND SWAP5 SWAP3 SWAP4 POP POP POP JUMP JUMPDEST PUSH1 0x1 PUSH1 0x1 PUSH1 0xA0 SHL SUB DUP2 AND PUSH1 0x0 SWAP1 DUP2 MSTORE PUSH1 0x7 PUSH1 0x20 MSTORE PUSH1 0x40 SWAP1 KECCAK256 PUSH1 0x4 ADD SLOAD JUMPDEST SWAP2 SWAP1 POP JUMP JUMPDEST PUSH1 0x1 SLOAD PUSH1 0x0 SWAP1 PUSH1 0x1 PUSH1 0x1 PUSH1 0xA0 SHL SUB AND CALLER EQ PUSH2 0x7B9 JUMPI PUSH1 0x40 MLOAD PUSH3 0x461BCD PUSH1 0xE5 SHL DUP2 MSTORE PUSH1 0x20 PUSH1 0x4 DUP3 ADD MSTORE PUSH1 0x22 PUSH1 0x24 DUP3 ADD MSTORE PUSH32 0x6F6E6C7920676F7665726E616E63652063616E20736C617368207265706F7274 PUSH1 0x44 DUP3 ADD MSTORE PUSH2 0x32B9 PUSH1 0xF1 SHL PUSH1 0x64 DUP3 ADD MSTORE PUSH1 0x84 ADD PUSH2 0x594 JUMP JUMPDEST PUSH1 0x1 PUSH1 0x1 PUSH1 0xA0 SHL SUB DUP4 AND PUSH1 0x0 SWAP1 DUP2 MSTORE PUSH1 0x7 PUSH1 0x20 MSTORE PUSH1 0x40 DUP2 KECCAK256 PUSH1 0x2 DUP2 ADD SLOAD PUSH1 0x1 DUP3 ADD SLOAD SWAP2 SWAP3 SWAP2 PUSH2 0x7E8 SWAP2 SWAP1 PUSH2 0x1C78 JUMP JUMPDEST GT PUSH2 0x82B JUMPI PUSH1 0x40 MLOAD PUSH3 0x461BCD PUSH1 0xE5 SHL DUP2 MSTORE PUSH1 0x20 PUSH1 0x4 DUP3 ADD MSTORE PUSH1 0x13 PUSH1 0x24 DUP3 ADD MSTORE PUSH19 0x7A65726F207374616B65722062616C616E6365 PUSH1 0x68 SHL PUSH1 0x44 DUP3 ADD MSTORE PUSH1 0x64 ADD PUSH2 0x594 JUMP JUMPDEST PUSH1 0x0 PUSH1 0x2 SLOAD DUP3 PUSH1 0x2 ADD SLOAD LT PUSH2 0x860 JUMPI PUSH1 0x2 SLOAD SWAP1 POP PUSH1 0x2 SLOAD DUP3 PUSH1 0x2 ADD PUSH1 0x0 DUP3 DUP3 SLOAD PUSH2 0x855 SWAP2 SWAP1 PUSH2 0x1CCF JUMP JUMPDEST SWAP1 SWAP2 SSTORE POP PUSH2 0x91B SWAP1 POP JUMP JUMPDEST PUSH1 0x2 SLOAD DUP3 PUSH1 0x1 ADD SLOAD DUP4 PUSH1 0x2 ADD SLOAD PUSH2 0x877 SWAP2 SWAP1 PUSH2 0x1C78 JUMP JUMPDEST LT PUSH2 0x8DB JUMPI POP PUSH1 0x2 DUP1 SLOAD SWAP1 DUP3 ADD SLOAD PUSH2 0x88F SWAP1 DUP3 PUSH2 0x1CCF JUMP JUMPDEST DUP3 PUSH1 0x1 ADD PUSH1 0x0 DUP3 DUP3 SLOAD PUSH2 0x8A2 SWAP2 SWAP1 PUSH2 0x1CCF JUMP JUMPDEST SWAP1 SWAP2 SSTORE POP POP PUSH1 0x2 DUP1 DUP4 ADD SLOAD SWAP1 SLOAD PUSH2 0x8B9 SWAP2 SWAP1 PUSH2 0x1CCF JUMP JUMPDEST PUSH1 0x3 PUSH1 0x0 DUP3 DUP3 SLOAD PUSH2 0x8CA SWAP2 SWAP1 PUSH2 0x1CCF JUMP JUMPDEST SWAP1 SWAP2 SSTORE POP POP PUSH1 0x0 PUSH1 0x2 DUP4 ADD SSTORE PUSH2 0x91B JUMP JUMPDEST DUP2 PUSH1 0x2 ADD SLOAD DUP3 PUSH1 0x1 ADD SLOAD PUSH2 0x8EF SWAP2 SWAP1 PUSH2 0x1C78 JUMP JUMPDEST SWAP1 POP DUP2 PUSH1 0x1 ADD SLOAD PUSH1 0x3 PUSH1 0x0 DUP3 DUP3 SLOAD PUSH2 0x907 SWAP2 SWAP1 PUSH2 0x1CCF JUMP JUMPDEST SWAP1 SWAP2 SSTORE POP POP PUSH1 0x0 PUSH1 0x1 DUP4 ADD DUP2 SWAP1 SSTORE PUSH1 0x2 DUP4 ADD SSTORE JUMPDEST PUSH1 0x0 SLOAD PUSH1 0x40 MLOAD PUSH4 0xA9059CBB PUSH1 0xE0 SHL DUP2 MSTORE PUSH1 0x1 PUSH1 0x1 PUSH1 0xA0 SHL SUB DUP7 DUP2 AND PUSH1 0x4 DUP4 ADD MSTORE PUSH1 0x24 DUP3 ADD DUP5 SWAP1 MSTORE SWAP1 SWAP2 AND SWAP1 PUSH4 0xA9059CBB SWAP1 PUSH1 0x44 ADD PUSH1 0x20 PUSH1 0x40 MLOAD DUP1 DUP4 SUB DUP2 PUSH1 0x0 DUP8 DUP1 EXTCODESIZE ISZERO DUP1 ISZERO PUSH2 0x969 JUMPI PUSH1 0x0 DUP1 REVERT JUMPDEST POP GAS CALL ISZERO DUP1 ISZERO PUSH2 0x97D JUMPI RETURNDATASIZE PUSH1 0x0 DUP1 RETURNDATACOPY RETURNDATASIZE PUSH1 0x0 REVERT JUMPDEST POP POP POP POP PUSH1 0x40 MLOAD RETURNDATASIZE PUSH1 0x1F NOT PUSH1 0x1F DUP3 ADD AND DUP3 ADD DUP1 PUSH1 0x40 MSTORE POP DUP2 ADD SWAP1 PUSH2 0x9A1 SWAP2 SWAP1 PUSH2 0x19D3 JUMP JUMPDEST POP PUSH1 0x40 DUP1 MLOAD PUSH1 0x1 PUSH1 0x1 PUSH1 0xA0 SHL SUB DUP1 DUP9 AND DUP3 MSTORE DUP7 AND PUSH1 0x20 DUP3 ADD MSTORE SWAP1 DUP2 ADD DUP3 SWAP1 MSTORE PUSH32 0x4317784407A22E643706EF000F5C0EEA399DEA3632613786167AB71C9446E3AC SWAP1 PUSH1 0x60 ADD PUSH1 0x40 MLOAD DUP1 SWAP2 SUB SWAP1 LOG1 SWAP5 SWAP4 POP POP POP POP JUMP JUMPDEST PUSH1 0x1 SLOAD PUSH1 0x1 PUSH1 0x1 PUSH1 0xA0 SHL SUB AND CALLER EQ PUSH2 0xA1F JUMPI PUSH1 0x40 MLOAD PUSH3 0x461BCD PUSH1 0xE5 SHL DUP2 MSTORE PUSH1 0x4 ADD PUSH2 0x594 SWAP1 PUSH2 0x1C37 JUMP JUMPDEST PUSH1 0x0 DUP3 DUP2 MSTORE PUSH1 0x6 PUSH1 0x20 SWAP1 DUP2 MSTORE PUSH1 0x40 DUP1 DUP4 KECCAK256 DUP5 DUP5 MSTORE PUSH1 0x1 DUP2 ADD SWAP1 SWAP3 MSTORE SWAP1 SWAP2 KECCAK256 SLOAD DUP2 SLOAD DUP3 SWAP1 DUP3 SWAP1 DUP2 LT PUSH2 0xA60 JUMPI PUSH4 0x4E487B71 PUSH1 0xE0 SHL PUSH1 0x0 MSTORE PUSH1 0x32 PUSH1 0x4 MSTORE PUSH1 0x24 PUSH1 0x0 REVERT JUMPDEST SWAP1 PUSH1 0x0 MSTORE PUSH1 0x20 PUSH1 0x0 KECCAK256 ADD SLOAD DUP4 EQ PUSH2 0xAAD JUMPI PUSH1 0x40 MLOAD PUSH3 0x461BCD PUSH1 0xE5 SHL DUP2 MSTORE PUSH1 0x20 PUSH1 0x4 DUP3 ADD MSTORE PUSH1 0x11 PUSH1 0x24 DUP3 ADD MSTORE PUSH17 0x696E76616C69642074696D657374616D7 PUSH1 0x7C SHL PUSH1 0x44 DUP3 ADD MSTORE PUSH1 0x64 ADD PUSH2 0x594 JUMP JUMPDEST DUP1 JUMPDEST DUP3 SLOAD PUSH2 0xABD SWAP1 PUSH1 0x1 SWAP1 PUSH2 0x1CCF JUMP JUMPDEST DUP2 LT ISZERO PUSH2 0xB95 JUMPI DUP3 PUSH2 0xAD0 DUP3 PUSH1 0x1 PUSH2 0x1C78 JUMP JUMPDEST DUP2 SLOAD DUP2 LT PUSH2 0xAEE JUMPI PUSH4 0x4E487B71 PUSH1 0xE0 SHL PUSH1 0x0 MSTORE PUSH1 0x32 PUSH1 0x4 MSTORE PUSH1 0x24 PUSH1 0x0 REVERT JUMPDEST SWAP1 PUSH1 0x0 MSTORE PUSH1 0x20 PUSH1 0x0 KECCAK256 ADD SLOAD DUP4 PUSH1 0x0 ADD DUP3 DUP2 SLOAD DUP2 LT PUSH2 0xB1C JUMPI PUSH4 0x4E487B71 PUSH1 0xE0 SHL PUSH1 0x0 MSTORE PUSH1 0x32 PUSH1 0x4 MSTORE PUSH1 0x24 PUSH1 0x0 REVERT JUMPDEST SWAP1 PUSH1 0x0 MSTORE PUSH1 0x20 PUSH1 0x0 KECCAK256 ADD DUP2 SWAP1 SSTORE POP PUSH1 0x1 DUP4 PUSH1 0x1 ADD PUSH1 0x0 DUP6 PUSH1 0x0 ADD DUP5 DUP2 SLOAD DUP2 LT PUSH2 0xB55 JUMPI PUSH4 0x4E487B71 PUSH1 0xE0 SHL PUSH1 0x0 MSTORE PUSH1 0x32 PUSH1 0x4 MSTORE PUSH1 0x24 PUSH1 0x0 REVERT JUMPDEST SWAP1 PUSH1 0x0 MSTORE PUSH1 0x20 PUSH1 0x0 KECCAK256 ADD SLOAD DUP2 MSTORE PUSH1 0x20 ADD SWAP1 DUP2 MSTORE PUSH1 0x20 ADD PUSH1 0x0 KECCAK256 PUSH1 0x0 DUP3 DUP3 SLOAD PUSH2 0xB7D SWAP2 SWAP1 PUSH2 0x1CCF JUMP JUMPDEST SWAP1 SWAP2 SSTORE POP DUP2 SWAP1 POP PUSH2 0xB8D DUP2 PUSH2 0x1D21 JUMP JUMPDEST SWAP2 POP POP PUSH2 0xAAF JUMP JUMPDEST POP DUP2 SLOAD DUP3 SWAP1 PUSH2 0xBA6 SWAP1 PUSH1 0x1 SWAP1 PUSH2 0x1CCF JUMP JUMPDEST DUP2 SLOAD DUP2 LT PUSH2 0xBC4 JUMPI PUSH4 0x4E487B71 PUSH1 0xE0 SHL PUSH1 0x0 MSTORE PUSH1 0x32 PUSH1 0x4 MSTORE PUSH1 0x24 PUSH1 0x0 REVERT JUMPDEST PUSH1 0x0 SWAP2 DUP3 MSTORE PUSH1 0x20 DUP3 KECCAK256 ADD SSTORE DUP2 SLOAD DUP3 SWAP1 DUP1 PUSH2 0xBEE JUMPI PUSH4 0x4E487B71 PUSH1 0xE0 SHL PUSH1 0x0 MSTORE PUSH1 0x31 PUSH1 0x4 MSTORE PUSH1 0x24 PUSH1 0x0 REVERT JUMPDEST PUSH1 0x0 DUP3 DUP2 MSTORE PUSH1 0x20 DUP1 DUP3 KECCAK256 DUP4 ADD PUSH1 0x0 NOT SWAP1 DUP2 ADD DUP4 SWAP1 SSTORE SWAP1 SWAP3 ADD SWAP1 SWAP3 SSTORE PUSH1 0x40 DUP1 MLOAD DUP1 DUP4 ADD DUP1 DUP4 MSTORE DUP5 DUP3 MSTORE DUP8 DUP6 MSTORE PUSH1 0x3 DUP8 ADD SWAP1 SWAP4 MSTORE SWAP3 KECCAK256 SWAP2 MLOAD PUSH2 0xC2F SWAP3 SWAP2 SWAP1 PUSH2 0x17AC JUMP JUMPDEST POP PUSH1 0x0 DUP4 DUP2 MSTORE PUSH1 0x1 DUP4 ADD PUSH1 0x20 SWAP1 DUP2 MSTORE PUSH1 0x40 DUP1 DUP4 KECCAK256 SWAP3 SWAP1 SWAP3 SSTORE DUP2 MLOAD DUP7 DUP2 MSTORE SWAP1 DUP2 ADD DUP6 SWAP1 MSTORE PUSH32 0xB326DB0E54476C677E2B35B75856AC6F4D8BBFB0A6DE6690582EBE4DABCE0DE7 SWAP2 ADD PUSH1 0x40 MLOAD DUP1 SWAP2 SUB SWAP1 LOG1 POP POP POP POP JUMP JUMPDEST PUSH1 0x1 SLOAD PUSH1 0x1 PUSH1 0x1 PUSH1 0xA0 SHL SUB AND CALLER EQ PUSH2 0xCAD JUMPI PUSH1 0x40 MLOAD PUSH3 0x461BCD PUSH1 0xE5 SHL DUP2 MSTORE PUSH1 0x4 ADD PUSH2 0x594 SWAP1 PUSH2 0x1C37 JUMP JUMPDEST PUSH1 0x0 DUP2 GT PUSH2 0xD0E JUMPI PUSH1 0x40 MLOAD PUSH3 0x461BCD PUSH1 0xE5 SHL DUP2 MSTORE PUSH1 0x20 PUSH1 0x4 DUP3 ADD MSTORE PUSH1 0x28 PUSH1 0x24 DUP3 ADD MSTORE PUSH32 0x7265706F7274696E67206C6F636B206D75737420626520677265617465722074 PUSH1 0x44 DUP3 ADD MSTORE PUSH8 0x68616E207A65726F PUSH1 0xC0 SHL PUSH1 0x64 DUP3 ADD MSTORE PUSH1 0x84 ADD PUSH2 0x594 JUMP JUMPDEST PUSH1 0x4 DUP2 SWAP1 SSTORE PUSH1 0x40 MLOAD DUP2 DUP2 MSTORE PUSH32 0x15585049A76F383BBFC7C421EE17AEB528A0947DC478A0C796166239A452BA57 SWAP1 PUSH1 0x20 ADD PUSH2 0x63D JUMP JUMPDEST PUSH1 0x0 DUP6 DUP2 MSTORE PUSH1 0x6 PUSH1 0x20 MSTORE PUSH1 0x40 SWAP1 KECCAK256 DUP1 SLOAD DUP4 EQ DUP1 PUSH2 0xD5E JUMPI POP DUP3 ISZERO JUMPDEST PUSH2 0xDAA JUMPI PUSH1 0x40 MLOAD PUSH3 0x461BCD PUSH1 0xE5 SHL DUP2 MSTORE PUSH1 0x20 PUSH1 0x4 DUP3 ADD DUP2 SWAP1 MSTORE PUSH1 0x24 DUP3 ADD MSTORE PUSH32 0x6E6F6E6365206D757374206D617463682074696D657374616D7020696E646578 PUSH1 0x44 DUP3 ADD MSTORE PUSH1 0x64 ADD PUSH2 0x594 JUMP JUMPDEST CALLER PUSH1 0x0 SWAP1 DUP2 MSTORE PUSH1 0x7 PUSH1 0x20 MSTORE PUSH1 0x40 SWAP1 KECCAK256 PUSH1 0x2 SLOAD PUSH1 0x1 DUP3 ADD SLOAD LT ISZERO PUSH2 0xE21 JUMPI PUSH1 0x40 MLOAD PUSH3 0x461BCD PUSH1 0xE5 SHL DUP2 MSTORE PUSH1 0x20 PUSH1 0x4 DUP3 ADD MSTORE PUSH1 0x29 PUSH1 0x24 DUP3 ADD MSTORE PUSH32 0x62616C616E6365206D7573742062652067726561746572207468616E20737461 PUSH1 0x44 DUP3 ADD MSTORE PUSH9 0x1AD948185B5BDD5B9D PUSH1 0xBA SHL PUSH1 0x64 DUP3 ADD MSTORE PUSH1 0x84 ADD PUSH2 0x594 JUMP JUMPDEST PUSH1 0x2 SLOAD DUP2 PUSH1 0x1 ADD SLOAD PUSH2 0xE33 SWAP2 SWAP1 PUSH2 0x1C90 JUMP JUMPDEST PUSH1 0x4 SLOAD PUSH2 0xE42 SWAP1 PUSH2 0x3E8 PUSH2 0x1CB0 JUMP JUMPDEST PUSH2 0xE4C SWAP2 SWAP1 PUSH2 0x1C90 JUMP JUMPDEST PUSH1 0x3 DUP3 ADD SLOAD PUSH2 0xE5B SWAP1 TIMESTAMP PUSH2 0x1CCF JUMP JUMPDEST PUSH2 0xE67 SWAP1 PUSH2 0x3E8 PUSH2 0x1CB0 JUMP JUMPDEST GT PUSH2 0xEC6 JUMPI PUSH1 0x40 MLOAD PUSH3 0x461BCD PUSH1 0xE5 SHL DUP2 MSTORE PUSH1 0x20 PUSH1 0x4 DUP3 ADD MSTORE PUSH1 0x29 PUSH1 0x24 DUP3 ADD MSTORE PUSH32 0x7374696C6C20696E207265706F727465722074696D65206C6F636B2C20706C65 PUSH1 0x44 DUP3 ADD MSTORE PUSH9 0x617365207761697421 PUSH1 0xB8 SHL PUSH1 0x64 DUP3 ADD MSTORE PUSH1 0x84 ADD PUSH2 0x594 JUMP JUMPDEST DUP3 MLOAD PUSH1 0x20 DUP5 ADD KECCAK256 DUP8 EQ DUP1 PUSH2 0xEDB JUMPI POP PUSH1 0x64 DUP8 GT ISZERO JUMPDEST PUSH2 0xF27 JUMPI PUSH1 0x40 MLOAD PUSH3 0x461BCD PUSH1 0xE5 SHL DUP2 MSTORE PUSH1 0x20 PUSH1 0x4 DUP3 ADD MSTORE PUSH1 0x1D PUSH1 0x24 DUP3 ADD MSTORE PUSH32 0x6964206D7573742062652068617368206F662062797465732064617461000000 PUSH1 0x44 DUP3 ADD MSTORE PUSH1 0x64 ADD PUSH2 0x594 JUMP JUMPDEST TIMESTAMP PUSH1 0x3 DUP3 ADD DUP2 SWAP1 SSTORE PUSH1 0x0 SWAP1 DUP2 MSTORE PUSH1 0x4 DUP4 ADD PUSH1 0x20 MSTORE PUSH1 0x40 SWAP1 KECCAK256 SLOAD PUSH1 0x1 PUSH1 0x1 PUSH1 0xA0 SHL SUB AND ISZERO PUSH2 0xF96 JUMPI PUSH1 0x40 MLOAD PUSH3 0x461BCD PUSH1 0xE5 SHL DUP2 MSTORE PUSH1 0x20 PUSH1 0x4 DUP3 ADD MSTORE PUSH1 0x1E PUSH1 0x24 DUP3 ADD MSTORE PUSH32 0x74696D657374616D7020616C7265616479207265706F7274656420666F720000 PUSH1 0x44 DUP3 ADD MSTORE PUSH1 0x64 ADD PUSH2 0x594 JUMP JUMPDEST DUP2 SLOAD TIMESTAMP PUSH1 0x0 DUP2 DUP2 MSTORE PUSH1 0x1 DUP1 DUP7 ADD PUSH1 0x20 SWAP1 DUP2 MSTORE PUSH1 0x40 DUP1 DUP5 KECCAK256 DUP7 SWAP1 SSTORE SWAP2 DUP6 ADD DUP8 SSTORE DUP7 DUP4 MSTORE DUP1 DUP4 KECCAK256 SWAP1 SWAP5 ADD DUP4 SWAP1 SSTORE SWAP2 DUP2 MSTORE PUSH1 0x2 DUP6 ADD DUP4 MSTORE DUP2 DUP2 KECCAK256 NUMBER SWAP1 SSTORE PUSH1 0x3 DUP6 ADD SWAP1 SWAP3 MSTORE SWAP1 KECCAK256 PUSH2 0xFE4 SWAP1 DUP8 DUP8 PUSH2 0x1830 JUMP JUMPDEST POP TIMESTAMP PUSH1 0x0 DUP2 DUP2 MSTORE PUSH1 0x4 DUP1 DUP6 ADD PUSH1 0x20 MSTORE PUSH1 0x40 DUP3 KECCAK256 DUP1 SLOAD PUSH1 0x1 PUSH1 0x1 PUSH1 0xA0 SHL SUB NOT AND CALLER OR SWAP1 SSTORE PUSH1 0x5 SWAP3 SWAP1 SWAP3 SSTORE SWAP1 DUP3 ADD DUP1 SLOAD SWAP2 PUSH2 0x101C DUP4 PUSH2 0x1D21 JUMP JUMPDEST SWAP1 SWAP2 SSTORE POP POP PUSH1 0x0 DUP8 DUP2 MSTORE PUSH1 0x5 DUP3 ADD PUSH1 0x20 MSTORE PUSH1 0x40 DUP2 KECCAK256 DUP1 SLOAD SWAP2 PUSH2 0x103D DUP4 PUSH2 0x1D21 JUMP JUMPDEST SWAP2 SWAP1 POP SSTORE POP PUSH32 0x48E9E2C732BA278DE6AC88A3A57A5C5BA13D3D8370E709B3B98333A57876CA95 DUP8 TIMESTAMP DUP9 DUP9 DUP9 DUP9 CALLER PUSH1 0x40 MLOAD PUSH2 0x107D SWAP8 SWAP7 SWAP6 SWAP5 SWAP4 SWAP3 SWAP2 SWAP1 PUSH2 0x1BB7 JUMP JUMPDEST PUSH1 0x40 MLOAD DUP1 SWAP2 SUB SWAP1 LOG1 POP POP POP POP POP POP POP JUMP JUMPDEST CALLER PUSH1 0x0 SWAP1 DUP2 MSTORE PUSH1 0x7 PUSH1 0x20 MSTORE PUSH1 0x40 SWAP1 KECCAK256 PUSH1 0x1 DUP2 ADD SLOAD DUP3 GT ISZERO PUSH2 0x10F1 JUMPI PUSH1 0x40 MLOAD PUSH3 0x461BCD PUSH1 0xE5 SHL DUP2 MSTORE PUSH1 0x20 PUSH1 0x4 DUP3 ADD MSTORE PUSH1 0x1B PUSH1 0x24 DUP3 ADD MSTORE PUSH32 0x696E73756666696369656E74207374616B65642062616C616E63650000000000 PUSH1 0x44 DUP3 ADD MSTORE PUSH1 0x64 ADD PUSH2 0x594 JUMP JUMPDEST TIMESTAMP DUP2 SSTORE PUSH1 0x2 DUP2 ADD DUP1 SLOAD DUP4 SWAP2 SWAP1 PUSH1 0x0 SWAP1 PUSH2 0x110B SWAP1 DUP5 SWAP1 PUSH2 0x1C78 JUMP JUMPDEST SWAP3 POP POP DUP2 SWAP1 SSTORE POP DUP2 DUP2 PUSH1 0x1 ADD PUSH1 0x0 DUP3 DUP3 SLOAD PUSH2 0x1126 SWAP2 SWAP1 PUSH2 0x1CCF JUMP JUMPDEST SWAP3 POP POP DUP2 SWAP1 SSTORE POP DUP2 PUSH1 0x3 PUSH1 0x0 DUP3 DUP3 SLOAD PUSH2 0x113F SWAP2 SWAP1 PUSH2 0x1CCF JUMP JUMPDEST SWAP1 SWAP2 SSTORE POP POP PUSH1 0x40 DUP1 MLOAD CALLER DUP2 MSTORE PUSH1 0x20 DUP2 ADD DUP5 SWAP1 MSTORE PUSH32 0x3D8D9DF4BD0172DF32E557FA48E96435CD7F2CAC06AAFFACFAEE608E6F7898EF SWAP2 ADD JUMPDEST PUSH1 0x40 MLOAD DUP1 SWAP2 SUB SWAP1 LOG1 POP POP JUMP JUMPDEST PUSH1 0x0 DUP2 DUP2 MSTORE PUSH1 0x6 PUSH1 0x20 MSTORE PUSH1 0x40 DUP2 KECCAK256 DUP1 SLOAD PUSH1 0x60 SWAP3 PUSH1 0x3 DUP4 ADD SWAP3 SWAP1 SWAP2 PUSH2 0x11A8 SWAP1 PUSH1 0x1 SWAP1 PUSH2 0x1CCF JUMP JUMPDEST DUP2 SLOAD DUP2 LT PUSH2 0x11C6 JUMPI PUSH4 0x4E487B71 PUSH1 0xE0 SHL PUSH1 0x0 MSTORE PUSH1 0x32 PUSH1 0x4 MSTORE PUSH1 0x24 PUSH1 0x0 REVERT JUMPDEST SWAP1 PUSH1 0x0 MSTORE PUSH1 0x20 PUSH1 0x0 KECCAK256 ADD SLOAD DUP2 MSTORE PUSH1 0x20 ADD SWAP1 DUP2 MSTORE PUSH1 0x20 ADD PUSH1 0x0 KECCAK256 DUP1 SLOAD PUSH2 0x11EA SWAP1 PUSH2 0x1CE6 JUMP JUMPDEST DUP1 PUSH1 0x1F ADD PUSH1 0x20 DUP1 SWAP2 DIV MUL PUSH1 0x20 ADD PUSH1 0x40 MLOAD SWAP1 DUP2 ADD PUSH1 0x40 MSTORE DUP1 SWAP3 SWAP2 SWAP1 DUP2 DUP2 MSTORE PUSH1 0x20 ADD DUP3 DUP1 SLOAD PUSH2 0x1216 SWAP1 PUSH2 0x1CE6 JUMP JUMPDEST DUP1 ISZERO PUSH2 0x1263 JUMPI DUP1 PUSH1 0x1F LT PUSH2 0x1238 JUMPI PUSH2 0x100 DUP1 DUP4 SLOAD DIV MUL DUP4 MSTORE SWAP2 PUSH1 0x20 ADD SWAP2 PUSH2 0x1263 JUMP JUMPDEST DUP3 ADD SWAP2 SWAP1 PUSH1 0x0 MSTORE PUSH1 0x20 PUSH1 0x0 KECCAK256 SWAP1 JUMPDEST DUP2 SLOAD DUP2 MSTORE SWAP1 PUSH1 0x1 ADD SWAP1 PUSH1 0x20 ADD DUP1 DUP4 GT PUSH2 0x1246 JUMPI DUP3 SWAP1 SUB PUSH1 0x1F AND DUP3 ADD SWAP2 JUMPDEST POP POP POP POP POP SWAP1 POP SWAP2 SWAP1 POP JUMP JUMPDEST CALLER PUSH1 0x0 SWAP1 DUP2 MSTORE PUSH1 0x7 PUSH1 0x20 MSTORE PUSH1 0x40 SWAP1 KECCAK256 DUP1 SLOAD PUSH3 0x93A80 SWAP1 PUSH2 0x128F SWAP1 TIMESTAMP PUSH2 0x1CCF JUMP JUMPDEST LT ISZERO PUSH2 0x12D2 JUMPI PUSH1 0x40 MLOAD PUSH3 0x461BCD PUSH1 0xE5 SHL DUP2 MSTORE PUSH1 0x20 PUSH1 0x4 DUP3 ADD MSTORE PUSH1 0x12 PUSH1 0x24 DUP3 ADD MSTORE PUSH18 0x372064617973206469646E27742070617373 PUSH1 0x70 SHL PUSH1 0x44 DUP3 ADD MSTORE PUSH1 0x64 ADD PUSH2 0x594 JUMP JUMPDEST PUSH1 0x0 DUP2 PUSH1 0x2 ADD SLOAD GT PUSH2 0x1331 JUMPI PUSH1 0x40 MLOAD PUSH3 0x461BCD PUSH1 0xE5 SHL DUP2 MSTORE PUSH1 0x20 PUSH1 0x4 DUP3 ADD MSTORE PUSH1 0x22 PUSH1 0x24 DUP3 ADD MSTORE PUSH32 0x7265706F72746572206E6F74206C6F636B656420666F72207769746864726177 PUSH1 0x44 DUP3 ADD MSTORE PUSH2 0x185B PUSH1 0xF2 SHL PUSH1 0x64 DUP3 ADD MSTORE PUSH1 0x84 ADD PUSH2 0x594 JUMP JUMPDEST PUSH1 0x0 SLOAD PUSH1 0x2 DUP3 ADD SLOAD PUSH1 0x40 MLOAD PUSH4 0xA9059CBB PUSH1 0xE0 SHL DUP2 MSTORE CALLER PUSH1 0x4 DUP3 ADD MSTORE PUSH1 0x24 DUP2 ADD SWAP2 SWAP1 SWAP2 MSTORE PUSH1 0x1 PUSH1 0x1 PUSH1 0xA0 SHL SUB SWAP1 SWAP2 AND SWAP1 PUSH4 0xA9059CBB SWAP1 PUSH1 0x44 ADD PUSH1 0x20 PUSH1 0x40 MLOAD DUP1 DUP4 SUB DUP2 PUSH1 0x0 DUP8 DUP1 EXTCODESIZE ISZERO DUP1 ISZERO PUSH2 0x1383 JUMPI PUSH1 0x0 DUP1 REVERT JUMPDEST POP GAS CALL ISZERO DUP1 ISZERO PUSH2 0x1397 JUMPI RETURNDATASIZE PUSH1 0x0 DUP1 RETURNDATACOPY RETURNDATASIZE PUSH1 0x0 REVERT JUMPDEST POP POP POP POP PUSH1 0x40 MLOAD RETURNDATASIZE PUSH1 0x1F NOT PUSH1 0x1F DUP3 ADD AND DUP3 ADD DUP1 PUSH1 0x40 MSTORE POP DUP2 ADD SWAP1 PUSH2 0x13BB SWAP2 SWAP1 PUSH2 0x19D3 JUMP JUMPDEST POP PUSH1 0x0 PUSH1 0x2 DUP3 ADD SSTORE PUSH1 0x40 MLOAD CALLER DUP2 MSTORE PUSH32 0x4A7934670BD8304E7DA22378BE1368F7C4FEF17C5AEE81804BEDA8638FE428EC SWAP1 PUSH1 0x20 ADD PUSH2 0x63D JUMP JUMPDEST PUSH1 0x0 DUP3 DUP2 MSTORE PUSH1 0x6 PUSH1 0x20 SWAP1 DUP2 MSTORE PUSH1 0x40 DUP1 DUP4 KECCAK256 DUP5 DUP5 MSTORE PUSH1 0x3 ADD SWAP1 SWAP2 MSTORE SWAP1 KECCAK256 DUP1 SLOAD PUSH1 0x60 SWAP2 SWAP1 PUSH2 0x141E SWAP1 PUSH2 0x1CE6 JUMP JUMPDEST DUP1 PUSH1 0x1F ADD PUSH1 0x20 DUP1 SWAP2 DIV MUL PUSH1 0x20 ADD PUSH1 0x40 MLOAD SWAP1 DUP2 ADD PUSH1 0x40 MSTORE DUP1 SWAP3 SWAP2 SWAP1 DUP2 DUP2 MSTORE PUSH1 0x20 ADD DUP3 DUP1 SLOAD PUSH2 0x144A SWAP1 PUSH2 0x1CE6 JUMP JUMPDEST DUP1 ISZERO PUSH2 0x1497 JUMPI DUP1 PUSH1 0x1F LT PUSH2 0x146C JUMPI PUSH2 0x100 DUP1 DUP4 SLOAD DIV MUL DUP4 MSTORE SWAP2 PUSH1 0x20 ADD SWAP2 PUSH2 0x1497 JUMP JUMPDEST DUP3 ADD SWAP2 SWAP1 PUSH1 0x0 MSTORE PUSH1 0x20 PUSH1 0x0 KECCAK256 SWAP1 JUMPDEST DUP2 SLOAD DUP2 MSTORE SWAP1 PUSH1 0x1 ADD SWAP1 PUSH1 0x20 ADD DUP1 DUP4 GT PUSH2 0x147A JUMPI DUP3 SWAP1 SUB PUSH1 0x1F AND DUP3 ADD SWAP2 JUMPDEST POP POP POP POP POP SWAP1 POP SWAP3 SWAP2 POP POP JUMP JUMPDEST PUSH1 0x1 SLOAD PUSH1 0x1 PUSH1 0x1 PUSH1 0xA0 SHL SUB AND CALLER EQ PUSH2 0x14CE JUMPI PUSH1 0x40 MLOAD PUSH3 0x461BCD PUSH1 0xE5 SHL DUP2 MSTORE PUSH1 0x4 ADD PUSH2 0x594 SWAP1 PUSH2 0x1C37 JUMP JUMPDEST PUSH1 0x0 DUP2 GT PUSH2 0x152D JUMPI PUSH1 0x40 MLOAD PUSH3 0x461BCD PUSH1 0xE5 SHL DUP2 MSTORE PUSH1 0x20 PUSH1 0x4 DUP3 ADD MSTORE PUSH1 0x26 PUSH1 0x24 DUP3 ADD MSTORE PUSH32 0x7374616B6520616D6F756E74206D757374206265206772656174657220746861 PUSH1 0x44 DUP3 ADD MSTORE PUSH6 0x6E207A65726F PUSH1 0xD0 SHL PUSH1 0x64 DUP3 ADD MSTORE PUSH1 0x84 ADD PUSH2 0x594 JUMP JUMPDEST PUSH1 0x2 DUP2 SWAP1 SSTORE PUSH1 0x40 MLOAD DUP2 DUP2 MSTORE PUSH32 0x1AF37D6AAEF3C5EF293C3C63D0AC302F60DB7FDE22EB9F5E96EBD56992832110 SWAP1 PUSH1 0x20 ADD PUSH2 0x63D JUMP JUMPDEST CALLER PUSH1 0x0 SWAP1 DUP2 MSTORE PUSH1 0x7 PUSH1 0x20 MSTORE PUSH1 0x40 SWAP1 KECCAK256 PUSH1 0x2 DUP2 ADD SLOAD ISZERO PUSH2 0x166A JUMPI DUP2 DUP2 PUSH1 0x2 ADD SLOAD LT PUSH2 0x15A5 JUMPI DUP2 DUP2 PUSH1 0x2 ADD PUSH1 0x0 DUP3 DUP3 SLOAD PUSH2 0x159A SWAP2 SWAP1 PUSH2 0x1CCF JUMP JUMPDEST SWAP1 SWAP2 SSTORE POP PUSH2 0x1665 SWAP1 POP JUMP JUMPDEST PUSH1 0x0 SLOAD PUSH1 0x2 DUP3 ADD SLOAD PUSH1 0x1 PUSH1 0x1 PUSH1 0xA0 SHL SUB SWAP1 SWAP2 AND SWAP1 PUSH4 0x23B872DD SWAP1 CALLER SWAP1 ADDRESS SWAP1 PUSH2 0x15CD SWAP1 DUP8 PUSH2 0x1CCF JUMP JUMPDEST PUSH1 0x40 MLOAD PUSH1 0x1 PUSH1 0x1 PUSH1 0xE0 SHL SUB NOT PUSH1 0xE0 DUP7 SWAP1 SHL AND DUP2 MSTORE PUSH1 0x1 PUSH1 0x1 PUSH1 0xA0 SHL SUB SWAP4 DUP5 AND PUSH1 0x4 DUP3 ADD MSTORE SWAP3 SWAP1 SWAP2 AND PUSH1 0x24 DUP4 ADD MSTORE PUSH1 0x44 DUP3 ADD MSTORE PUSH1 0x64 ADD PUSH1 0x20 PUSH1 0x40 MLOAD DUP1 DUP4 SUB DUP2 PUSH1 0x0 DUP8 DUP1 EXTCODESIZE ISZERO DUP1 ISZERO PUSH2 0x161C JUMPI PUSH1 0x0 DUP1 REVERT JUMPDEST POP GAS CALL ISZERO DUP1 ISZERO PUSH2 0x1630 JUMPI RETURNDATASIZE PUSH1 0x0 DUP1 RETURNDATACOPY RETURNDATASIZE PUSH1 0x0 REVERT JUMPDEST POP POP POP POP PUSH1 0x40 MLOAD RETURNDATASIZE PUSH1 0x1F NOT PUSH1 0x1F DUP3 ADD AND DUP3 ADD DUP1 PUSH1 0x40 MSTORE POP DUP2 ADD SWAP1 PUSH2 0x1654 SWAP2 SWAP1 PUSH2 0x19D3 JUMP JUMPDEST PUSH2 0x165D JUMPI PUSH1 0x0 DUP1 REVERT JUMPDEST PUSH1 0x0 PUSH1 0x2 DUP3 ADD SSTORE JUMPDEST PUSH2 0x16FD JUMP JUMPDEST PUSH1 0x0 SLOAD PUSH1 0x40 MLOAD PUSH4 0x23B872DD PUSH1 0xE0 SHL DUP2 MSTORE CALLER PUSH1 0x4 DUP3 ADD MSTORE ADDRESS PUSH1 0x24 DUP3 ADD MSTORE PUSH1 0x44 DUP2 ADD DUP5 SWAP1 MSTORE PUSH1 0x1 PUSH1 0x1 PUSH1 0xA0 SHL SUB SWAP1 SWAP2 AND SWAP1 PUSH4 0x23B872DD SWAP1 PUSH1 0x64 ADD PUSH1 0x20 PUSH1 0x40 MLOAD DUP1 DUP4 SUB DUP2 PUSH1 0x0 DUP8 DUP1 EXTCODESIZE ISZERO DUP1 ISZERO PUSH2 0x16BC JUMPI PUSH1 0x0 DUP1 REVERT JUMPDEST POP GAS CALL ISZERO DUP1 ISZERO PUSH2 0x16D0 JUMPI RETURNDATASIZE PUSH1 0x0 DUP1 RETURNDATACOPY RETURNDATASIZE PUSH1 0x0 REVERT JUMPDEST POP POP POP POP PUSH1 0x40 MLOAD RETURNDATASIZE PUSH1 0x1F NOT PUSH1 0x1F DUP3 ADD AND DUP3 ADD DUP1 PUSH1 0x40 MSTORE POP DUP2 ADD SWAP1 PUSH2 0x16F4 SWAP2 SWAP1 PUSH2 0x19D3 JUMP JUMPDEST PUSH2 0x16FD JUMPI PUSH1 0x0 DUP1 REVERT JUMPDEST TIMESTAMP DUP2 SSTORE PUSH1 0x1 DUP2 ADD DUP1 SLOAD DUP4 SWAP2 SWAP1 PUSH1 0x0 SWAP1 PUSH2 0x1717 SWAP1 DUP5 SWAP1 PUSH2 0x1C78 JUMP JUMPDEST SWAP3 POP POP DUP2 SWAP1 SSTORE POP DUP2 PUSH1 0x3 PUSH1 0x0 DUP3 DUP3 SLOAD PUSH2 0x1730 SWAP2 SWAP1 PUSH2 0x1C78 JUMP JUMPDEST SWAP1 SWAP2 SSTORE POP POP PUSH1 0x40 DUP1 MLOAD CALLER DUP2 MSTORE PUSH1 0x20 DUP2 ADD DUP5 SWAP1 MSTORE PUSH32 0xA96C2CCE65119A2170D1711A6E82F18F2006448828483BA7545E595476543647 SWAP2 ADD PUSH2 0x1176 JUMP JUMPDEST PUSH1 0x0 DUP3 DUP2 MSTORE PUSH1 0x6 PUSH1 0x20 MSTORE PUSH1 0x40 DUP2 KECCAK256 DUP1 SLOAD DUP4 SWAP1 DUP2 LT PUSH2 0x1799 JUMPI PUSH4 0x4E487B71 PUSH1 0xE0 SHL PUSH1 0x0 MSTORE PUSH1 0x32 PUSH1 0x4 MSTORE PUSH1 0x24 PUSH1 0x0 REVERT JUMPDEST SWAP1 PUSH1 0x0 MSTORE PUSH1 0x20 PUSH1 0x0 KECCAK256 ADD SLOAD SWAP1 POP SWAP3 SWAP2 POP POP JUMP JUMPDEST DUP3 DUP1 SLOAD PUSH2 0x17B8 SWAP1 PUSH2 0x1CE6 JUMP JUMPDEST SWAP1 PUSH1 0x0 MSTORE PUSH1 0x20 PUSH1 0x0 KECCAK256 SWAP1 PUSH1 0x1F ADD PUSH1 0x20 SWAP1 DIV DUP2 ADD SWAP3 DUP3 PUSH2 0x17DA JUMPI PUSH1 0x0 DUP6 SSTORE PUSH2 0x1820 JUMP JUMPDEST DUP3 PUSH1 0x1F LT PUSH2 0x17F3 JUMPI DUP1 MLOAD PUSH1 0xFF NOT AND DUP4 DUP1 ADD OR DUP6 SSTORE PUSH2 0x1820 JUMP JUMPDEST DUP3 DUP1 ADD PUSH1 0x1 ADD DUP6 SSTORE DUP3 ISZERO PUSH2 0x1820 JUMPI SWAP2 DUP3 ADD JUMPDEST DUP3 DUP2 GT ISZERO PUSH2 0x1820 JUMPI DUP3 MLOAD DUP3 SSTORE SWAP2 PUSH1 0x20 ADD SWAP2 SWAP1 PUSH1 0x1 ADD SWAP1 PUSH2 0x1805 JUMP JUMPDEST POP PUSH2 0x182C SWAP3 SWAP2 POP PUSH2 0x18A4 JUMP JUMPDEST POP SWAP1 JUMP JUMPDEST DUP3 DUP1 SLOAD PUSH2 0x183C SWAP1 PUSH2 0x1CE6 JUMP JUMPDEST SWAP1 PUSH1 0x0 MSTORE PUSH1 0x20 PUSH1 0x0 KECCAK256 SWAP1 PUSH1 0x1F ADD PUSH1 0x20 SWAP1 DIV DUP2 ADD SWAP3 DUP3 PUSH2 0x185E JUMPI PUSH1 0x0 DUP6 SSTORE PUSH2 0x1820 JUMP JUMPDEST DUP3 PUSH1 0x1F LT PUSH2 0x1877 JUMPI DUP3 DUP1 ADD PUSH1 0xFF NOT DUP3 CALLDATALOAD AND OR DUP6 SSTORE PUSH2 0x1820 JUMP JUMPDEST DUP3 DUP1 ADD PUSH1 0x1 ADD DUP6 SSTORE DUP3 ISZERO PUSH2 0x1820 JUMPI SWAP2 DUP3 ADD JUMPDEST DUP3 DUP2 GT ISZERO PUSH2 0x1820 JUMPI DUP3 CALLDATALOAD DUP3 SSTORE SWAP2 PUSH1 0x20 ADD SWAP2 SWAP1 PUSH1 0x1 ADD SWAP1 PUSH2 0x1889 JUMP JUMPDEST JUMPDEST DUP1 DUP3 GT ISZERO PUSH2 0x182C JUMPI PUSH1 0x0 DUP2 SSTORE PUSH1 0x1 ADD PUSH2 0x18A5 JUMP JUMPDEST DUP1 CALLDATALOAD PUSH1 0x1 PUSH1 0x1 PUSH1 0xA0 SHL SUB DUP2 AND DUP2 EQ PUSH2 0x74C JUMPI PUSH1 0x0 DUP1 REVERT JUMPDEST PUSH1 0x0 DUP3 PUSH1 0x1F DUP4 ADD SLT PUSH2 0x18E0 JUMPI DUP1 DUP2 REVERT JUMPDEST DUP2 CALLDATALOAD PUSH8 0xFFFFFFFFFFFFFFFF DUP1 DUP3 GT ISZERO PUSH2 0x18FB JUMPI PUSH2 0x18FB PUSH2 0x1D52 JUMP JUMPDEST PUSH1 0x40 MLOAD PUSH1 0x1F DUP4 ADD PUSH1 0x1F NOT SWAP1 DUP2 AND PUSH1 0x3F ADD AND DUP2 ADD SWAP1 DUP3 DUP3 GT DUP2 DUP4 LT OR ISZERO PUSH2 0x1923 JUMPI PUSH2 0x1923 PUSH2 0x1D52 JUMP JUMPDEST DUP2 PUSH1 0x40 MSTORE DUP4 DUP2 MSTORE DUP7 PUSH1 0x20 DUP6 DUP9 ADD ADD GT ISZERO PUSH2 0x193B JUMPI DUP5 DUP6 REVERT JUMPDEST DUP4 PUSH1 0x20 DUP8 ADD PUSH1 0x20 DUP4 ADD CALLDATACOPY SWAP3 DUP4 ADD PUSH1 0x20 ADD SWAP4 SWAP1 SWAP4 MSTORE POP SWAP4 SWAP3 POP POP POP JUMP JUMPDEST PUSH1 0x0 PUSH1 0x20 DUP3 DUP5 SUB SLT ISZERO PUSH2 0x1968 JUMPI DUP1 DUP2 REVERT JUMPDEST PUSH2 0x1971 DUP3 PUSH2 0x18B9 JUMP JUMPDEST SWAP4 SWAP3 POP POP POP JUMP JUMPDEST PUSH1 0x0 DUP1 PUSH1 0x40 DUP4 DUP6 SUB SLT ISZERO PUSH2 0x198A JUMPI DUP1 DUP2 REVERT JUMPDEST PUSH2 0x1993 DUP4 PUSH2 0x18B9 JUMP JUMPDEST SWAP2 POP PUSH2 0x19A1 PUSH1 0x20 DUP5 ADD PUSH2 0x18B9 JUMP JUMPDEST SWAP1 POP SWAP3 POP SWAP3 SWAP1 POP JUMP JUMPDEST PUSH1 0x0 DUP1 PUSH1 0x40 DUP4 DUP6 SUB SLT ISZERO PUSH2 0x19BC JUMPI DUP2 DUP3 REVERT JUMPDEST PUSH2 0x19C5 DUP4 PUSH2 0x18B9 JUMP JUMPDEST SWAP5 PUSH1 0x20 SWAP4 SWAP1 SWAP4 ADD CALLDATALOAD SWAP4 POP POP POP JUMP JUMPDEST PUSH1 0x0 PUSH1 0x20 DUP3 DUP5 SUB SLT ISZERO PUSH2 0x19E4 JUMPI DUP1 DUP2 REVERT JUMPDEST DUP2 MLOAD DUP1 ISZERO ISZERO DUP2 EQ PUSH2 0x1971 JUMPI DUP2 DUP3 REVERT JUMPDEST PUSH1 0x0 PUSH1 0x20 DUP3 DUP5 SUB SLT ISZERO PUSH2 0x1A04 JUMPI DUP1 DUP2 REVERT JUMPDEST POP CALLDATALOAD SWAP2 SWAP1 POP JUMP JUMPDEST PUSH1 0x0 DUP1 PUSH1 0x0 DUP1 PUSH1 0x0 PUSH1 0x80 DUP7 DUP9 SUB SLT ISZERO PUSH2 0x1A22 JUMPI DUP1 DUP2 REVERT JUMPDEST DUP6 CALLDATALOAD SWAP5 POP PUSH1 0x20 DUP7 ADD CALLDATALOAD PUSH8 0xFFFFFFFFFFFFFFFF DUP1 DUP3 GT ISZERO PUSH2 0x1A40 JUMPI DUP3 DUP4 REVERT JUMPDEST DUP2 DUP9 ADD SWAP2 POP DUP9 PUSH1 0x1F DUP4 ADD SLT PUSH2 0x1A53 JUMPI DUP3 DUP4 REVERT JUMPDEST DUP2 CALLDATALOAD DUP2 DUP2 GT ISZERO PUSH2 0x1A61 JUMPI DUP4 DUP5 REVERT JUMPDEST DUP10 PUSH1 0x20 DUP3 DUP6 ADD ADD GT ISZERO PUSH2 0x1A72 JUMPI DUP4 DUP5 REVERT JUMPDEST PUSH1 0x20 DUP4 ADD SWAP7 POP DUP1 SWAP6 POP POP PUSH1 0x40 DUP9 ADD CALLDATALOAD SWAP4 POP PUSH1 0x60 DUP9 ADD CALLDATALOAD SWAP2 POP DUP1 DUP3 GT ISZERO PUSH2 0x1A96 JUMPI DUP3 DUP4 REVERT JUMPDEST POP PUSH2 0x1AA3 DUP9 DUP3 DUP10 ADD PUSH2 0x18D0 JUMP JUMPDEST SWAP2 POP POP SWAP3 SWAP6 POP SWAP3 SWAP6 SWAP1 SWAP4 POP JUMP JUMPDEST PUSH1 0x0 DUP1 PUSH1 0x40 DUP4 DUP6 SUB SLT ISZERO PUSH2 0x1AC2 JUMPI DUP2 DUP3 REVERT JUMPDEST POP POP DUP1 CALLDATALOAD SWAP3 PUSH1 0x20 SWAP1 SWAP2 ADD CALLDATALOAD SWAP2 POP JUMP JUMPDEST PUSH1 0x0 DUP2 MLOAD DUP1 DUP5 MSTORE DUP2 JUMPDEST DUP2 DUP2 LT ISZERO PUSH2 0x1AF6 JUMPI PUSH1 0x20 DUP2 DUP6 ADD DUP2 ADD MLOAD DUP7 DUP4 ADD DUP3 ADD MSTORE ADD PUSH2 0x1ADA JUMP JUMPDEST DUP2 DUP2 GT ISZERO PUSH2 0x1B07 JUMPI DUP3 PUSH1 0x20 DUP4 DUP8 ADD ADD MSTORE JUMPDEST POP PUSH1 0x1F ADD PUSH1 0x1F NOT AND SWAP3 SWAP1 SWAP3 ADD PUSH1 0x20 ADD SWAP3 SWAP2 POP POP JUMP JUMPDEST PUSH1 0x0 DUP1 DUP4 SLOAD DUP3 PUSH1 0x1 DUP3 DUP2 SHR SWAP2 POP DUP1 DUP4 AND DUP1 PUSH2 0x1B38 JUMPI PUSH1 0x7F DUP4 AND SWAP3 POP JUMPDEST PUSH1 0x20 DUP1 DUP5 LT DUP3 EQ ISZERO PUSH2 0x1B58 JUMPI PUSH4 0x4E487B71 PUSH1 0xE0 SHL DUP8 MSTORE PUSH1 0x22 PUSH1 0x4 MSTORE PUSH1 0x24 DUP8 REVERT JUMPDEST DUP2 DUP1 ISZERO PUSH2 0x1B6C JUMPI PUSH1 0x1 DUP2 EQ PUSH2 0x1B7D JUMPI PUSH2 0x1BA9 JUMP JUMPDEST PUSH1 0xFF NOT DUP7 AND DUP10 MSTORE DUP5 DUP10 ADD SWAP7 POP PUSH2 0x1BA9 JUMP JUMPDEST PUSH1 0x0 DUP11 DUP2 MSTORE PUSH1 0x20 SWAP1 KECCAK256 DUP9 JUMPDEST DUP7 DUP2 LT ISZERO PUSH2 0x1BA1 JUMPI DUP2 SLOAD DUP12 DUP3 ADD MSTORE SWAP1 DUP6 ADD SWAP1 DUP4 ADD PUSH2 0x1B88 JUMP JUMPDEST POP POP DUP5 DUP10 ADD SWAP7 POP JUMPDEST POP SWAP5 SWAP9 SWAP8 POP POP POP POP POP POP POP POP JUMP JUMPDEST PUSH1 0x0 DUP9 DUP3 MSTORE DUP8 PUSH1 0x20 DUP4 ADD MSTORE PUSH1 0xC0 PUSH1 0x40 DUP4 ADD MSTORE DUP6 PUSH1 0xC0 DUP4 ADD MSTORE DUP6 DUP8 PUSH1 0xE0 DUP5 ADD CALLDATACOPY DUP1 PUSH1 0xE0 DUP8 DUP5 ADD ADD MSTORE PUSH1 0x1F NOT PUSH1 0x1F DUP8 ADD AND DUP3 ADD DUP6 PUSH1 0x60 DUP5 ADD MSTORE PUSH1 0xE0 DUP4 DUP3 SUB ADD PUSH1 0x80 DUP5 ADD MSTORE PUSH2 0x1C06 PUSH1 0xE0 DUP3 ADD DUP7 PUSH2 0x1AD1 JUMP JUMPDEST SWAP2 POP POP PUSH1 0x1 PUSH1 0x1 PUSH1 0xA0 SHL SUB DUP4 AND PUSH1 0xA0 DUP4 ADD MSTORE SWAP9 SWAP8 POP POP POP POP POP POP POP POP JUMP JUMPDEST PUSH1 0x0 PUSH1 0x20 DUP3 MSTORE PUSH2 0x1971 PUSH1 0x20 DUP4 ADD DUP5 PUSH2 0x1AD1 JUMP JUMPDEST PUSH1 0x20 DUP1 DUP3 MSTORE PUSH1 0x21 SWAP1 DUP3 ADD MSTORE PUSH32 0x63616C6C6572206D75737420626520676F7665726E616E636520616464726573 PUSH1 0x40 DUP3 ADD MSTORE PUSH1 0x73 PUSH1 0xF8 SHL PUSH1 0x60 DUP3 ADD MSTORE PUSH1 0x80 ADD SWAP1 JUMP JUMPDEST PUSH1 0x0 DUP3 NOT DUP3 GT ISZERO PUSH2 0x1C8B JUMPI PUSH2 0x1C8B PUSH2 0x1D3C JUMP JUMPDEST POP ADD SWAP1 JUMP JUMPDEST PUSH1 0x0 DUP3 PUSH2 0x1CAB JUMPI PUSH4 0x4E487B71 PUSH1 0xE0 SHL DUP2 MSTORE PUSH1 0x12 PUSH1 0x4 MSTORE PUSH1 0x24 DUP2 REVERT JUMPDEST POP DIV SWAP1 JUMP JUMPDEST PUSH1 0x0 DUP2 PUSH1 0x0 NOT DIV DUP4 GT DUP3 ISZERO ISZERO AND ISZERO PUSH2 0x1CCA JUMPI PUSH2 0x1CCA PUSH2 0x1D3C JUMP JUMPDEST POP MUL SWAP1 JUMP JUMPDEST PUSH1 0x0 DUP3 DUP3 LT ISZERO PUSH2 0x1CE1 JUMPI PUSH2 0x1CE1 PUSH2 0x1D3C JUMP JUMPDEST POP SUB SWAP1 JUMP JUMPDEST PUSH1 0x1 DUP2 DUP2 SHR SWAP1 DUP3 AND DUP1 PUSH2 0x1CFA JUMPI PUSH1 0x7F DUP3 AND SWAP2 POP JUMPDEST PUSH1 0x20 DUP3 LT DUP2 EQ ISZERO PUSH2 0x1D1B JUMPI PUSH4 0x4E487B71 PUSH1 0xE0 SHL PUSH1 0x0 MSTORE PUSH1 0x22 PUSH1 0x4 MSTORE PUSH1 0x24 PUSH1 0x0 REVERT JUMPDEST POP SWAP2 SWAP1 POP JUMP JUMPDEST PUSH1 0x0 PUSH1 0x0 NOT DUP3 EQ ISZERO PUSH2 0x1D35 JUMPI PUSH2 0x1D35 PUSH2 0x1D3C JUMP JUMPDEST POP PUSH1 0x1 ADD SWAP1 JUMP JUMPDEST PUSH4 0x4E487B71 PUSH1 0xE0 SHL PUSH1 0x0 MSTORE PUSH1 0x11 PUSH1 0x4 MSTORE PUSH1 0x24 PUSH1 0x0 REVERT JUMPDEST PUSH4 0x4E487B71 PUSH1 0xE0 SHL PUSH1 0x0 MSTORE PUSH1 0x41 PUSH1 0x4 MSTORE PUSH1 0x24 PUSH1 0x0 REVERT INVALID LOG2 PUSH5 0x6970667358 0x22 SLT KECCAK256 DUP7 SWAP5 0x49 SUB 0xAD DIV JUMPDEST GT SWAP11 0xB3 INVALID GT 0xE3 DUP4 0x4D LOG1 ADDRESS SWAP1 SWAP7 0xFB 0x21 NOT SWAP8 SSTORE PUSH10 0x503BE54FF38C3564736F PUSH13 0x63430008030033000000000000 "
        },
        "methodIdentifiers": {
          "changeGovernanceAddress(address)": "0636769e",
          "changeReportingLock(uint256)": "5d183cfa",
          "changeStakeAmount(uint256)": "ca79b5a9",
          "depositStake(uint256)": "cb82cc8f",
          "getBlockNumberByTimestamp(bytes32,uint256)": "935408d0",
          "getCurrentValue(bytes32)": "adf1639d",
          "getGovernanceAddress()": "73252494",
          "getNewValueCountbyQueryId(bytes32)": "77b03e0d",
          "getReportDetails(bytes32,uint256)": "2b6696a7",
          "getReporterByTimestamp(bytes32,uint256)": "e07c5486",
          "getReporterLastTimestamp(address)": "50005b83",
          "getReportingLock()": "460c33a2",
          "getReportsSubmittedByAddress(address)": "3878293e",
          "getReportsSubmittedByAddressAndQueryId(address,bytes32)": "11938e08",
          "getStakeAmount()": "722580b6",
          "getStakerInfo(address)": "733bdef0",
          "getTimeOfLastNewValue()": "c0f95d52",
          "getTimestampIndexByTimestamp(bytes32,uint256)": "9d9b16ed",
          "getTimestampbyQueryIdandIndex(bytes32,uint256)": "ce5e11bf",
          "getTokenAddress()": "10fe9ae8",
          "getTotalStakeAmount()": "14c2a1bc",
          "governance()": "5aa6e675",
          "removeValue(bytes32,uint256)": "5b5edcfc",
          "reportingLock()": "3321fc41",
          "requestStakingWithdraw(uint256)": "8929f4c6",
          "retrieveData(bytes32,uint256)": "c5958af9",
          "slashReporter(address,address)": "4dfc2a34",
          "stakeAmount()": "60c7dc47",
          "submitValue(bytes32,bytes,uint256,bytes)": "5eaa9ced",
          "timeOfLastNewValue()": "6fd4f229",
          "token()": "fc0c546a",
          "totalStakeAmount()": "94409a56",
          "withdrawStake()": "bed9d861"
        }
      }
    }
  }
}