{
  "contracts/oldContracts/contracts/testing/TellorProvider.sol": {
    "TellorProvider": {
      "abi": [
        {
          "inputs": [
            {
              "internalType": "address",
              "name": "_tellor",
              "type": "address"
            },
            {
              "internalType": "address",
              "name": "_medianOracle",
              "type": "address"
            }
          ],
          "stateMutability": "nonpayable",
          "type": "constructor"
        },
        {
          "inputs": [],
          "name": "medianOracle",
          "outputs": [
            {
              "internalType": "contract IMedianOracle",
              "name": "",
              "type": "address"
            }
          ],
          "stateMutability": "view",
          "type": "function"
        },
        {
          "inputs": [],
          "name": "pushTellor",
          "outputs": [],
          "stateMutability": "nonpayable",
          "type": "function"
        },
        {
          "inputs": [],
          "name": "tellor",
          "outputs": [
            {
              "internalType": "contract ITellorGetters",
              "name": "",
              "type": "address"
            }
          ],
          "stateMutability": "view",
          "type": "function"
        },
        {
          "inputs": [],
          "name": "tellorReport",
          "outputs": [
            {
              "internalType": "uint128",
              "name": "time0",
              "type": "uint128"
            },
            {
              "internalType": "uint128",
              "name": "time1",
              "type": "uint128"
            }
          ],
          "stateMutability": "view",
          "type": "function"
        },
        {
          "inputs": [],
          "name": "verifyTellorReports",
          "outputs": [],
          "stateMutability": "nonpayable",
          "type": "function"
        }
      ],
      "evm": {
        "bytecode": {
          "linkReferences": {},
          "object": "608060405234801561001057600080fd5b5060405161065538038061065583398101604081905261002f9161007c565b600080546001600160a01b039384166001600160a01b031991821617909155600180549290931691161790556100ae565b80516001600160a01b038116811461007757600080fd5b919050565b6000806040838503121561008e578182fd5b61009783610060565b91506100a560208401610060565b90509250929050565b610598806100bd6000396000f3fe608060405234801561001057600080fd5b50600436106100575760003560e01c806306fc543d1461005c5780631959ad5b1461009f57806363a60236146100ca578063bd5a8f5f146100d4578063e0eced99146100e7575b600080fd5b60025461007a906001600160801b0380821691600160801b90041682565b604080516001600160801b039384168152929091166020830152015b60405180910390f35b6000546100b2906001600160a01b031681565b6040516001600160a01b039091168152602001610096565b6100d26100ef565b005b6001546100b2906001600160a01b031681565b6100d26101c2565b6000806100fa61035f565b60025491945092506001600160801b03600160801b82048116911610905061013b57600280546001600160801b03808416600160801b029116179055610160565b600280546fffffffffffffffffffffffffffffffff19166001600160801b0383161790555b600154604051631e20d14b60e01b8152600481018490526001600160a01b0390911690631e20d14b90602401600060405180830381600087803b1580156101a657600080fd5b505af11580156101ba573d6000803e3d6000fd5b505050505050565b6000546002546040516393fa491560e01b8152600a60048201526001600160801b0390911660248201526001600160a01b03909116906393fa49159060440160206040518083038186803b15801561021957600080fd5b505afa15801561022d573d6000803e3d6000fd5b505050506040513d601f19601f820116820180604052508101906102519190610527565b15806102ef57506000546002546040516393fa491560e01b8152600a6004820152600160801b9091046001600160801b031660248201526001600160a01b03909116906393fa49159060440160206040518083038186803b1580156102b557600080fd5b505afa1580156102c9573d6000803e3d6000fd5b505050506040513d601f19601f820116820180604052508101906102ed9190610527565b155b1561035d57600160009054906101000a90046001600160a01b03166001600160a01b031663d13d59716040518163ffffffff1660e01b8152600401600060405180830381600087803b15801561034457600080fd5b505af1158015610358573d6000803e3d6000fd5b505050505b565b600080546040516311bbb87160e21b8152600a60048201528291829182916001600160a01b0316906346eee1c49060240160206040518083038186803b1580156103a857600080fd5b505afa1580156103bc573d6000803e3d6000fd5b505050506040513d601f19601f820116820180604052508101906103e09190610527565b9050801561051557600080546001600160a01b03166377fbb663600a61040760018661053f565b6040516001600160e01b031960e085901b1681526004810192909252602482015260440160206040518083038186803b15801561044357600080fd5b505afa158015610457573d6000803e3d6000fd5b505050506040513d601f19601f8201168201806040525081019061047b9190610527565b600080546040516393fa491560e01b8152600a60048201526024810184905292935090916001600160a01b03909116906393fa49159060440160206040518083038186803b1580156104cc57600080fd5b505afa1580156104e0573d6000803e3d6000fd5b505050506040513d601f19601f820116820180604052508101906105049190610527565b600196509450909250610522915050565b6000806000935093509350505b909192565b600060208284031215610538578081fd5b5051919050565b60008282101561055d57634e487b7160e01b81526011600452602481fd5b50039056fea26469706673582212206b16d4348e9196358396e8ee1885f4f4a4534fb36b8101a13300b0219e96615c64736f6c63430008030033",
          "opcodes": "PUSH1 0x80 PUSH1 0x40 MSTORE CALLVALUE DUP1 ISZERO PUSH2 0x10 JUMPI PUSH1 0x0 DUP1 REVERT JUMPDEST POP PUSH1 0x40 MLOAD PUSH2 0x655 CODESIZE SUB DUP1 PUSH2 0x655 DUP4 CODECOPY DUP2 ADD PUSH1 0x40 DUP2 SWAP1 MSTORE PUSH2 0x2F SWAP2 PUSH2 0x7C JUMP JUMPDEST PUSH1 0x0 DUP1 SLOAD PUSH1 0x1 PUSH1 0x1 PUSH1 0xA0 SHL SUB SWAP4 DUP5 AND PUSH1 0x1 PUSH1 0x1 PUSH1 0xA0 SHL SUB NOT SWAP2 DUP3 AND OR SWAP1 SWAP2 SSTORE PUSH1 0x1 DUP1 SLOAD SWAP3 SWAP1 SWAP4 AND SWAP2 AND OR SWAP1 SSTORE PUSH2 0xAE JUMP JUMPDEST DUP1 MLOAD PUSH1 0x1 PUSH1 0x1 PUSH1 0xA0 SHL SUB DUP2 AND DUP2 EQ PUSH2 0x77 JUMPI PUSH1 0x0 DUP1 REVERT JUMPDEST SWAP2 SWAP1 POP JUMP JUMPDEST PUSH1 0x0 DUP1 PUSH1 0x40 DUP4 DUP6 SUB SLT ISZERO PUSH2 0x8E JUMPI DUP2 DUP3 REVERT JUMPDEST PUSH2 0x97 DUP4 PUSH2 0x60 JUMP JUMPDEST SWAP2 POP PUSH2 0xA5 PUSH1 0x20 DUP5 ADD PUSH2 0x60 JUMP JUMPDEST SWAP1 POP SWAP3 POP SWAP3 SWAP1 POP JUMP JUMPDEST PUSH2 0x598 DUP1 PUSH2 0xBD PUSH1 0x0 CODECOPY PUSH1 0x0 RETURN INVALID PUSH1 0x80 PUSH1 0x40 MSTORE CALLVALUE DUP1 ISZERO PUSH2 0x10 JUMPI PUSH1 0x0 DUP1 REVERT JUMPDEST POP PUSH1 0x4 CALLDATASIZE LT PUSH2 0x57 JUMPI PUSH1 0x0 CALLDATALOAD PUSH1 0xE0 SHR DUP1 PUSH4 0x6FC543D EQ PUSH2 0x5C JUMPI DUP1 PUSH4 0x1959AD5B EQ PUSH2 0x9F JUMPI DUP1 PUSH4 0x63A60236 EQ PUSH2 0xCA JUMPI DUP1 PUSH4 0xBD5A8F5F EQ PUSH2 0xD4 JUMPI DUP1 PUSH4 0xE0ECED99 EQ PUSH2 0xE7 JUMPI JUMPDEST PUSH1 0x0 DUP1 REVERT JUMPDEST PUSH1 0x2 SLOAD PUSH2 0x7A SWAP1 PUSH1 0x1 PUSH1 0x1 PUSH1 0x80 SHL SUB DUP1 DUP3 AND SWAP2 PUSH1 0x1 PUSH1 0x80 SHL SWAP1 DIV AND DUP3 JUMP JUMPDEST PUSH1 0x40 DUP1 MLOAD PUSH1 0x1 PUSH1 0x1 PUSH1 0x80 SHL SUB SWAP4 DUP5 AND DUP2 MSTORE SWAP3 SWAP1 SWAP2 AND PUSH1 0x20 DUP4 ADD MSTORE ADD JUMPDEST PUSH1 0x40 MLOAD DUP1 SWAP2 SUB SWAP1 RETURN JUMPDEST PUSH1 0x0 SLOAD PUSH2 0xB2 SWAP1 PUSH1 0x1 PUSH1 0x1 PUSH1 0xA0 SHL SUB AND DUP2 JUMP JUMPDEST PUSH1 0x40 MLOAD PUSH1 0x1 PUSH1 0x1 PUSH1 0xA0 SHL SUB SWAP1 SWAP2 AND DUP2 MSTORE PUSH1 0x20 ADD PUSH2 0x96 JUMP JUMPDEST PUSH2 0xD2 PUSH2 0xEF JUMP JUMPDEST STOP JUMPDEST PUSH1 0x1 SLOAD PUSH2 0xB2 SWAP1 PUSH1 0x1 PUSH1 0x1 PUSH1 0xA0 SHL SUB AND DUP2 JUMP JUMPDEST PUSH2 0xD2 PUSH2 0x1C2 JUMP JUMPDEST PUSH1 0x0 DUP1 PUSH2 0xFA PUSH2 0x35F JUMP JUMPDEST PUSH1 0x2 SLOAD SWAP2 SWAP5 POP SWAP3 POP PUSH1 0x1 PUSH1 0x1 PUSH1 0x80 SHL SUB PUSH1 0x1 PUSH1 0x80 SHL DUP3 DIV DUP2 AND SWAP2 AND LT SWAP1 POP PUSH2 0x13B JUMPI PUSH1 0x2 DUP1 SLOAD PUSH1 0x1 PUSH1 0x1 PUSH1 0x80 SHL SUB DUP1 DUP5 AND PUSH1 0x1 PUSH1 0x80 SHL MUL SWAP2 AND OR SWAP1 SSTORE PUSH2 0x160 JUMP JUMPDEST PUSH1 0x2 DUP1 SLOAD PUSH16 0xFFFFFFFFFFFFFFFFFFFFFFFFFFFFFFFF NOT AND PUSH1 0x1 PUSH1 0x1 PUSH1 0x80 SHL SUB DUP4 AND OR SWAP1 SSTORE JUMPDEST PUSH1 0x1 SLOAD PUSH1 0x40 MLOAD PUSH4 0x1E20D14B PUSH1 0xE0 SHL DUP2 MSTORE PUSH1 0x4 DUP2 ADD DUP5 SWAP1 MSTORE PUSH1 0x1 PUSH1 0x1 PUSH1 0xA0 SHL SUB SWAP1 SWAP2 AND SWAP1 PUSH4 0x1E20D14B SWAP1 PUSH1 0x24 ADD PUSH1 0x0 PUSH1 0x40 MLOAD DUP1 DUP4 SUB DUP2 PUSH1 0x0 DUP8 DUP1 EXTCODESIZE ISZERO DUP1 ISZERO PUSH2 0x1A6 JUMPI PUSH1 0x0 DUP1 REVERT JUMPDEST POP GAS CALL ISZERO DUP1 ISZERO PUSH2 0x1BA JUMPI RETURNDATASIZE PUSH1 0x0 DUP1 RETURNDATACOPY RETURNDATASIZE PUSH1 0x0 REVERT JUMPDEST POP POP POP POP POP POP JUMP JUMPDEST PUSH1 0x0 SLOAD PUSH1 0x2 SLOAD PUSH1 0x40 MLOAD PUSH4 0x93FA4915 PUSH1 0xE0 SHL DUP2 MSTORE PUSH1 0xA PUSH1 0x4 DUP3 ADD MSTORE PUSH1 0x1 PUSH1 0x1 PUSH1 0x80 SHL SUB SWAP1 SWAP2 AND PUSH1 0x24 DUP3 ADD MSTORE PUSH1 0x1 PUSH1 0x1 PUSH1 0xA0 SHL SUB SWAP1 SWAP2 AND SWAP1 PUSH4 0x93FA4915 SWAP1 PUSH1 0x44 ADD PUSH1 0x20 PUSH1 0x40 MLOAD DUP1 DUP4 SUB DUP2 DUP7 DUP1 EXTCODESIZE ISZERO DUP1 ISZERO PUSH2 0x219 JUMPI PUSH1 0x0 DUP1 REVERT JUMPDEST POP GAS STATICCALL ISZERO DUP1 ISZERO PUSH2 0x22D JUMPI RETURNDATASIZE PUSH1 0x0 DUP1 RETURNDATACOPY RETURNDATASIZE PUSH1 0x0 REVERT JUMPDEST POP POP POP POP PUSH1 0x40 MLOAD RETURNDATASIZE PUSH1 0x1F NOT PUSH1 0x1F DUP3 ADD AND DUP3 ADD DUP1 PUSH1 0x40 MSTORE POP DUP2 ADD SWAP1 PUSH2 0x251 SWAP2 SWAP1 PUSH2 0x527 JUMP JUMPDEST ISZERO DUP1 PUSH2 0x2EF JUMPI POP PUSH1 0x0 SLOAD PUSH1 0x2 SLOAD PUSH1 0x40 MLOAD PUSH4 0x93FA4915 PUSH1 0xE0 SHL DUP2 MSTORE PUSH1 0xA PUSH1 0x4 DUP3 ADD MSTORE PUSH1 0x1 PUSH1 0x80 SHL SWAP1 SWAP2 DIV PUSH1 0x1 PUSH1 0x1 PUSH1 0x80 SHL SUB AND PUSH1 0x24 DUP3 ADD MSTORE PUSH1 0x1 PUSH1 0x1 PUSH1 0xA0 SHL SUB SWAP1 SWAP2 AND SWAP1 PUSH4 0x93FA4915 SWAP1 PUSH1 0x44 ADD PUSH1 0x20 PUSH1 0x40 MLOAD DUP1 DUP4 SUB DUP2 DUP7 DUP1 EXTCODESIZE ISZERO DUP1 ISZERO PUSH2 0x2B5 JUMPI PUSH1 0x0 DUP1 REVERT JUMPDEST POP GAS STATICCALL ISZERO DUP1 ISZERO PUSH2 0x2C9 JUMPI RETURNDATASIZE PUSH1 0x0 DUP1 RETURNDATACOPY RETURNDATASIZE PUSH1 0x0 REVERT JUMPDEST POP POP POP POP PUSH1 0x40 MLOAD RETURNDATASIZE PUSH1 0x1F NOT PUSH1 0x1F DUP3 ADD AND DUP3 ADD DUP1 PUSH1 0x40 MSTORE POP DUP2 ADD SWAP1 PUSH2 0x2ED SWAP2 SWAP1 PUSH2 0x527 JUMP JUMPDEST ISZERO JUMPDEST ISZERO PUSH2 0x35D JUMPI PUSH1 0x1 PUSH1 0x0 SWAP1 SLOAD SWAP1 PUSH2 0x100 EXP SWAP1 DIV PUSH1 0x1 PUSH1 0x1 PUSH1 0xA0 SHL SUB AND PUSH1 0x1 PUSH1 0x1 PUSH1 0xA0 SHL SUB AND PUSH4 0xD13D5971 PUSH1 0x40 MLOAD DUP2 PUSH4 0xFFFFFFFF AND PUSH1 0xE0 SHL DUP2 MSTORE PUSH1 0x4 ADD PUSH1 0x0 PUSH1 0x40 MLOAD DUP1 DUP4 SUB DUP2 PUSH1 0x0 DUP8 DUP1 EXTCODESIZE ISZERO DUP1 ISZERO PUSH2 0x344 JUMPI PUSH1 0x0 DUP1 REVERT JUMPDEST POP GAS CALL ISZERO DUP1 ISZERO PUSH2 0x358 JUMPI RETURNDATASIZE PUSH1 0x0 DUP1 RETURNDATACOPY RETURNDATASIZE PUSH1 0x0 REVERT JUMPDEST POP POP POP POP JUMPDEST JUMP JUMPDEST PUSH1 0x0 DUP1 SLOAD PUSH1 0x40 MLOAD PUSH4 0x11BBB871 PUSH1 0xE2 SHL DUP2 MSTORE PUSH1 0xA PUSH1 0x4 DUP3 ADD MSTORE DUP3 SWAP2 DUP3 SWAP2 DUP3 SWAP2 PUSH1 0x1 PUSH1 0x1 PUSH1 0xA0 SHL SUB AND SWAP1 PUSH4 0x46EEE1C4 SWAP1 PUSH1 0x24 ADD PUSH1 0x20 PUSH1 0x40 MLOAD DUP1 DUP4 SUB DUP2 DUP7 DUP1 EXTCODESIZE ISZERO DUP1 ISZERO PUSH2 0x3A8 JUMPI PUSH1 0x0 DUP1 REVERT JUMPDEST POP GAS STATICCALL ISZERO DUP1 ISZERO PUSH2 0x3BC JUMPI RETURNDATASIZE PUSH1 0x0 DUP1 RETURNDATACOPY RETURNDATASIZE PUSH1 0x0 REVERT JUMPDEST POP POP POP POP PUSH1 0x40 MLOAD RETURNDATASIZE PUSH1 0x1F NOT PUSH1 0x1F DUP3 ADD AND DUP3 ADD DUP1 PUSH1 0x40 MSTORE POP DUP2 ADD SWAP1 PUSH2 0x3E0 SWAP2 SWAP1 PUSH2 0x527 JUMP JUMPDEST SWAP1 POP DUP1 ISZERO PUSH2 0x515 JUMPI PUSH1 0x0 DUP1 SLOAD PUSH1 0x1 PUSH1 0x1 PUSH1 0xA0 SHL SUB AND PUSH4 0x77FBB663 PUSH1 0xA PUSH2 0x407 PUSH1 0x1 DUP7 PUSH2 0x53F JUMP JUMPDEST PUSH1 0x40 MLOAD PUSH1 0x1 PUSH1 0x1 PUSH1 0xE0 SHL SUB NOT PUSH1 0xE0 DUP6 SWAP1 SHL AND DUP2 MSTORE PUSH1 0x4 DUP2 ADD SWAP3 SWAP1 SWAP3 MSTORE PUSH1 0x24 DUP3 ADD MSTORE PUSH1 0x44 ADD PUSH1 0x20 PUSH1 0x40 MLOAD DUP1 DUP4 SUB DUP2 DUP7 DUP1 EXTCODESIZE ISZERO DUP1 ISZERO PUSH2 0x443 JUMPI PUSH1 0x0 DUP1 REVERT JUMPDEST POP GAS STATICCALL ISZERO DUP1 ISZERO PUSH2 0x457 JUMPI RETURNDATASIZE PUSH1 0x0 DUP1 RETURNDATACOPY RETURNDATASIZE PUSH1 0x0 REVERT JUMPDEST POP POP POP POP PUSH1 0x40 MLOAD RETURNDATASIZE PUSH1 0x1F NOT PUSH1 0x1F DUP3 ADD AND DUP3 ADD DUP1 PUSH1 0x40 MSTORE POP DUP2 ADD SWAP1 PUSH2 0x47B SWAP2 SWAP1 PUSH2 0x527 JUMP JUMPDEST PUSH1 0x0 DUP1 SLOAD PUSH1 0x40 MLOAD PUSH4 0x93FA4915 PUSH1 0xE0 SHL DUP2 MSTORE PUSH1 0xA PUSH1 0x4 DUP3 ADD MSTORE PUSH1 0x24 DUP2 ADD DUP5 SWAP1 MSTORE SWAP3 SWAP4 POP SWAP1 SWAP2 PUSH1 0x1 PUSH1 0x1 PUSH1 0xA0 SHL SUB SWAP1 SWAP2 AND SWAP1 PUSH4 0x93FA4915 SWAP1 PUSH1 0x44 ADD PUSH1 0x20 PUSH1 0x40 MLOAD DUP1 DUP4 SUB DUP2 DUP7 DUP1 EXTCODESIZE ISZERO DUP1 ISZERO PUSH2 0x4CC JUMPI PUSH1 0x0 DUP1 REVERT JUMPDEST POP GAS STATICCALL ISZERO DUP1 ISZERO PUSH2 0x4E0 JUMPI RETURNDATASIZE PUSH1 0x0 DUP1 RETURNDATACOPY RETURNDATASIZE PUSH1 0x0 REVERT JUMPDEST POP POP POP POP PUSH1 0x40 MLOAD RETURNDATASIZE PUSH1 0x1F NOT PUSH1 0x1F DUP3 ADD AND DUP3 ADD DUP1 PUSH1 0x40 MSTORE POP DUP2 ADD SWAP1 PUSH2 0x504 SWAP2 SWAP1 PUSH2 0x527 JUMP JUMPDEST PUSH1 0x1 SWAP7 POP SWAP5 POP SWAP1 SWAP3 POP PUSH2 0x522 SWAP2 POP POP JUMP JUMPDEST PUSH1 0x0 DUP1 PUSH1 0x0 SWAP4 POP SWAP4 POP SWAP4 POP POP JUMPDEST SWAP1 SWAP2 SWAP3 JUMP JUMPDEST PUSH1 0x0 PUSH1 0x20 DUP3 DUP5 SUB SLT ISZERO PUSH2 0x538 JUMPI DUP1 DUP2 REVERT JUMPDEST POP MLOAD SWAP2 SWAP1 POP JUMP JUMPDEST PUSH1 0x0 DUP3 DUP3 LT ISZERO PUSH2 0x55D JUMPI PUSH4 0x4E487B71 PUSH1 0xE0 SHL DUP2 MSTORE PUSH1 0x11 PUSH1 0x4 MSTORE PUSH1 0x24 DUP2 REVERT JUMPDEST POP SUB SWAP1 JUMP INVALID LOG2 PUSH5 0x6970667358 0x22 SLT KECCAK256 PUSH12 0x16D4348E9196358396E8EE18 DUP6 DELEGATECALL DELEGATECALL LOG4 MSTORE8 0x4F 0xB3 PUSH12 0x8101A13300B0219E96615C64 PUSH20 0x6F6C634300080300330000000000000000000000 "
        },
        "methodIdentifiers": {
          "medianOracle()": "bd5a8f5f",
          "pushTellor()": "63a60236",
          "tellor()": "1959ad5b",
          "tellorReport()": "06fc543d",
          "verifyTellorReports()": "e0eced99"
        }
      }
    }
  }
}