{
  "_format": "hh-sol-artifact-1",
  "contractName": "NewTransition",
  "sourceName": "contracts/NewTransition.sol",
  "abi": [
    {
      "inputs": [
        {
          "internalType": "address",
          "name": "",
          "type": "address"
        },
        {
          "internalType": "address",
          "name": "",
          "type": "address"
        }
      ],
      "name": "_allowances",
      "outputs": [
        {
          "internalType": "uint256",
          "name": "",
          "type": "uint256"
        }
      ],
      "stateMutability": "view",
      "type": "function"
    },
    {
      "inputs": [
        {
          "internalType": "bytes",
          "name": "_b",
          "type": "bytes"
        }
      ],
      "name": "_sliceUint",
      "outputs": [
        {
          "internalType": "uint256",
          "name": "_x",
          "type": "uint256"
        }
      ],
      "stateMutability": "pure",
      "type": "function"
    },
    {
      "inputs": [
        {
          "internalType": "bytes32",
          "name": "",
          "type": "bytes32"
        }
      ],
      "name": "addresses",
      "outputs": [
        {
          "internalType": "address",
          "name": "",
          "type": "address"
        }
      ],
      "stateMutability": "view",
      "type": "function"
    },
    {
      "inputs": [
        {
          "internalType": "address",
          "name": "",
          "type": "address"
        },
        {
          "internalType": "uint256",
          "name": "",
          "type": "uint256"
        }
      ],
      "name": "balances",
      "outputs": [
        {
          "internalType": "uint128",
          "name": "fromBlock",
          "type": "uint128"
        },
        {
          "internalType": "uint128",
          "name": "value",
          "type": "uint128"
        }
      ],
      "stateMutability": "view",
      "type": "function"
    },
    {
      "inputs": [
        {
          "internalType": "bytes32",
          "name": "",
          "type": "bytes32"
        }
      ],
      "name": "bytesVars",
      "outputs": [
        {
          "internalType": "bytes32",
          "name": "",
          "type": "bytes32"
        }
      ],
      "stateMutability": "view",
      "type": "function"
    },
    {
      "inputs": [
        {
          "internalType": "uint256",
          "name": "",
          "type": "uint256"
        }
      ],
      "name": "currentMiners",
      "outputs": [
        {
          "internalType": "uint256",
          "name": "value",
          "type": "uint256"
        },
        {
          "internalType": "address",
          "name": "miner",
          "type": "address"
        }
      ],
      "stateMutability": "view",
      "type": "function"
    },
    {
      "inputs": [],
      "name": "decimals",
      "outputs": [
        {
          "internalType": "uint8",
          "name": "",
          "type": "uint8"
        }
      ],
      "stateMutability": "pure",
      "type": "function"
    },
    {
      "inputs": [
        {
          "internalType": "bytes32",
          "name": "",
          "type": "bytes32"
        }
      ],
      "name": "disputeIdByDisputeHash",
      "outputs": [
        {
          "internalType": "uint256",
          "name": "",
          "type": "uint256"
        }
      ],
      "stateMutability": "view",
      "type": "function"
    },
    {
      "inputs": [
        {
          "internalType": "uint256",
          "name": "",
          "type": "uint256"
        }
      ],
      "name": "disputesById",
      "outputs": [
        {
          "internalType": "bytes32",
          "name": "hash",
          "type": "bytes32"
        },
        {
          "internalType": "int256",
          "name": "tally",
          "type": "int256"
        },
        {
          "internalType": "bool",
          "name": "executed",
          "type": "bool"
        },
        {
          "internalType": "bool",
          "name": "disputeVotePassed",
          "type": "bool"
        },
        {
          "internalType": "bool",
          "name": "isPropFork",
          "type": "bool"
        },
        {
          "internalType": "address",
          "name": "reportedMiner",
          "type": "address"
        },
        {
          "internalType": "address",
          "name": "reportingParty",
          "type": "address"
        },
        {
          "internalType": "address",
          "name": "proposedForkAddress",
          "type": "address"
        }
      ],
      "stateMutability": "view",
      "type": "function"
    },
    {
      "inputs": [
        {
          "internalType": "bytes32",
          "name": "_data",
          "type": "bytes32"
        }
      ],
      "name": "getAddressVars",
      "outputs": [
        {
          "internalType": "address",
          "name": "",
          "type": "address"
        }
      ],
      "stateMutability": "view",
      "type": "function"
    },
    {
      "inputs": [
        {
          "internalType": "uint256",
          "name": "_disputeId",
          "type": "uint256"
        }
      ],
      "name": "getAllDisputeVars",
      "outputs": [
        {
          "internalType": "bytes32",
          "name": "",
          "type": "bytes32"
        },
        {
          "internalType": "bool",
          "name": "",
          "type": "bool"
        },
        {
          "internalType": "bool",
          "name": "",
          "type": "bool"
        },
        {
          "internalType": "bool",
          "name": "",
          "type": "bool"
        },
        {
          "internalType": "address",
          "name": "",
          "type": "address"
        },
        {
          "internalType": "address",
          "name": "",
          "type": "address"
        },
        {
          "internalType": "address",
          "name": "",
          "type": "address"
        },
        {
          "internalType": "uint256[9]",
          "name": "",
          "type": "uint256[9]"
        },
        {
          "internalType": "int256",
          "name": "",
          "type": "int256"
        }
      ],
      "stateMutability": "view",
      "type": "function"
    },
    {
      "inputs": [
        {
          "internalType": "bytes32",
          "name": "_hash",
          "type": "bytes32"
        }
      ],
      "name": "getDisputeIdByDisputeHash",
      "outputs": [
        {
          "internalType": "uint256",
          "name": "",
          "type": "uint256"
        }
      ],
      "stateMutability": "view",
      "type": "function"
    },
    {
      "inputs": [
        {
          "internalType": "uint256",
          "name": "_disputeId",
          "type": "uint256"
        },
        {
          "internalType": "bytes32",
          "name": "_data",
          "type": "bytes32"
        }
      ],
      "name": "getDisputeUintVars",
      "outputs": [
        {
          "internalType": "uint256",
          "name": "",
          "type": "uint256"
        }
      ],
      "stateMutability": "view",
      "type": "function"
    },
    {
      "inputs": [
        {
          "internalType": "uint256",
          "name": "_requestId",
          "type": "uint256"
        }
      ],
      "name": "getLastNewValueById",
      "outputs": [
        {
          "internalType": "uint256",
          "name": "",
          "type": "uint256"
        },
        {
          "internalType": "bool",
          "name": "",
          "type": "bool"
        }
      ],
      "stateMutability": "view",
      "type": "function"
    },
    {
      "inputs": [],
      "name": "getNewCurrentVariables",
      "outputs": [
        {
          "internalType": "bytes32",
          "name": "_c",
          "type": "bytes32"
        },
        {
          "internalType": "uint256[5]",
          "name": "_r",
          "type": "uint256[5]"
        },
        {
          "internalType": "uint256",
          "name": "_diff",
          "type": "uint256"
        },
        {
          "internalType": "uint256",
          "name": "_tip",
          "type": "uint256"
        }
      ],
      "stateMutability": "view",
      "type": "function"
    },
    {
      "inputs": [
        {
          "internalType": "uint256",
          "name": "_requestId",
          "type": "uint256"
        }
      ],
      "name": "getNewValueCountbyRequestId",
      "outputs": [
        {
          "internalType": "uint256",
          "name": "",
          "type": "uint256"
        }
      ],
      "stateMutability": "view",
      "type": "function"
    },
    {
      "inputs": [
        {
          "internalType": "uint256",
          "name": "_requestId",
          "type": "uint256"
        },
        {
          "internalType": "uint256",
          "name": "_index",
          "type": "uint256"
        }
      ],
      "name": "getTimestampbyRequestIDandIndex",
      "outputs": [
        {
          "internalType": "uint256",
          "name": "",
          "type": "uint256"
        }
      ],
      "stateMutability": "view",
      "type": "function"
    },
    {
      "inputs": [
        {
          "internalType": "bytes32",
          "name": "_data",
          "type": "bytes32"
        }
      ],
      "name": "getUintVar",
      "outputs": [
        {
          "internalType": "uint256",
          "name": "",
          "type": "uint256"
        }
      ],
      "stateMutability": "view",
      "type": "function"
    },
    {
      "inputs": [
        {
          "internalType": "address",
          "name": "_addy",
          "type": "address"
        }
      ],
      "name": "isMigrated",
      "outputs": [
        {
          "internalType": "bool",
          "name": "",
          "type": "bool"
        }
      ],
      "stateMutability": "view",
      "type": "function"
    },
    {
      "inputs": [
        {
          "internalType": "address",
          "name": "",
          "type": "address"
        }
      ],
      "name": "migrated",
      "outputs": [
        {
          "internalType": "bool",
          "name": "",
          "type": "bool"
        }
      ],
      "stateMutability": "view",
      "type": "function"
    },
    {
      "inputs": [
        {
          "internalType": "bytes32",
          "name": "",
          "type": "bytes32"
        },
        {
          "internalType": "address",
          "name": "",
          "type": "address"
        }
      ],
      "name": "minersByChallenge",
      "outputs": [
        {
          "internalType": "bool",
          "name": "",
          "type": "bool"
        }
      ],
      "stateMutability": "view",
      "type": "function"
    },
    {
      "inputs": [],
      "name": "name",
      "outputs": [
        {
          "internalType": "string",
          "name": "",
          "type": "string"
        }
      ],
      "stateMutability": "pure",
      "type": "function"
    },
    {
      "inputs": [
        {
          "internalType": "uint256",
          "name": "",
          "type": "uint256"
        }
      ],
      "name": "newValueTimestamps",
      "outputs": [
        {
          "internalType": "uint256",
          "name": "",
          "type": "uint256"
        }
      ],
      "stateMutability": "view",
      "type": "function"
    },
    {
      "inputs": [
        {
          "internalType": "bytes32",
          "name": "",
          "type": "bytes32"
        }
      ],
      "name": "requestIdByQueryHash",
      "outputs": [
        {
          "internalType": "uint256",
          "name": "",
          "type": "uint256"
        }
      ],
      "stateMutability": "view",
      "type": "function"
    },
    {
      "inputs": [
        {
          "internalType": "uint256",
          "name": "_requestId",
          "type": "uint256"
        },
        {
          "internalType": "uint256",
          "name": "_timestamp",
          "type": "uint256"
        }
      ],
      "name": "retrieveData",
      "outputs": [
        {
          "internalType": "uint256",
          "name": "",
          "type": "uint256"
        }
      ],
      "stateMutability": "view",
      "type": "function"
    },
    {
      "inputs": [],
      "name": "symbol",
      "outputs": [
        {
          "internalType": "string",
          "name": "",
          "type": "string"
        }
      ],
      "stateMutability": "pure",
      "type": "function"
    },
    {
      "inputs": [],
      "name": "totalSupply",
      "outputs": [
        {
          "internalType": "uint256",
          "name": "",
          "type": "uint256"
        }
      ],
      "stateMutability": "view",
      "type": "function"
    },
    {
      "inputs": [
        {
          "internalType": "bytes32",
          "name": "",
          "type": "bytes32"
        }
      ],
      "name": "uints",
      "outputs": [
        {
          "internalType": "uint256",
          "name": "",
          "type": "uint256"
        }
      ],
      "stateMutability": "view",
      "type": "function"
    }
  ],
  "bytecode": "0x608060405234801561001057600080fd5b50611440806100206000396000f3fe608060405234801561001057600080fd5b50600436106101c45760003560e01c806358421ed2116100f957806395d89b4111610097578063cbf1304d11610071578063cbf1304d14610540578063d01f4d9e1461057c578063da3799411461059c578063db085beb146105bc576101c4565b806395d89b41146104d9578063af0b1327146104f8578063b59e14d414610520576101c4565b8063699f200f116100d3578063699f200f1461045b57806377fbb663146104845780637f6fd5d91461049757806393fa4915146104c6576101c4565b806358421ed2146103ef578063612c8f7f1461041b57806362dd1d2a1461043b576101c4565b8063340a13721161016657806346eee1c41161014057806346eee1c41461035b57806348b18e541461036e5780634ba0a5ee146103ac5780635700242c146103cf576101c4565b8063340a13721461031d5780634049f19814610330578063438c0aa314610348576101c4565b806318160ddd116101a257806318160ddd146102665780631fd22364146102b6578063313ce567146102e65780633180f8df146102f5576101c4565b8063024c2ddd146101c957806306fdde0314610207578063133bee5e1461023b575b600080fd5b6101f46101d7366004610ff9565b604a60209081526000928352604080842090915290825290205481565b6040519081526020015b60405180910390f35b60408051808201909152600f81526e54656c6c6f7220547269627574657360881b60208201525b6040516101fe9190611279565b61024e610249366004611054565b610675565b6040516001600160a01b0390911681526020016101fe565b7fe6148e7230ca038d456350e69a91b66968b222bfac9ebfbea6ff0a1fb738016060005260466020527ffffeead1ec15181fd57b4590d95e0c076bccb59e311315e8b38f23c710aa7c3e546101f4565b6102c96102c4366004611054565b610693565b604080519283526001600160a01b039091166020830152016101fe565b604051601281526020016101fe565b610308610303366004611054565b6106be565b604080519283529015156020830152016101fe565b6101f461032b36600461108e565b6108a8565b610338610911565b6040516101fe94939291906111b3565b6101f4610356366004611054565b610a1a565b6101f4610369366004611054565b610a3b565b61039c61037c36600461106c565b603960209081526000928352604080842090915290825290205460ff1681565b60405190151581526020016101fe565b61039c6103ba366004610fdf565b604b6020526000908152604090205460ff1681565b6101f46103dd366004611054565b60376020526000908152604090205481565b61039c6103fd366004610fdf565b6001600160a01b03166000908152604b602052604090205460ff1690565b6101f4610429366004611054565b60009081526046602052604090205490565b6101f4610449366004611054565b60486020526000908152604090205481565b61024e610469366004611054565b6047602052600090815260409020546001600160a01b031681565b6101f4610492366004611192565b610b02565b6101f46104a5366004611192565b60009182526036602090815260408084209284526005909201905290205490565b6101f46104d4366004611192565b610bf0565b6040805180820190915260038152622a292160e91b602082015261022e565b61050b610506366004611054565b610d14565b6040516101fe999897969594939291906111f7565b6101f461052e366004611054565b60466020526000908152604090205481565b61055361054e36600461102b565b610f3f565b604080516fffffffffffffffffffffffffffffffff9384168152929091166020830152016101fe565b6101f461058a366004611054565b60386020526000908152604090205481565b6101f46105aa366004611054565b60009081526038602052604090205490565b6106266105ca366004611054565b603660205260009081526040902080546001820154600283015460038401546004909401549293919260ff808316936101008404821693620100008104909216926001600160a01b036301000000909304831692918216911688565b604080519889526020890197909752941515958701959095529115156060860152151560808501526001600160a01b0390811660a085015291821660c08401521660e0820152610100016101fe565b6000818152604760205260409020546001600160a01b03165b919050565b603a81600581106106a357600080fd5b6002020180546001909101549091506001600160a01b031682565b6000805160206113eb833981519152600090815260476020526000805160206113cb833981519152546040516377b03e0d60e01b815260048101849052829182916001600160a01b03909116906377b03e0d9060240160206040518083038186803b15801561072c57600080fd5b505afa158015610740573d6000803e3d6000fd5b505050506040513d601f19601f82011682018060405250810190610764919061117a565b90508015610833576000805160206113eb83398151915260005260476020526000805160206113cb833981519152546108279085906001600160a01b0316637c37b8b4826107b360018761133c565b6040516001600160e01b031960e085901b1681526004810192909252602482015260440160206040518083038186803b1580156107ef57600080fd5b505afa158015610803573d6000803e3d6000fd5b505050506040513d601f19601f820116820180604052508101906104d4919061117a565b600192509250506108a3565b600084815260456020526040902080541561089957805461088c908690839061085e9060019061133c565b8154811061087c57634e487b7160e01b600052603260045260246000fd5b9060005260206000200154610bf0565b60019350935050506108a3565b6000809350935050505b915091565b600080805b835181101561090a576108c28261010061131d565b91508381815181106108e457634e487b7160e01b600052603260045260246000fd5b01602001516108f69060f81c83611305565b91508061090281611383565b9150506108ad565b5092915050565b600061091b610f8b565b506040805160a081018252600180825260208083018290528284018290526060830182905260808301919091526000805160206113eb8339815191526000908152604782526000805160206113cb83398151915254845163607caea960e11b815294519394919384936001600160a01b039092169263c0f95d52926004808301939192829003018186803b1580156109b257600080fd5b505afa1580156109c6573d6000803e3d6000fd5b505050506040513d601f19601f820116820180604052508101906109ea919061117a565b6040516020016109fc91815260200190565b60405160208183030381529060405280519060200120935090919293565b60338181548110610a2a57600080fd5b600091825260209091200154905081565b6000805160206113eb833981519152600090815260476020526000805160206113cb833981519152546040516377b03e0d60e01b81526004810184905282916001600160a01b0316906377b03e0d9060240160206040518083038186803b158015610aa557600080fd5b505afa158015610ab9573d6000803e3d6000fd5b505050506040513d601f19601f82011682018060405250810190610add919061117a565b90508015610aec57905061068e565b505060008181526045602052604090205461068e565b6000805160206113eb833981519152600090815260476020526000805160206113cb83398151915254604051631f0dee2d60e21b815260048101859052602481018490526001600160a01b0390911690637c37b8b49060440160206040518083038186803b158015610b7357600080fd5b505afa925050508015610ba3575060408051601f3d908101601f19168201909252610ba09181019061117a565b60015b610be7576000838152604560205260409020805483908110610bd557634e487b7160e01b600052603260045260246000fd5b90600052602060002001549050610bea565b90505b92915050565b7f6c0e91a96227393eb6e42b88e9a99f7c5ebd588098b549c949baf27ac9509d8f600090815260466020527f9dd7c008ae091f0bb92d79df2a27d29a02d7be98e77be1227c4e243dccabda5854821015610c6757506000828152604560209081526040808320848452600301909152902054610bea565b6000805160206113eb83398151915260005260476020526000805160206113cb83398151915254604051630b2d2b0d60e01b81526004810185905260248101849052610be7916001600160a01b031690630b2d2b0d9060440160006040518083038186803b158015610cd857600080fd5b505afa158015610cec573d6000803e3d6000fd5b505050506040513d6000823e601f3d908101601f1916820160405261032b9190810190611107565b6000806000806000806000610d27610fa9565b5050506000958652505060366020908152604080862080546002820154600383015460048401548551610120810187527f9f47a2659c3d32b749ae717d975e7962959890862423c4318cf86e4ec220291f8c5260058601808952878d205482527f2f9328a9c75282bec25bb04befad06926366736e0030c985108445fa728335e58d52808952878d2054828a01527f9147231ab14efb72c38117f68521ddef8de64f092c18c69dbfb602ffc4de7f478d52808952878d2054828901527f46f7d53798d31923f6952572c6a19ad2d1a8238d26649c2f3493a6d69e425d288d52808952878d205460608301527f1da378694063870452ce03b189f48e04c1aa026348e74e6c86e10738514ad2c48d52808952878d205460808301527f4b4cefd5ced7569ef0d091282b4bca9c52a034c56471a6061afd1bf307a2de7c8d52808952878d205460a08301527f6de96ee4d33a0617f40a846309c8759048857f51b9d59a12d3c3786d4778883d8d52808952878d205460c08301527f30e85ae205656781c1a951cba9f9f53f884833c049d377a2a7046eb5e6d14b268d52808952878d205460e08301527f1da95f11543c9b03927178e07951795dfc95c7501a9d1cf00e13414ca33bc4098d52909752949099205461010080870191909152600190930154919960ff8083169a948304811699506201000083041697506001600160a01b036301000000909204821696509281169493169291565b60496020528160005260406000208181548110610f5b57600080fd5b6000918252602090912001546fffffffffffffffffffffffffffffffff8082169350600160801b90910416905082565b6040518060a001604052806005906020820280368337509192915050565b6040518061012001604052806009906020820280368337509192915050565b80356001600160a01b038116811461068e57600080fd5b600060208284031215610ff0578081fd5b610be782610fc8565b6000806040838503121561100b578081fd5b61101483610fc8565b915061102260208401610fc8565b90509250929050565b6000806040838503121561103d578182fd5b61104683610fc8565b946020939093013593505050565b600060208284031215611065578081fd5b5035919050565b6000806040838503121561107e578182fd5b8235915061102260208401610fc8565b60006020828403121561109f578081fd5b813567ffffffffffffffff8111156110b5578182fd5b8201601f810184136110c5578182fd5b80356110d86110d3826112dd565b6112ac565b8181528560208385010111156110ec578384fd5b81602084016020830137908101602001929092525092915050565b600060208284031215611118578081fd5b815167ffffffffffffffff81111561112e578182fd5b8201601f8101841361113e578182fd5b805161114c6110d3826112dd565b818152856020838501011115611160578384fd5b611171826020830160208601611353565b95945050505050565b60006020828403121561118b578081fd5b5051919050565b600080604083850312156111a4578182fd5b50508035926020909101359150565b848152610100810160208083018660005b60058110156111e1578151835291830191908301906001016111c4565b5050505060c082019390935260e0015292915050565b898152881515602080830191909152881515604083015287151560608301526001600160a01b03878116608084015286811660a0840152851660c083015261022082019060e083018560005b600981101561126057815183529183019190830190600101611243565b50505050826102008301529a9950505050505050505050565b6000602082528251806020840152611298816040850160208701611353565b601f01601f19169190910160400192915050565b604051601f8201601f1916810167ffffffffffffffff811182821017156112d5576112d56113b4565b604052919050565b600067ffffffffffffffff8211156112f7576112f76113b4565b50601f01601f191660200190565b600082198211156113185761131861139e565b500190565b60008160001904831182151516156113375761133761139e565b500290565b60008282101561134e5761134e61139e565b500390565b60005b8381101561136e578181015183820152602001611356565b8381111561137d576000848401525b50505050565b60006000198214156113975761139761139e565b5060010190565b634e487b7160e01b600052601160045260246000fd5b634e487b7160e01b600052604160045260246000fdfeef4ea54b5b61165ffc2ef656b4303b6e25d2ec33cc6bc62f39864cc7b0cfe7b5fa522e460446113e8fd353d7fa015625a68bc0369712213a42e006346440891ea26469706673582212204dae2360a6ea83d1cefa3c5122946e3cd2d749615277eab016a2847b6597506364736f6c63430008030033",
  "linkReferences": {},
  "deployedLinkReferences": {}
}