{
  "_format": "hh-sol-artifact-1",
  "contractName": "BaseToken",
  "sourceName": "contracts/BaseToken.sol",
  "abi": [
    {
      "anonymous": false,
      "inputs": [
        {
          "indexed": true,
          "internalType": "address",
          "name": "_owner",
          "type": "address"
        },
        {
          "indexed": true,
          "internalType": "address",
          "name": "_spender",
          "type": "address"
        },
        {
          "indexed": false,
          "internalType": "uint256",
          "name": "_value",
          "type": "uint256"
        }
      ],
      "name": "Approval",
      "type": "event"
    },
    {
      "anonymous": false,
      "inputs": [
        {
          "indexed": true,
          "internalType": "address",
          "name": "_from",
          "type": "address"
        },
        {
          "indexed": true,
          "internalType": "address",
          "name": "_to",
          "type": "address"
        },
        {
          "indexed": false,
          "internalType": "uint256",
          "name": "_value",
          "type": "uint256"
        }
      ],
      "name": "Transfer",
      "type": "event"
    },
    {
      "inputs": [
        {
          "internalType": "address",
          "name": "",
          "type": "address"
        },
        {
          "internalType": "address",
          "name": "",
          "type": "address"
        }
      ],
      "name": "_allowances",
      "outputs": [
        {
          "internalType": "uint256",
          "name": "",
          "type": "uint256"
        }
      ],
      "stateMutability": "view",
      "type": "function"
    },
    {
      "inputs": [
        {
          "internalType": "bytes32",
          "name": "",
          "type": "bytes32"
        }
      ],
      "name": "addresses",
      "outputs": [
        {
          "internalType": "address",
          "name": "",
          "type": "address"
        }
      ],
      "stateMutability": "view",
      "type": "function"
    },
    {
      "inputs": [
        {
          "internalType": "address",
          "name": "_user",
          "type": "address"
        },
        {
          "internalType": "address",
          "name": "_spender",
          "type": "address"
        }
      ],
      "name": "allowance",
      "outputs": [
        {
          "internalType": "uint256",
          "name": "",
          "type": "uint256"
        }
      ],
      "stateMutability": "view",
      "type": "function"
    },
    {
      "inputs": [
        {
          "internalType": "address",
          "name": "_spender",
          "type": "address"
        },
        {
          "internalType": "uint256",
          "name": "_amount",
          "type": "uint256"
        }
      ],
      "name": "approve",
      "outputs": [
        {
          "internalType": "bool",
          "name": "",
          "type": "bool"
        }
      ],
      "stateMutability": "nonpayable",
      "type": "function"
    },
    {
      "inputs": [
        {
          "internalType": "address",
          "name": "_user",
          "type": "address"
        }
      ],
      "name": "balanceOf",
      "outputs": [
        {
          "internalType": "uint256",
          "name": "",
          "type": "uint256"
        }
      ],
      "stateMutability": "view",
      "type": "function"
    },
    {
      "inputs": [
        {
          "internalType": "address",
          "name": "_user",
          "type": "address"
        },
        {
          "internalType": "uint256",
          "name": "_blockNumber",
          "type": "uint256"
        }
      ],
      "name": "balanceOfAt",
      "outputs": [
        {
          "internalType": "uint256",
          "name": "",
          "type": "uint256"
        }
      ],
      "stateMutability": "view",
      "type": "function"
    },
    {
      "inputs": [
        {
          "internalType": "address",
          "name": "",
          "type": "address"
        },
        {
          "internalType": "uint256",
          "name": "",
          "type": "uint256"
        }
      ],
      "name": "balances",
      "outputs": [
        {
          "internalType": "uint128",
          "name": "fromBlock",
          "type": "uint128"
        },
        {
          "internalType": "uint128",
          "name": "value",
          "type": "uint128"
        }
      ],
      "stateMutability": "view",
      "type": "function"
    },
    {
      "inputs": [
        {
          "internalType": "bytes32",
          "name": "",
          "type": "bytes32"
        }
      ],
      "name": "bytesVars",
      "outputs": [
        {
          "internalType": "bytes32",
          "name": "",
          "type": "bytes32"
        }
      ],
      "stateMutability": "view",
      "type": "function"
    },
    {
      "inputs": [
        {
          "internalType": "uint256",
          "name": "",
          "type": "uint256"
        }
      ],
      "name": "currentMiners",
      "outputs": [
        {
          "internalType": "uint256",
          "name": "value",
          "type": "uint256"
        },
        {
          "internalType": "address",
          "name": "miner",
          "type": "address"
        }
      ],
      "stateMutability": "view",
      "type": "function"
    },
    {
      "inputs": [
        {
          "internalType": "bytes32",
          "name": "",
          "type": "bytes32"
        }
      ],
      "name": "disputeIdByDisputeHash",
      "outputs": [
        {
          "internalType": "uint256",
          "name": "",
          "type": "uint256"
        }
      ],
      "stateMutability": "view",
      "type": "function"
    },
    {
      "inputs": [
        {
          "internalType": "uint256",
          "name": "",
          "type": "uint256"
        }
      ],
      "name": "disputesById",
      "outputs": [
        {
          "internalType": "bytes32",
          "name": "hash",
          "type": "bytes32"
        },
        {
          "internalType": "int256",
          "name": "tally",
          "type": "int256"
        },
        {
          "internalType": "bool",
          "name": "executed",
          "type": "bool"
        },
        {
          "internalType": "bool",
          "name": "disputeVotePassed",
          "type": "bool"
        },
        {
          "internalType": "bool",
          "name": "isPropFork",
          "type": "bool"
        },
        {
          "internalType": "address",
          "name": "reportedMiner",
          "type": "address"
        },
        {
          "internalType": "address",
          "name": "reportingParty",
          "type": "address"
        },
        {
          "internalType": "address",
          "name": "proposedForkAddress",
          "type": "address"
        }
      ],
      "stateMutability": "view",
      "type": "function"
    },
    {
      "inputs": [
        {
          "internalType": "address",
          "name": "",
          "type": "address"
        }
      ],
      "name": "migrated",
      "outputs": [
        {
          "internalType": "bool",
          "name": "",
          "type": "bool"
        }
      ],
      "stateMutability": "view",
      "type": "function"
    },
    {
      "inputs": [
        {
          "internalType": "bytes32",
          "name": "",
          "type": "bytes32"
        },
        {
          "internalType": "address",
          "name": "",
          "type": "address"
        }
      ],
      "name": "minersByChallenge",
      "outputs": [
        {
          "internalType": "bool",
          "name": "",
          "type": "bool"
        }
      ],
      "stateMutability": "view",
      "type": "function"
    },
    {
      "inputs": [
        {
          "internalType": "uint256",
          "name": "",
          "type": "uint256"
        }
      ],
      "name": "newValueTimestamps",
      "outputs": [
        {
          "internalType": "uint256",
          "name": "",
          "type": "uint256"
        }
      ],
      "stateMutability": "view",
      "type": "function"
    },
    {
      "inputs": [
        {
          "internalType": "bytes32",
          "name": "",
          "type": "bytes32"
        }
      ],
      "name": "requestIdByQueryHash",
      "outputs": [
        {
          "internalType": "uint256",
          "name": "",
          "type": "uint256"
        }
      ],
      "stateMutability": "view",
      "type": "function"
    },
    {
      "inputs": [
        {
          "internalType": "address",
          "name": "_to",
          "type": "address"
        },
        {
          "internalType": "uint256",
          "name": "_amount",
          "type": "uint256"
        }
      ],
      "name": "transfer",
      "outputs": [
        {
          "internalType": "bool",
          "name": "success",
          "type": "bool"
        }
      ],
      "stateMutability": "nonpayable",
      "type": "function"
    },
    {
      "inputs": [
        {
          "internalType": "address",
          "name": "_from",
          "type": "address"
        },
        {
          "internalType": "address",
          "name": "_to",
          "type": "address"
        },
        {
          "internalType": "uint256",
          "name": "_amount",
          "type": "uint256"
        }
      ],
      "name": "transferFrom",
      "outputs": [
        {
          "internalType": "bool",
          "name": "success",
          "type": "bool"
        }
      ],
      "stateMutability": "nonpayable",
      "type": "function"
    },
    {
      "inputs": [
        {
          "internalType": "bytes32",
          "name": "",
          "type": "bytes32"
        }
      ],
      "name": "uints",
      "outputs": [
        {
          "internalType": "uint256",
          "name": "",
          "type": "uint256"
        }
      ],
      "stateMutability": "view",
      "type": "function"
    }
  ],
  "bytecode": "0x608060405234801561001057600080fd5b50610d2f806100206000396000f3fe608060405234801561001057600080fd5b50600436106101165760003560e01c806362dd1d2a116100a2578063b59e14d411610071578063b59e14d4146102dd578063cbf1304d146102fd578063d01f4d9e14610330578063db085beb14610350578063dd62ed3e1461040957610116565b806362dd1d2a14610256578063699f200f1461027657806370a08231146102b7578063a9059cbb146102ca57610116565b8063438c0aa3116100e9578063438c0aa3146101bf57806348b18e54146101d25780634ba0a5ee146102005780634ee2cd7e146102235780635700242c1461023657610116565b8063024c2ddd1461011b578063095ea7b3146101595780631fd223641461017c57806323b872dd146101ac575b600080fd5b610146610129366004610b71565b604a60209081526000928352604080842090915290825290205481565b6040519081526020015b60405180910390f35b61016c610167366004610bde565b610442565b6040519015158152602001610150565b61018f61018a366004610c07565b61050f565b604080519283526001600160a01b03909116602083015201610150565b61016c6101ba366004610ba3565b61053a565b6101466101cd366004610c07565b6105f0565b61016c6101e0366004610c1f565b603960209081526000928352604080842090915290825290205460ff1681565b61016c61020e366004610b50565b604b6020526000908152604090205460ff1681565b610146610231366004610bde565b610611565b610146610244366004610c07565b60376020526000908152604090205481565b610146610264366004610c07565b60486020526000908152604090205481565b61029f610284366004610c07565b6047602052600090815260409020546001600160a01b031681565b6040516001600160a01b039091168152602001610150565b6101466102c5366004610b50565b61087c565b61016c6102d8366004610bde565b610890565b6101466102eb366004610c07565b60466020526000908152604090205481565b61031061030b366004610bde565b6108a6565b604080516001600160801b03938416815292909116602083015201610150565b61014661033e366004610c07565b60386020526000908152604090205481565b6103ba61035e366004610c07565b603660205260009081526040902080546001820154600283015460038401546004909401549293919260ff808316936101008404821693620100008104909216926001600160a01b036301000000909304831692918216911688565b604080519889526020890197909752941515958701959095529115156060860152151560808501526001600160a01b0390811660a085015291821660c08401521660e082015261010001610150565b610146610417366004610b71565b6001600160a01b039182166000908152604a6020908152604080832093909416825291909152205490565b60006001600160a01b0383166104aa5760405162461bcd60e51b815260206004820152602260248201527f45524332303a20617070726f766520746f20746865207a65726f206164647265604482015261737360f01b60648201526084015b60405180910390fd5b336000818152604a602090815260408083206001600160a01b03881680855290835292819020869055518581529192917f8c5be1e5ebec7d5bd14f71427d1e84f3dd0314c0f7b2291e5b200ac8c7c3b925910160405180910390a35060015b92915050565b603a816005811061051f57600080fd5b6002020180546001909101549091506001600160a01b031682565b6001600160a01b0383166000908152604a602090815260408083203384529091528120548211156105a25760405162461bcd60e51b8152602060048201526012602482015271416c6c6f77616e63652069732077726f6e6760701b60448201526064016104a1565b6001600160a01b0384166000908152604a60209081526040808320338452909152812080548492906105d5908490610ccc565b909155506105e690508484846108e9565b5060019392505050565b6033818154811061060057600080fd5b600091825260209091200154905081565b6001600160a01b03821660009081526049602052604081208054158061066b5750828160008154811061065457634e487b7160e01b600052603260045260246000fd5b6000918252602090912001546001600160801b0316115b1561067a576000915050610509565b8054819061068a90600190610ccc565b815481106106a857634e487b7160e01b600052603260045260246000fd5b6000918252602090912001546001600160801b0316831061071657805481906106d390600190610ccc565b815481106106f157634e487b7160e01b600052603260045260246000fd5b600091825260209091200154600160801b90046001600160801b031691506105099050565b8054600090819061072990600290610ccc565b90505b8181111561083557600060026107428484610c6c565b61074d906001610c6c565b6107579190610c84565b90508584828154811061077a57634e487b7160e01b600052603260045260246000fd5b6000918252602090912001546001600160801b031614156107dd578381815481106107b557634e487b7160e01b600052603260045260246000fd5b600091825260209091200154600160801b90046001600160801b031694506105099350505050565b858482815481106107fe57634e487b7160e01b600052603260045260246000fd5b6000918252602090912001546001600160801b031610156108215780925061082f565b61082c600182610ccc565b91505b5061072c565b82828154811061085557634e487b7160e01b600052603260045260246000fd5b600091825260209091200154600160801b90046001600160801b0316935061050992505050565b60006108888243610611565b90505b919050565b600061089d3384846108e9565b50600192915050565b604960205281600052604060002081815481106108c257600080fd5b6000918252602090912001546001600160801b038082169350600160801b90910416905082565b806109405760405162461bcd60e51b815260206004820152602160248201527f547269656420746f2073656e64206e6f6e2d706f73697469766520616d6f756e6044820152601d60fa1b60648201526084016104a1565b6001600160a01b0382166109965760405162461bcd60e51b815260206004820152601560248201527f526563656976657220697320302061646472657373000000000000000000000060448201526064016104a1565b60006109a18461087c565b9050816109b7856109b28385610ca4565b610a24565b6109c08461087c565b91506109d0846109b28385610c41565b836001600160a01b0316856001600160a01b03167fddf252ad1be2c89b69c2b068fc378daa952ba7f163c4a11628f55a4df523b3ef85604051610a1591815260200190565b60405180910390a35050505050565b6001600160a01b038216600090815260496020526040902080541580610a8d5750805443908290610a5790600190610ccc565b81548110610a7557634e487b7160e01b600052603260045260246000fd5b6000918252602090912001546001600160801b031614155b15610ade57604080518082019091526001600160801b03438116825283811660208084019182528454600181018655600086815291909120935191518316600160801b029190921617910155610b34565b80546000908290610af190600190610ccc565b81548110610b0f57634e487b7160e01b600052603260045260246000fd5b600091825260209091200180546001600160801b03808616600160801b029116179055505b505050565b80356001600160a01b038116811461088b57600080fd5b600060208284031215610b61578081fd5b610b6a82610b39565b9392505050565b60008060408385031215610b83578081fd5b610b8c83610b39565b9150610b9a60208401610b39565b90509250929050565b600080600060608486031215610bb7578081fd5b610bc084610b39565b9250610bce60208501610b39565b9150604084013590509250925092565b60008060408385031215610bf0578182fd5b610bf983610b39565b946020939093013593505050565b600060208284031215610c18578081fd5b5035919050565b60008060408385031215610c31578182fd5b82359150610b9a60208401610b39565b60006001600160801b03808316818516808303821115610c6357610c63610ce3565b01949350505050565b60008219821115610c7f57610c7f610ce3565b500190565b600082610c9f57634e487b7160e01b81526012600452602481fd5b500490565b60006001600160801b0383811690831681811015610cc457610cc4610ce3565b039392505050565b600082821015610cde57610cde610ce3565b500390565b634e487b7160e01b600052601160045260246000fdfea264697066735822122085087818ec78ba6860291b784a681f7c5645ed7650a3ff3bd7204a97df2a128664736f6c63430008030033",
  "linkReferences": {},
  "deployedLinkReferences": {}
}