{
  "_format": "hh-sol-artifact-1",
  "contractName": "TestToken",
  "sourceName": "contracts/oldContracts/contracts/testing/TestToken.sol",
  "abi": [
    {
      "anonymous": false,
      "inputs": [
        {
          "indexed": true,
          "internalType": "address",
          "name": "_owner",
          "type": "address"
        },
        {
          "indexed": true,
          "internalType": "address",
          "name": "_spender",
          "type": "address"
        },
        {
          "indexed": false,
          "internalType": "uint256",
          "name": "_value",
          "type": "uint256"
        }
      ],
      "name": "Approval",
      "type": "event"
    },
    {
      "anonymous": false,
      "inputs": [
        {
          "indexed": false,
          "internalType": "address",
          "name": "",
          "type": "address"
        },
        {
          "indexed": false,
          "internalType": "uint256",
          "name": "",
          "type": "uint256"
        }
      ],
      "name": "Received",
      "type": "event"
    },
    {
      "anonymous": false,
      "inputs": [
        {
          "indexed": true,
          "internalType": "address",
          "name": "_from",
          "type": "address"
        },
        {
          "indexed": true,
          "internalType": "address",
          "name": "_to",
          "type": "address"
        },
        {
          "indexed": false,
          "internalType": "uint256",
          "name": "_value",
          "type": "uint256"
        }
      ],
      "name": "Transfer",
      "type": "event"
    },
    {
      "inputs": [
        {
          "internalType": "address",
          "name": "",
          "type": "address"
        },
        {
          "internalType": "address",
          "name": "",
          "type": "address"
        }
      ],
      "name": "_allowances",
      "outputs": [
        {
          "internalType": "uint256",
          "name": "",
          "type": "uint256"
        }
      ],
      "stateMutability": "view",
      "type": "function"
    },
    {
      "inputs": [
        {
          "internalType": "bytes32",
          "name": "",
          "type": "bytes32"
        }
      ],
      "name": "addresses",
      "outputs": [
        {
          "internalType": "address",
          "name": "",
          "type": "address"
        }
      ],
      "stateMutability": "view",
      "type": "function"
    },
    {
      "inputs": [
        {
          "internalType": "address",
          "name": "_user",
          "type": "address"
        },
        {
          "internalType": "address",
          "name": "_spender",
          "type": "address"
        }
      ],
      "name": "allowance",
      "outputs": [
        {
          "internalType": "uint256",
          "name": "",
          "type": "uint256"
        }
      ],
      "stateMutability": "view",
      "type": "function"
    },
    {
      "inputs": [
        {
          "internalType": "address",
          "name": "_spender",
          "type": "address"
        },
        {
          "internalType": "uint256",
          "name": "_amount",
          "type": "uint256"
        }
      ],
      "name": "approve",
      "outputs": [
        {
          "internalType": "bool",
          "name": "",
          "type": "bool"
        }
      ],
      "stateMutability": "nonpayable",
      "type": "function"
    },
    {
      "inputs": [
        {
          "internalType": "address",
          "name": "_user",
          "type": "address"
        }
      ],
      "name": "balanceOf",
      "outputs": [
        {
          "internalType": "uint256",
          "name": "",
          "type": "uint256"
        }
      ],
      "stateMutability": "view",
      "type": "function"
    },
    {
      "inputs": [
        {
          "internalType": "address",
          "name": "_user",
          "type": "address"
        },
        {
          "internalType": "uint256",
          "name": "_blockNumber",
          "type": "uint256"
        }
      ],
      "name": "balanceOfAt",
      "outputs": [
        {
          "internalType": "uint256",
          "name": "",
          "type": "uint256"
        }
      ],
      "stateMutability": "view",
      "type": "function"
    },
    {
      "inputs": [
        {
          "internalType": "address",
          "name": "",
          "type": "address"
        },
        {
          "internalType": "uint256",
          "name": "",
          "type": "uint256"
        }
      ],
      "name": "balances",
      "outputs": [
        {
          "internalType": "uint128",
          "name": "fromBlock",
          "type": "uint128"
        },
        {
          "internalType": "uint128",
          "name": "value",
          "type": "uint128"
        }
      ],
      "stateMutability": "view",
      "type": "function"
    },
    {
      "inputs": [
        {
          "internalType": "bytes32",
          "name": "",
          "type": "bytes32"
        }
      ],
      "name": "bytesVars",
      "outputs": [
        {
          "internalType": "bytes32",
          "name": "",
          "type": "bytes32"
        }
      ],
      "stateMutability": "view",
      "type": "function"
    },
    {
      "inputs": [
        {
          "internalType": "uint256",
          "name": "",
          "type": "uint256"
        }
      ],
      "name": "currentMiners",
      "outputs": [
        {
          "internalType": "uint256",
          "name": "value",
          "type": "uint256"
        },
        {
          "internalType": "address",
          "name": "miner",
          "type": "address"
        }
      ],
      "stateMutability": "view",
      "type": "function"
    },
    {
      "inputs": [
        {
          "internalType": "bytes32",
          "name": "",
          "type": "bytes32"
        }
      ],
      "name": "disputeIdByDisputeHash",
      "outputs": [
        {
          "internalType": "uint256",
          "name": "",
          "type": "uint256"
        }
      ],
      "stateMutability": "view",
      "type": "function"
    },
    {
      "inputs": [
        {
          "internalType": "uint256",
          "name": "",
          "type": "uint256"
        }
      ],
      "name": "disputesById",
      "outputs": [
        {
          "internalType": "bytes32",
          "name": "hash",
          "type": "bytes32"
        },
        {
          "internalType": "int256",
          "name": "tally",
          "type": "int256"
        },
        {
          "internalType": "bool",
          "name": "executed",
          "type": "bool"
        },
        {
          "internalType": "bool",
          "name": "disputeVotePassed",
          "type": "bool"
        },
        {
          "internalType": "bool",
          "name": "isPropFork",
          "type": "bool"
        },
        {
          "internalType": "address",
          "name": "reportedMiner",
          "type": "address"
        },
        {
          "internalType": "address",
          "name": "reportingParty",
          "type": "address"
        },
        {
          "internalType": "address",
          "name": "proposedForkAddress",
          "type": "address"
        }
      ],
      "stateMutability": "view",
      "type": "function"
    },
    {
      "inputs": [
        {
          "internalType": "address",
          "name": "",
          "type": "address"
        }
      ],
      "name": "migrated",
      "outputs": [
        {
          "internalType": "bool",
          "name": "",
          "type": "bool"
        }
      ],
      "stateMutability": "view",
      "type": "function"
    },
    {
      "inputs": [
        {
          "internalType": "bytes32",
          "name": "",
          "type": "bytes32"
        },
        {
          "internalType": "address",
          "name": "",
          "type": "address"
        }
      ],
      "name": "minersByChallenge",
      "outputs": [
        {
          "internalType": "bool",
          "name": "",
          "type": "bool"
        }
      ],
      "stateMutability": "view",
      "type": "function"
    },
    {
      "inputs": [
        {
          "internalType": "address",
          "name": "_to",
          "type": "address"
        },
        {
          "internalType": "uint256",
          "name": "_amount",
          "type": "uint256"
        }
      ],
      "name": "mint",
      "outputs": [],
      "stateMutability": "nonpayable",
      "type": "function"
    },
    {
      "inputs": [
        {
          "internalType": "uint256",
          "name": "",
          "type": "uint256"
        }
      ],
      "name": "newValueTimestamps",
      "outputs": [
        {
          "internalType": "uint256",
          "name": "",
          "type": "uint256"
        }
      ],
      "stateMutability": "view",
      "type": "function"
    },
    {
      "inputs": [
        {
          "internalType": "bytes32",
          "name": "",
          "type": "bytes32"
        }
      ],
      "name": "requestIdByQueryHash",
      "outputs": [
        {
          "internalType": "uint256",
          "name": "",
          "type": "uint256"
        }
      ],
      "stateMutability": "view",
      "type": "function"
    },
    {
      "inputs": [
        {
          "internalType": "address",
          "name": "_to",
          "type": "address"
        },
        {
          "internalType": "uint256",
          "name": "_amount",
          "type": "uint256"
        }
      ],
      "name": "transfer",
      "outputs": [
        {
          "internalType": "bool",
          "name": "success",
          "type": "bool"
        }
      ],
      "stateMutability": "nonpayable",
      "type": "function"
    },
    {
      "inputs": [
        {
          "internalType": "address",
          "name": "_from",
          "type": "address"
        },
        {
          "internalType": "address",
          "name": "_to",
          "type": "address"
        },
        {
          "internalType": "uint256",
          "name": "_amount",
          "type": "uint256"
        }
      ],
      "name": "transferFrom",
      "outputs": [
        {
          "internalType": "bool",
          "name": "success",
          "type": "bool"
        }
      ],
      "stateMutability": "nonpayable",
      "type": "function"
    },
    {
      "inputs": [
        {
          "internalType": "bytes32",
          "name": "",
          "type": "bytes32"
        }
      ],
      "name": "uints",
      "outputs": [
        {
          "internalType": "uint256",
          "name": "",
          "type": "uint256"
        }
      ],
      "stateMutability": "view",
      "type": "function"
    },
    {
      "stateMutability": "payable",
      "type": "receive"
    }
  ],
  "bytecode": "0x608060405234801561001057600080fd5b50610fee806100206000396000f3fe6080604052600436106101185760003560e01c80635700242c116100a0578063b59e14d411610064578063b59e14d4146103e9578063cbf1304d14610416578063d01f4d9e14610456578063db085beb14610483578063dd62ed3e1461054957610157565b80635700242c1461030157806362dd1d2a1461032e578063699f200f1461035b57806370a08231146103a9578063a9059cbb146103c957610157565b806340c10f19116100e757806340c10f1914610234578063438c0aa31461025657806348b18e54146102765780634ba0a5ee146102b15780634ee2cd7e146102e157610157565b8063024c2ddd1461015c578063095ea7b3146101a75780631fd22364146101d757806323b872dd1461021457610157565b3661015757604080513381523460208201527f88a5966d370b9919b20f3e2c13ff65706f196a4e32cc2c12bf57088f88525874910160405180910390a1005b600080fd5b34801561016857600080fd5b50610194610177366004610e30565b604a60209081526000928352604080842090915290825290205481565b6040519081526020015b60405180910390f35b3480156101b357600080fd5b506101c76101c2366004610e9d565b61058f565b604051901515815260200161019e565b3480156101e357600080fd5b506101f76101f2366004610ec6565b61065c565b604080519283526001600160a01b0390911660208301520161019e565b34801561022057600080fd5b506101c761022f366004610e62565b610687565b34801561024057600080fd5b5061025461024f366004610e9d565b61073d565b005b34801561026257600080fd5b50610194610271366004610ec6565b61074b565b34801561028257600080fd5b506101c7610291366004610ede565b603960209081526000928352604080842090915290825290205460ff1681565b3480156102bd57600080fd5b506101c76102cc366004610e0f565b604b6020526000908152604090205460ff1681565b3480156102ed57600080fd5b506101946102fc366004610e9d565b61076c565b34801561030d57600080fd5b5061019461031c366004610ec6565b60376020526000908152604090205481565b34801561033a57600080fd5b50610194610349366004610ec6565b60486020526000908152604090205481565b34801561036757600080fd5b50610391610376366004610ec6565b6047602052600090815260409020546001600160a01b031681565b6040516001600160a01b03909116815260200161019e565b3480156103b557600080fd5b506101946103c4366004610e0f565b6109d7565b3480156103d557600080fd5b506101c76103e4366004610e9d565b6109eb565b3480156103f557600080fd5b50610194610404366004610ec6565b60466020526000908152604090205481565b34801561042257600080fd5b50610436610431366004610e9d565b610a01565b604080516001600160801b0393841681529290911660208301520161019e565b34801561046257600080fd5b50610194610471366004610ec6565b60386020526000908152604090205481565b34801561048f57600080fd5b506104fa61049e366004610ec6565b603660205260009081526040902080546001820154600283015460038401546004909401549293919260ff808316936101008404821693620100008104909216926001600160a01b036301000000909304831692918216911688565b604080519889526020890197909752941515958701959095529115156060860152151560808501526001600160a01b0390811660a085015291821660c08401521660e08201526101000161019e565b34801561055557600080fd5b50610194610564366004610e30565b6001600160a01b039182166000908152604a6020908152604080832093909416825291909152205490565b60006001600160a01b0383166105f75760405162461bcd60e51b815260206004820152602260248201527f45524332303a20617070726f766520746f20746865207a65726f206164647265604482015261737360f01b60648201526084015b60405180910390fd5b336000818152604a602090815260408083206001600160a01b03881680855290835292819020869055518581529192917f8c5be1e5ebec7d5bd14f71427d1e84f3dd0314c0f7b2291e5b200ac8c7c3b925910160405180910390a35060015b92915050565b603a816005811061066c57600080fd5b6002020180546001909101549091506001600160a01b031682565b6001600160a01b0383166000908152604a602090815260408083203384529091528120548211156106ef5760405162461bcd60e51b8152602060048201526012602482015271416c6c6f77616e63652069732077726f6e6760701b60448201526064016105ee565b6001600160a01b0384166000908152604a6020908152604080832033845290915281208054849290610722908490610f8b565b909155506107339050848484610a44565b5060019392505050565b6107478282610b77565b5050565b6033818154811061075b57600080fd5b600091825260209091200154905081565b6001600160a01b0382166000908152604960205260408120805415806107c6575082816000815481106107af57634e487b7160e01b600052603260045260246000fd5b6000918252602090912001546001600160801b0316115b156107d5576000915050610656565b805481906107e590600190610f8b565b8154811061080357634e487b7160e01b600052603260045260246000fd5b6000918252602090912001546001600160801b03168310610871578054819061082e90600190610f8b565b8154811061084c57634e487b7160e01b600052603260045260246000fd5b600091825260209091200154600160801b90046001600160801b031691506106569050565b8054600090819061088490600290610f8b565b90505b81811115610990576000600261089d8484610f2b565b6108a8906001610f2b565b6108b29190610f43565b9050858482815481106108d557634e487b7160e01b600052603260045260246000fd5b6000918252602090912001546001600160801b031614156109385783818154811061091057634e487b7160e01b600052603260045260246000fd5b600091825260209091200154600160801b90046001600160801b031694506106569350505050565b8584828154811061095957634e487b7160e01b600052603260045260246000fd5b6000918252602090912001546001600160801b0316101561097c5780925061098a565b610987600182610f8b565b91505b50610887565b8282815481106109b057634e487b7160e01b600052603260045260246000fd5b600091825260209091200154600160801b90046001600160801b0316935061065692505050565b60006109e3824361076c565b90505b919050565b60006109f8338484610a44565b50600192915050565b60496020528160005260406000208181548110610a1d57600080fd5b6000918252602090912001546001600160801b038082169350600160801b90910416905082565b80610a9b5760405162461bcd60e51b815260206004820152602160248201527f547269656420746f2073656e64206e6f6e2d706f73697469766520616d6f756e6044820152601d60fa1b60648201526084016105ee565b6001600160a01b038216610ae95760405162461bcd60e51b815260206004820152601560248201527452656365697665722069732030206164647265737360581b60448201526064016105ee565b6000610af4846109d7565b905081610b0a85610b058385610f63565b610ce3565b610b13846109d7565b9150610b2384610b058385610f00565b836001600160a01b0316856001600160a01b03167fddf252ad1be2c89b69c2b068fc378daa952ba7f163c4a11628f55a4df523b3ef85604051610b6891815260200190565b60405180910390a35050505050565b80610bce5760405162461bcd60e51b815260206004820152602160248201527f547269656420746f206d696e74206e6f6e2d706f73697469766520616d6f756e6044820152601d60fa1b60648201526084016105ee565b6001600160a01b038216610c1c5760405162461bcd60e51b815260206004820152601560248201527452656365697665722069732030206164647265737360581b60448201526064016105ee565b6000610c27836109d7565b7fe6148e7230ca038d456350e69a91b66968b222bfac9ebfbea6ff0a1fb7380160600090815260466020527ffffeead1ec15181fd57b4590d95e0c076bccb59e311315e8b38f23c710aa7c3e80549293508492839290610c88908490610f2b565b90915550610c9c905084610b058385610f00565b6040518381526001600160a01b038516906000907fddf252ad1be2c89b69c2b068fc378daa952ba7f163c4a11628f55a4df523b3ef9060200160405180910390a350505050565b6001600160a01b038216600090815260496020526040902080541580610d4c5750805443908290610d1690600190610f8b565b81548110610d3457634e487b7160e01b600052603260045260246000fd5b6000918252602090912001546001600160801b031614155b15610d9d57604080518082019091526001600160801b03438116825283811660208084019182528454600181018655600086815291909120935191518316600160801b029190921617910155610df3565b80546000908290610db090600190610f8b565b81548110610dce57634e487b7160e01b600052603260045260246000fd5b600091825260209091200180546001600160801b03808616600160801b029116179055505b505050565b80356001600160a01b03811681146109e657600080fd5b600060208284031215610e20578081fd5b610e2982610df8565b9392505050565b60008060408385031215610e42578081fd5b610e4b83610df8565b9150610e5960208401610df8565b90509250929050565b600080600060608486031215610e76578081fd5b610e7f84610df8565b9250610e8d60208501610df8565b9150604084013590509250925092565b60008060408385031215610eaf578182fd5b610eb883610df8565b946020939093013593505050565b600060208284031215610ed7578081fd5b5035919050565b60008060408385031215610ef0578182fd5b82359150610e5960208401610df8565b60006001600160801b03808316818516808303821115610f2257610f22610fa2565b01949350505050565b60008219821115610f3e57610f3e610fa2565b500190565b600082610f5e57634e487b7160e01b81526012600452602481fd5b500490565b60006001600160801b0383811690831681811015610f8357610f83610fa2565b039392505050565b600082821015610f9d57610f9d610fa2565b500390565b634e487b7160e01b600052601160045260246000fdfea2646970667358221220ec647af445d1ac5911c9aa5d7fde072921296212cabbf91f52a9889ee2b4bf0164736f6c63430008030033",
  "linkReferences": {},
  "deployedLinkReferences": {}
}