{
  "_format": "hh-sol-artifact-1",
  "contractName": "TestToken",
  "sourceName": "contracts/oldContracts/contracts/testing/TestToken.sol",
  "abi": [
    {
      "anonymous": false,
      "inputs": [
        {
          "indexed": true,
          "internalType": "address",
          "name": "_owner",
          "type": "address"
        },
        {
          "indexed": true,
          "internalType": "address",
          "name": "_spender",
          "type": "address"
        },
        {
          "indexed": false,
          "internalType": "uint256",
          "name": "_value",
          "type": "uint256"
        }
      ],
      "name": "Approval",
      "type": "event"
    },
    {
      "anonymous": false,
      "inputs": [
        {
          "indexed": false,
          "internalType": "address",
          "name": "",
          "type": "address"
        },
        {
          "indexed": false,
          "internalType": "uint256",
          "name": "",
          "type": "uint256"
        }
      ],
      "name": "Received",
      "type": "event"
    },
    {
      "anonymous": false,
      "inputs": [
        {
          "indexed": true,
          "internalType": "address",
          "name": "_from",
          "type": "address"
        },
        {
          "indexed": true,
          "internalType": "address",
          "name": "_to",
          "type": "address"
        },
        {
          "indexed": false,
          "internalType": "uint256",
          "name": "_value",
          "type": "uint256"
        }
      ],
      "name": "Transfer",
      "type": "event"
    },
    {
      "inputs": [
        {
          "internalType": "address",
          "name": "",
          "type": "address"
        },
        {
          "internalType": "address",
          "name": "",
          "type": "address"
        }
      ],
      "name": "_allowances",
      "outputs": [
        {
          "internalType": "uint256",
          "name": "",
          "type": "uint256"
        }
      ],
      "stateMutability": "view",
      "type": "function"
    },
    {
      "inputs": [
        {
          "internalType": "bytes32",
          "name": "",
          "type": "bytes32"
        }
      ],
      "name": "addresses",
      "outputs": [
        {
          "internalType": "address",
          "name": "",
          "type": "address"
        }
      ],
      "stateMutability": "view",
      "type": "function"
    },
    {
      "inputs": [
        {
          "internalType": "address",
          "name": "_user",
          "type": "address"
        },
        {
          "internalType": "address",
          "name": "_spender",
          "type": "address"
        }
      ],
      "name": "allowance",
      "outputs": [
        {
          "internalType": "uint256",
          "name": "",
          "type": "uint256"
        }
      ],
      "stateMutability": "view",
      "type": "function"
    },
    {
      "inputs": [
        {
          "internalType": "address",
          "name": "_user",
          "type": "address"
        },
        {
          "internalType": "uint256",
          "name": "_amount",
          "type": "uint256"
        }
      ],
      "name": "allowedToTrade",
      "outputs": [
        {
          "internalType": "bool",
          "name": "",
          "type": "bool"
        }
      ],
      "stateMutability": "view",
      "type": "function"
    },
    {
      "inputs": [
        {
          "internalType": "address",
          "name": "_spender",
          "type": "address"
        },
        {
          "internalType": "uint256",
          "name": "_amount",
          "type": "uint256"
        }
      ],
      "name": "approve",
      "outputs": [
        {
          "internalType": "bool",
          "name": "",
          "type": "bool"
        }
      ],
      "stateMutability": "nonpayable",
      "type": "function"
    },
    {
      "inputs": [
        {
          "internalType": "address",
          "name": "_from",
          "type": "address"
        },
        {
          "internalType": "address",
          "name": "_to",
          "type": "address"
        },
        {
          "internalType": "uint256",
          "name": "_amount",
          "type": "uint256"
        }
      ],
      "name": "approveAndTransferFrom",
      "outputs": [
        {
          "internalType": "bool",
          "name": "",
          "type": "bool"
        }
      ],
      "stateMutability": "nonpayable",
      "type": "function"
    },
    {
      "inputs": [
        {
          "internalType": "address",
          "name": "_user",
          "type": "address"
        }
      ],
      "name": "balanceOf",
      "outputs": [
        {
          "internalType": "uint256",
          "name": "",
          "type": "uint256"
        }
      ],
      "stateMutability": "view",
      "type": "function"
    },
    {
      "inputs": [
        {
          "internalType": "address",
          "name": "_user",
          "type": "address"
        },
        {
          "internalType": "uint256",
          "name": "_blockNumber",
          "type": "uint256"
        }
      ],
      "name": "balanceOfAt",
      "outputs": [
        {
          "internalType": "uint256",
          "name": "",
          "type": "uint256"
        }
      ],
      "stateMutability": "view",
      "type": "function"
    },
    {
      "inputs": [
        {
          "internalType": "address",
          "name": "",
          "type": "address"
        },
        {
          "internalType": "uint256",
          "name": "",
          "type": "uint256"
        }
      ],
      "name": "balances",
      "outputs": [
        {
          "internalType": "uint128",
          "name": "fromBlock",
          "type": "uint128"
        },
        {
          "internalType": "uint128",
          "name": "value",
          "type": "uint128"
        }
      ],
      "stateMutability": "view",
      "type": "function"
    },
    {
      "inputs": [
        {
          "internalType": "uint256",
          "name": "_amount",
          "type": "uint256"
        }
      ],
      "name": "burn",
      "outputs": [],
      "stateMutability": "nonpayable",
      "type": "function"
    },
    {
      "inputs": [
        {
          "internalType": "bytes32",
          "name": "",
          "type": "bytes32"
        }
      ],
      "name": "bytesVars",
      "outputs": [
        {
          "internalType": "bytes32",
          "name": "",
          "type": "bytes32"
        }
      ],
      "stateMutability": "view",
      "type": "function"
    },
    {
      "inputs": [
        {
          "internalType": "uint256",
          "name": "",
          "type": "uint256"
        }
      ],
      "name": "currentMiners",
      "outputs": [
        {
          "internalType": "uint256",
          "name": "value",
          "type": "uint256"
        },
        {
          "internalType": "address",
          "name": "miner",
          "type": "address"
        }
      ],
      "stateMutability": "view",
      "type": "function"
    },
    {
      "inputs": [
        {
          "internalType": "bytes32",
          "name": "",
          "type": "bytes32"
        }
      ],
      "name": "disputeIdByDisputeHash",
      "outputs": [
        {
          "internalType": "uint256",
          "name": "",
          "type": "uint256"
        }
      ],
      "stateMutability": "view",
      "type": "function"
    },
    {
      "inputs": [
        {
          "internalType": "uint256",
          "name": "",
          "type": "uint256"
        }
      ],
      "name": "disputesById",
      "outputs": [
        {
          "internalType": "bytes32",
          "name": "hash",
          "type": "bytes32"
        },
        {
          "internalType": "int256",
          "name": "tally",
          "type": "int256"
        },
        {
          "internalType": "bool",
          "name": "executed",
          "type": "bool"
        },
        {
          "internalType": "bool",
          "name": "disputeVotePassed",
          "type": "bool"
        },
        {
          "internalType": "bool",
          "name": "isPropFork",
          "type": "bool"
        },
        {
          "internalType": "address",
          "name": "reportedMiner",
          "type": "address"
        },
        {
          "internalType": "address",
          "name": "reportingParty",
          "type": "address"
        },
        {
          "internalType": "address",
          "name": "proposedForkAddress",
          "type": "address"
        }
      ],
      "stateMutability": "view",
      "type": "function"
    },
    {
      "inputs": [
        {
          "internalType": "address",
          "name": "",
          "type": "address"
        }
      ],
      "name": "migrated",
      "outputs": [
        {
          "internalType": "bool",
          "name": "",
          "type": "bool"
        }
      ],
      "stateMutability": "view",
      "type": "function"
    },
    {
      "inputs": [
        {
          "internalType": "bytes32",
          "name": "",
          "type": "bytes32"
        },
        {
          "internalType": "address",
          "name": "",
          "type": "address"
        }
      ],
      "name": "minersByChallenge",
      "outputs": [
        {
          "internalType": "bool",
          "name": "",
          "type": "bool"
        }
      ],
      "stateMutability": "view",
      "type": "function"
    },
    {
      "inputs": [
        {
          "internalType": "address",
          "name": "_to",
          "type": "address"
        },
        {
          "internalType": "uint256",
          "name": "_amount",
          "type": "uint256"
        }
      ],
      "name": "mint",
      "outputs": [],
      "stateMutability": "nonpayable",
      "type": "function"
    },
    {
      "inputs": [
        {
          "internalType": "uint256",
          "name": "",
          "type": "uint256"
        }
      ],
      "name": "newValueTimestamps",
      "outputs": [
        {
          "internalType": "uint256",
          "name": "",
          "type": "uint256"
        }
      ],
      "stateMutability": "view",
      "type": "function"
    },
    {
      "inputs": [
        {
          "internalType": "bytes32",
          "name": "",
          "type": "bytes32"
        }
      ],
      "name": "requestIdByQueryHash",
      "outputs": [
        {
          "internalType": "uint256",
          "name": "",
          "type": "uint256"
        }
      ],
      "stateMutability": "view",
      "type": "function"
    },
    {
      "inputs": [
        {
          "internalType": "address",
          "name": "_to",
          "type": "address"
        },
        {
          "internalType": "uint256",
          "name": "_amount",
          "type": "uint256"
        }
      ],
      "name": "transfer",
      "outputs": [
        {
          "internalType": "bool",
          "name": "success",
          "type": "bool"
        }
      ],
      "stateMutability": "nonpayable",
      "type": "function"
    },
    {
      "inputs": [
        {
          "internalType": "address",
          "name": "_from",
          "type": "address"
        },
        {
          "internalType": "address",
          "name": "_to",
          "type": "address"
        },
        {
          "internalType": "uint256",
          "name": "_amount",
          "type": "uint256"
        }
      ],
      "name": "transferFrom",
      "outputs": [
        {
          "internalType": "bool",
          "name": "success",
          "type": "bool"
        }
      ],
      "stateMutability": "nonpayable",
      "type": "function"
    },
    {
      "inputs": [
        {
          "internalType": "bytes32",
          "name": "",
          "type": "bytes32"
        }
      ],
      "name": "uints",
      "outputs": [
        {
          "internalType": "uint256",
          "name": "",
          "type": "uint256"
        }
      ],
      "stateMutability": "view",
      "type": "function"
    },
    {
      "stateMutability": "payable",
      "type": "receive"
    }
  ],
  "bytecode": "0x608060405234801561001057600080fd5b506114b2806100206000396000f3fe6080604052600436106101595760003560e01c80635700242c116100bb578063a9059cbb1161007f578063d01f4d9e11610059578063d01f4d9e146104f7578063db085beb14610524578063dd62ed3e146105ea57610198565b8063a9059cbb1461046a578063b59e14d41461048a578063cbf1304d146104b757610198565b80635700242c1461038257806362dd1d2a146103af578063699f200f146103dc57806370a082311461042a578063999cf26c1461044a57610198565b806340c10f191161011d57806348b18e54116100f757806348b18e54146102f75780634ba0a5ee146103325780634ee2cd7e1461036257610198565b806340c10f191461029557806342966c68146102b7578063438c0aa3146102d757610198565b8063024c2ddd1461019d578063095ea7b3146101e85780631fd223641461021857806323b872dd14610255578063288c9c9d1461027557610198565b3661019857604080513381523460208201527f88a5966d370b9919b20f3e2c13ff65706f196a4e32cc2c12bf57088f88525874910160405180910390a1005b600080fd5b3480156101a957600080fd5b506101d56101b836600461128d565b604a60209081526000928352604080842090915290825290205481565b6040519081526020015b60405180910390f35b3480156101f457600080fd5b506102086102033660046112fa565b610630565b60405190151581526020016101df565b34801561022457600080fd5b50610238610233366004611343565b6106fd565b604080519283526001600160a01b039091166020830152016101df565b34801561026157600080fd5b506102086102703660046112bf565b610728565b34801561028157600080fd5b506102086102903660046112bf565b6107de565b3480156102a157600080fd5b506102b56102b03660046112fa565b6109f4565b005b3480156102c357600080fd5b506102b56102d2366004611343565b610a02565b3480156102e357600080fd5b506101d56102f2366004611343565b610a0f565b34801561030357600080fd5b5061020861031236600461135b565b603960209081526000928352604080842090915290825290205460ff1681565b34801561033e57600080fd5b5061020861034d36600461126c565b604b6020526000908152604090205460ff1681565b34801561036e57600080fd5b506101d561037d3660046112fa565b610a30565b34801561038e57600080fd5b506101d561039d366004611343565b60376020526000908152604090205481565b3480156103bb57600080fd5b506101d56103ca366004611343565b60486020526000908152604090205481565b3480156103e857600080fd5b506104126103f7366004611343565b6047602052600090815260409020546001600160a01b031681565b6040516001600160a01b0390911681526020016101df565b34801561043657600080fd5b506101d561044536600461126c565b610c9b565b34801561045657600080fd5b506102086104653660046112fa565b610caf565b34801561047657600080fd5b506102086104853660046112fa565b610d6f565b34801561049657600080fd5b506101d56104a5366004611343565b60466020526000908152604090205481565b3480156104c357600080fd5b506104d76104d23660046112fa565b610d85565b604080516001600160801b039384168152929091166020830152016101df565b34801561050357600080fd5b506101d5610512366004611343565b60386020526000908152604090205481565b34801561053057600080fd5b5061059b61053f366004611343565b603660205260009081526040902080546001820154600283015460038401546004909401549293919260ff808316936101008404821693620100008104909216926001600160a01b036301000000909304831692918216911688565b604080519889526020890197909752941515958701959095529115156060860152151560808501526001600160a01b0390811660a085015291821660c08401521660e0820152610100016101df565b3480156105f657600080fd5b506101d561060536600461128d565b6001600160a01b039182166000908152604a6020908152604080832093909416825291909152205490565b60006001600160a01b0383166106985760405162461bcd60e51b815260206004820152602260248201527f45524332303a20617070726f766520746f20746865207a65726f206164647265604482015261737360f01b60648201526084015b60405180910390fd5b336000818152604a602090815260408083206001600160a01b03881680855290835292819020869055518581529192917f8c5be1e5ebec7d5bd14f71427d1e84f3dd0314c0f7b2291e5b200ac8c7c3b925910160405180910390a35060015b92915050565b603a816005811061070d57600080fd5b6002020180546001909101549091506001600160a01b031682565b6001600160a01b0383166000908152604a602090815260408083203384529091528120548211156107905760405162461bcd60e51b8152602060048201526012602482015271416c6c6f77616e63652069732077726f6e6760701b604482015260640161068f565b6001600160a01b0384166000908152604a60209081526040808320338452909152812080548492906107c390849061144f565b909155506107d49050848484610dc8565b5060019392505050565b7fefa19baa864049f50491093580c5433e97e8d5e41f8db1a61108b4fa44cacd93600090815260476020527f7d9ee2aaccfe8f70172569ff913448023f3ddb672f2bd893709418983f3ec22d54604051637e98b8d960e11b81523360048201526001600160a01b039091169063fd3171b29060240160206040518083038186803b15801561086b57600080fd5b505afa15801561087f573d6000803e3d6000fd5b505050506040513d601f19601f820116820180604052508101906108a39190611323565b8061090057507f1436a1a60dca0ebb2be98547e57992a0fa082eb479e7576303cbd384e934f1fa60005260476020527fdff38f4be09d4d5ca93ca85b25c70a2df93aeb79f23032ad60429718dab8fd0d546001600160a01b031633145b8061095d57507ffa522e460446113e8fd353d7fa015625a68bc0369712213a42e006346440891e60005260476020527fef4ea54b5b61165ffc2ef656b4303b6e25d2ec33cc6bc62f39864cc7b0cfe7b5546001600160a01b031633145b6109e95760405162461bcd60e51b815260206004820152605160248201527f4f6e6c792074686520476f7665726e616e63652c2054726561737572792c206f60448201527f72204f7261636c6520436f6e74726163742063616e20617070726f766520616e60648201527064207472616e7366657220746f6b656e7360781b608482015260a40161068f565b6107d4848484610dc8565b6109fe8282610f21565b5050565b610a0c338261108d565b50565b60338181548110610a1f57600080fd5b600091825260209091200154905081565b6001600160a01b038216600090815260496020526040812080541580610a8a57508281600081548110610a7357634e487b7160e01b600052603260045260246000fd5b6000918252602090912001546001600160801b0316115b15610a995760009150506106f7565b80548190610aa99060019061144f565b81548110610ac757634e487b7160e01b600052603260045260246000fd5b6000918252602090912001546001600160801b03168310610b355780548190610af29060019061144f565b81548110610b1057634e487b7160e01b600052603260045260246000fd5b600091825260209091200154600160801b90046001600160801b031691506106f79050565b80546000908190610b489060029061144f565b90505b81811115610c545760006002610b6184846113ef565b610b6c9060016113ef565b610b769190611407565b905085848281548110610b9957634e487b7160e01b600052603260045260246000fd5b6000918252602090912001546001600160801b03161415610bfc57838181548110610bd457634e487b7160e01b600052603260045260246000fd5b600091825260209091200154600160801b90046001600160801b031694506106f79350505050565b85848281548110610c1d57634e487b7160e01b600052603260045260246000fd5b6000918252602090912001546001600160801b03161015610c4057809250610c4e565b610c4b60018261144f565b91505b50610b4b565b828281548110610c7457634e487b7160e01b600052603260045260246000fd5b600091825260209091200154600160801b90046001600160801b031693506106f792505050565b6000610ca78243610a30565b90505b919050565b6001600160a01b03821660009081526044602052604081205415801590610cee57506001600160a01b0383166000908152604460205260409020546005115b15610d5c577f5d9fadfc729fd027e395e5157ef1b53ef9fa4a8f053043c5f159307543e7cc9760005260466020527f167af83a0768d27540775cfef6d996eb63f8a61fcdfb26e654c18fb50960e3be548290610d4985610c9b565b610d53919061144f565b101590506106f7565b81610d6684610c9b565b10159392505050565b6000610d7c338484610dc8565b50600192915050565b60496020528160005260406000208181548110610da157600080fd5b6000918252602090912001546001600160801b038082169350600160801b90910416905082565b80610e1f5760405162461bcd60e51b815260206004820152602160248201527f547269656420746f2073656e64206e6f6e2d706f73697469766520616d6f756e6044820152601d60fa1b606482015260840161068f565b6001600160a01b038216610e6d5760405162461bcd60e51b815260206004820152601560248201527452656365697665722069732030206164647265737360581b604482015260640161068f565b610e778382610caf565b610e935760405162461bcd60e51b815260040161068f9061137d565b6000610e9e84610c9b565b905081610eb485610eaf8385611427565b611140565b610ebd84610c9b565b9150610ecd84610eaf83856113c4565b836001600160a01b0316856001600160a01b03167fddf252ad1be2c89b69c2b068fc378daa952ba7f163c4a11628f55a4df523b3ef85604051610f1291815260200190565b60405180910390a35050505050565b80610f785760405162461bcd60e51b815260206004820152602160248201527f547269656420746f206d696e74206e6f6e2d706f73697469766520616d6f756e6044820152601d60fa1b606482015260840161068f565b6001600160a01b038216610fc65760405162461bcd60e51b815260206004820152601560248201527452656365697665722069732030206164647265737360581b604482015260640161068f565b6000610fd183610c9b565b7fe6148e7230ca038d456350e69a91b66968b222bfac9ebfbea6ff0a1fb7380160600090815260466020527ffffeead1ec15181fd57b4590d95e0c076bccb59e311315e8b38f23c710aa7c3e805492935084928392906110329084906113ef565b90915550611046905084610eaf83856113c4565b6040518381526001600160a01b038516906000907fddf252ad1be2c89b69c2b068fc378daa952ba7f163c4a11628f55a4df523b3ef9060200160405180910390a350505050565b80611097576109fe565b6110a18282610caf565b6110bd5760405162461bcd60e51b815260040161068f9061137d565b60006110c883610c9b565b9050816110d984610eaf8385611427565b7fe6148e7230ca038d456350e69a91b66968b222bfac9ebfbea6ff0a1fb7380160600090815260466020527ffffeead1ec15181fd57b4590d95e0c076bccb59e311315e8b38f23c710aa7c3e805485929061113590849061144f565b909155505050505050565b6001600160a01b0382166000908152604960205260409020805415806111a957508054439082906111739060019061144f565b8154811061119157634e487b7160e01b600052603260045260246000fd5b6000918252602090912001546001600160801b031614155b156111fa57604080518082019091526001600160801b03438116825283811660208084019182528454600181018655600086815291909120935191518316600160801b029190921617910155611250565b8054600090829061120d9060019061144f565b8154811061122b57634e487b7160e01b600052603260045260246000fd5b600091825260209091200180546001600160801b03808616600160801b029116179055505b505050565b80356001600160a01b0381168114610caa57600080fd5b60006020828403121561127d578081fd5b61128682611255565b9392505050565b6000806040838503121561129f578081fd5b6112a883611255565b91506112b660208401611255565b90509250929050565b6000806000606084860312156112d3578081fd5b6112dc84611255565b92506112ea60208501611255565b9150604084013590509250925092565b6000806040838503121561130c578182fd5b61131583611255565b946020939093013593505050565b600060208284031215611334578081fd5b81518015158114611286578182fd5b600060208284031215611354578081fd5b5035919050565b6000806040838503121561136d578182fd5b823591506112b660208401611255565b60208082526027908201527f53686f756c6420686176652073756666696369656e742062616c616e636520746040820152666f20747261646560c81b606082015260800190565b60006001600160801b038083168185168083038211156113e6576113e6611466565b01949350505050565b6000821982111561140257611402611466565b500190565b60008261142257634e487b7160e01b81526012600452602481fd5b500490565b60006001600160801b038381169083168181101561144757611447611466565b039392505050565b60008282101561146157611461611466565b500390565b634e487b7160e01b600052601160045260246000fdfea264697066735822122069699930802d235aa4fe0d2ed1b646dfd31fad7014ce5313962e3772d4aec0fe64736f6c63430008030033",
  "linkReferences": {},
  "deployedLinkReferences": {}
}