{
  "_format": "hh-sol-artifact-1",
  "contractName": "Tellor360",
  "sourceName": "contracts/Tellor360.sol",
  "abi": [
    {
      "anonymous": false,
      "inputs": [
        {
          "indexed": true,
          "internalType": "address",
          "name": "_owner",
          "type": "address"
        },
        {
          "indexed": true,
          "internalType": "address",
          "name": "_spender",
          "type": "address"
        },
        {
          "indexed": false,
          "internalType": "uint256",
          "name": "_value",
          "type": "uint256"
        }
      ],
      "name": "Approval",
      "type": "event"
    },
    {
      "anonymous": false,
      "inputs": [
        {
          "indexed": false,
          "internalType": "address",
          "name": "_newContract",
          "type": "address"
        },
        {
          "indexed": false,
          "internalType": "string",
          "name": "_contractName",
          "type": "string"
        }
      ],
      "name": "NewContractAddress",
      "type": "event"
    },
    {
      "anonymous": false,
      "inputs": [
        {
          "indexed": true,
          "internalType": "address",
          "name": "_from",
          "type": "address"
        },
        {
          "indexed": true,
          "internalType": "address",
          "name": "_to",
          "type": "address"
        },
        {
          "indexed": false,
          "internalType": "uint256",
          "name": "_value",
          "type": "uint256"
        }
      ],
      "name": "Transfer",
      "type": "event"
    },
    {
      "inputs": [
        {
          "internalType": "address",
          "name": "",
          "type": "address"
        },
        {
          "internalType": "address",
          "name": "",
          "type": "address"
        }
      ],
      "name": "_allowances",
      "outputs": [
        {
          "internalType": "uint256",
          "name": "",
          "type": "uint256"
        }
      ],
      "stateMutability": "view",
      "type": "function"
    },
    {
      "inputs": [
        {
          "internalType": "bytes",
          "name": "_b",
          "type": "bytes"
        }
      ],
      "name": "_sliceUint",
      "outputs": [
        {
          "internalType": "uint256",
          "name": "_x",
          "type": "uint256"
        }
      ],
      "stateMutability": "pure",
      "type": "function"
    },
    {
      "inputs": [
        {
          "internalType": "bytes32",
          "name": "",
          "type": "bytes32"
        }
      ],
      "name": "addresses",
      "outputs": [
        {
          "internalType": "address",
          "name": "",
          "type": "address"
        }
      ],
      "stateMutability": "view",
      "type": "function"
    },
    {
      "inputs": [
        {
          "internalType": "address",
          "name": "_user",
          "type": "address"
        },
        {
          "internalType": "address",
          "name": "_spender",
          "type": "address"
        }
      ],
      "name": "allowance",
      "outputs": [
        {
          "internalType": "uint256",
          "name": "",
          "type": "uint256"
        }
      ],
      "stateMutability": "view",
      "type": "function"
    },
    {
      "inputs": [
        {
          "internalType": "address",
          "name": "_spender",
          "type": "address"
        },
        {
          "internalType": "uint256",
          "name": "_amount",
          "type": "uint256"
        }
      ],
      "name": "approve",
      "outputs": [
        {
          "internalType": "bool",
          "name": "",
          "type": "bool"
        }
      ],
      "stateMutability": "nonpayable",
      "type": "function"
    },
    {
      "inputs": [
        {
          "internalType": "address",
          "name": "_user",
          "type": "address"
        }
      ],
      "name": "balanceOf",
      "outputs": [
        {
          "internalType": "uint256",
          "name": "",
          "type": "uint256"
        }
      ],
      "stateMutability": "view",
      "type": "function"
    },
    {
      "inputs": [
        {
          "internalType": "address",
          "name": "_user",
          "type": "address"
        },
        {
          "internalType": "uint256",
          "name": "_blockNumber",
          "type": "uint256"
        }
      ],
      "name": "balanceOfAt",
      "outputs": [
        {
          "internalType": "uint256",
          "name": "",
          "type": "uint256"
        }
      ],
      "stateMutability": "view",
      "type": "function"
    },
    {
      "inputs": [
        {
          "internalType": "address",
          "name": "",
          "type": "address"
        },
        {
          "internalType": "uint256",
          "name": "",
          "type": "uint256"
        }
      ],
      "name": "balances",
      "outputs": [
        {
          "internalType": "uint128",
          "name": "fromBlock",
          "type": "uint128"
        },
        {
          "internalType": "uint128",
          "name": "value",
          "type": "uint128"
        }
      ],
      "stateMutability": "view",
      "type": "function"
    },
    {
      "inputs": [
        {
          "internalType": "bytes32",
          "name": "",
          "type": "bytes32"
        }
      ],
      "name": "bytesVars",
      "outputs": [
        {
          "internalType": "bytes32",
          "name": "",
          "type": "bytes32"
        }
      ],
      "stateMutability": "view",
      "type": "function"
    },
    {
      "inputs": [
        {
          "internalType": "address",
          "name": "_newGovernance",
          "type": "address"
        }
      ],
      "name": "changeGovernanceContract",
      "outputs": [],
      "stateMutability": "nonpayable",
      "type": "function"
    },
    {
      "inputs": [
        {
          "internalType": "uint256",
          "name": "",
          "type": "uint256"
        }
      ],
      "name": "currentMiners",
      "outputs": [
        {
          "internalType": "uint256",
          "name": "value",
          "type": "uint256"
        },
        {
          "internalType": "address",
          "name": "miner",
          "type": "address"
        }
      ],
      "stateMutability": "view",
      "type": "function"
    },
    {
      "inputs": [],
      "name": "decimals",
      "outputs": [
        {
          "internalType": "uint8",
          "name": "",
          "type": "uint8"
        }
      ],
      "stateMutability": "pure",
      "type": "function"
    },
    {
      "inputs": [
        {
          "internalType": "bytes32",
          "name": "",
          "type": "bytes32"
        }
      ],
      "name": "disputeIdByDisputeHash",
      "outputs": [
        {
          "internalType": "uint256",
          "name": "",
          "type": "uint256"
        }
      ],
      "stateMutability": "view",
      "type": "function"
    },
    {
      "inputs": [
        {
          "internalType": "uint256",
          "name": "",
          "type": "uint256"
        }
      ],
      "name": "disputesById",
      "outputs": [
        {
          "internalType": "bytes32",
          "name": "hash",
          "type": "bytes32"
        },
        {
          "internalType": "int256",
          "name": "tally",
          "type": "int256"
        },
        {
          "internalType": "bool",
          "name": "executed",
          "type": "bool"
        },
        {
          "internalType": "bool",
          "name": "disputeVotePassed",
          "type": "bool"
        },
        {
          "internalType": "bool",
          "name": "isPropFork",
          "type": "bool"
        },
        {
          "internalType": "address",
          "name": "reportedMiner",
          "type": "address"
        },
        {
          "internalType": "address",
          "name": "reportingParty",
          "type": "address"
        },
        {
          "internalType": "address",
          "name": "proposedForkAddress",
          "type": "address"
        }
      ],
      "stateMutability": "view",
      "type": "function"
    },
    {
      "inputs": [
        {
          "internalType": "bytes32",
          "name": "_data",
          "type": "bytes32"
        }
      ],
      "name": "getAddressVars",
      "outputs": [
        {
          "internalType": "address",
          "name": "",
          "type": "address"
        }
      ],
      "stateMutability": "view",
      "type": "function"
    },
    {
      "inputs": [
        {
          "internalType": "uint256",
          "name": "_disputeId",
          "type": "uint256"
        }
      ],
      "name": "getAllDisputeVars",
      "outputs": [
        {
          "internalType": "bytes32",
          "name": "",
          "type": "bytes32"
        },
        {
          "internalType": "bool",
          "name": "",
          "type": "bool"
        },
        {
          "internalType": "bool",
          "name": "",
          "type": "bool"
        },
        {
          "internalType": "bool",
          "name": "",
          "type": "bool"
        },
        {
          "internalType": "address",
          "name": "",
          "type": "address"
        },
        {
          "internalType": "address",
          "name": "",
          "type": "address"
        },
        {
          "internalType": "address",
          "name": "",
          "type": "address"
        },
        {
          "internalType": "uint256[9]",
          "name": "",
          "type": "uint256[9]"
        },
        {
          "internalType": "int256",
          "name": "",
          "type": "int256"
        }
      ],
      "stateMutability": "view",
      "type": "function"
    },
    {
      "inputs": [
        {
          "internalType": "bytes32",
          "name": "_hash",
          "type": "bytes32"
        }
      ],
      "name": "getDisputeIdByDisputeHash",
      "outputs": [
        {
          "internalType": "uint256",
          "name": "",
          "type": "uint256"
        }
      ],
      "stateMutability": "view",
      "type": "function"
    },
    {
      "inputs": [
        {
          "internalType": "uint256",
          "name": "_disputeId",
          "type": "uint256"
        },
        {
          "internalType": "bytes32",
          "name": "_data",
          "type": "bytes32"
        }
      ],
      "name": "getDisputeUintVars",
      "outputs": [
        {
          "internalType": "uint256",
          "name": "",
          "type": "uint256"
        }
      ],
      "stateMutability": "view",
      "type": "function"
    },
    {
      "inputs": [
        {
          "internalType": "uint256",
          "name": "_requestId",
          "type": "uint256"
        }
      ],
      "name": "getLastNewValueById",
      "outputs": [
        {
          "internalType": "uint256",
          "name": "",
          "type": "uint256"
        },
        {
          "internalType": "bool",
          "name": "",
          "type": "bool"
        }
      ],
      "stateMutability": "view",
      "type": "function"
    },
    {
      "inputs": [],
      "name": "getNewCurrentVariables",
      "outputs": [
        {
          "internalType": "bytes32",
          "name": "_c",
          "type": "bytes32"
        },
        {
          "internalType": "uint256[5]",
          "name": "_r",
          "type": "uint256[5]"
        },
        {
          "internalType": "uint256",
          "name": "_diff",
          "type": "uint256"
        },
        {
          "internalType": "uint256",
          "name": "_tip",
          "type": "uint256"
        }
      ],
      "stateMutability": "view",
      "type": "function"
    },
    {
      "inputs": [
        {
          "internalType": "uint256",
          "name": "_requestId",
          "type": "uint256"
        }
      ],
      "name": "getNewValueCountbyRequestId",
      "outputs": [
        {
          "internalType": "uint256",
          "name": "",
          "type": "uint256"
        }
      ],
      "stateMutability": "view",
      "type": "function"
    },
    {
      "inputs": [
        {
          "internalType": "uint256",
          "name": "_requestId",
          "type": "uint256"
        },
        {
          "internalType": "uint256",
          "name": "_index",
          "type": "uint256"
        }
      ],
      "name": "getTimestampbyRequestIDandIndex",
      "outputs": [
        {
          "internalType": "uint256",
          "name": "",
          "type": "uint256"
        }
      ],
      "stateMutability": "view",
      "type": "function"
    },
    {
      "inputs": [
        {
          "internalType": "bytes32",
          "name": "_data",
          "type": "bytes32"
        }
      ],
      "name": "getUintVar",
      "outputs": [
        {
          "internalType": "uint256",
          "name": "",
          "type": "uint256"
        }
      ],
      "stateMutability": "view",
      "type": "function"
    },
    {
      "inputs": [
        {
          "internalType": "address",
          "name": "_flexAddress",
          "type": "address"
        }
      ],
      "name": "init",
      "outputs": [],
      "stateMutability": "nonpayable",
      "type": "function"
    },
    {
      "inputs": [
        {
          "internalType": "address",
          "name": "_addy",
          "type": "address"
        }
      ],
      "name": "isMigrated",
      "outputs": [
        {
          "internalType": "bool",
          "name": "",
          "type": "bool"
        }
      ],
      "stateMutability": "view",
      "type": "function"
    },
    {
      "inputs": [
        {
          "internalType": "address",
          "name": "",
          "type": "address"
        }
      ],
      "name": "migrated",
      "outputs": [
        {
          "internalType": "bool",
          "name": "",
          "type": "bool"
        }
      ],
      "stateMutability": "view",
      "type": "function"
    },
    {
      "inputs": [
        {
          "internalType": "bytes32",
          "name": "",
          "type": "bytes32"
        },
        {
          "internalType": "address",
          "name": "",
          "type": "address"
        }
      ],
      "name": "minersByChallenge",
      "outputs": [
        {
          "internalType": "bool",
          "name": "",
          "type": "bool"
        }
      ],
      "stateMutability": "view",
      "type": "function"
    },
    {
      "inputs": [],
      "name": "mintToDAO",
      "outputs": [],
      "stateMutability": "nonpayable",
      "type": "function"
    },
    {
      "inputs": [],
      "name": "mintToTeam",
      "outputs": [],
      "stateMutability": "nonpayable",
      "type": "function"
    },
    {
      "inputs": [],
      "name": "name",
      "outputs": [
        {
          "internalType": "string",
          "name": "",
          "type": "string"
        }
      ],
      "stateMutability": "pure",
      "type": "function"
    },
    {
      "inputs": [
        {
          "internalType": "uint256",
          "name": "",
          "type": "uint256"
        }
      ],
      "name": "newValueTimestamps",
      "outputs": [
        {
          "internalType": "uint256",
          "name": "",
          "type": "uint256"
        }
      ],
      "stateMutability": "view",
      "type": "function"
    },
    {
      "inputs": [
        {
          "internalType": "bytes32",
          "name": "",
          "type": "bytes32"
        }
      ],
      "name": "requestIdByQueryHash",
      "outputs": [
        {
          "internalType": "uint256",
          "name": "",
          "type": "uint256"
        }
      ],
      "stateMutability": "view",
      "type": "function"
    },
    {
      "inputs": [
        {
          "internalType": "uint256",
          "name": "_requestId",
          "type": "uint256"
        },
        {
          "internalType": "uint256",
          "name": "_timestamp",
          "type": "uint256"
        }
      ],
      "name": "retrieveData",
      "outputs": [
        {
          "internalType": "uint256",
          "name": "",
          "type": "uint256"
        }
      ],
      "stateMutability": "view",
      "type": "function"
    },
    {
      "inputs": [],
      "name": "symbol",
      "outputs": [
        {
          "internalType": "string",
          "name": "",
          "type": "string"
        }
      ],
      "stateMutability": "pure",
      "type": "function"
    },
    {
      "inputs": [],
      "name": "totalSupply",
      "outputs": [
        {
          "internalType": "uint256",
          "name": "",
          "type": "uint256"
        }
      ],
      "stateMutability": "view",
      "type": "function"
    },
    {
      "inputs": [
        {
          "internalType": "address",
          "name": "_to",
          "type": "address"
        },
        {
          "internalType": "uint256",
          "name": "_amount",
          "type": "uint256"
        }
      ],
      "name": "transfer",
      "outputs": [
        {
          "internalType": "bool",
          "name": "success",
          "type": "bool"
        }
      ],
      "stateMutability": "nonpayable",
      "type": "function"
    },
    {
      "inputs": [
        {
          "internalType": "address",
          "name": "_from",
          "type": "address"
        },
        {
          "internalType": "address",
          "name": "_to",
          "type": "address"
        },
        {
          "internalType": "uint256",
          "name": "_amount",
          "type": "uint256"
        }
      ],
      "name": "transferFrom",
      "outputs": [
        {
          "internalType": "bool",
          "name": "success",
          "type": "bool"
        }
      ],
      "stateMutability": "nonpayable",
      "type": "function"
    },
    {
      "inputs": [],
      "name": "transferOutOfContract",
      "outputs": [],
      "stateMutability": "nonpayable",
      "type": "function"
    },
    {
      "inputs": [
        {
          "internalType": "bytes32",
          "name": "",
          "type": "bytes32"
        }
      ],
      "name": "uints",
      "outputs": [
        {
          "internalType": "uint256",
          "name": "",
          "type": "uint256"
        }
      ],
      "stateMutability": "view",
      "type": "function"
    },
    {
      "inputs": [],
      "name": "verify",
      "outputs": [
        {
          "internalType": "uint256",
          "name": "",
          "type": "uint256"
        }
      ],
      "stateMutability": "pure",
      "type": "function"
    }
  ],
  "bytecode": "0x608060405234801561001057600080fd5b506126bb806100206000396000f3fe608060405234801561001057600080fd5b50600436106102485760003560e01c806358421ed21161013b578063af0b1327116100b8578063db085beb1161007c578063db085beb146106bb578063dd62ed3e14610774578063e8ce51d7146107ad578063fa459048146107c0578063fc735e99146107c857610248565b8063af0b132714610600578063b59e14d414610628578063cbf1304d14610648578063d01f4d9e1461067b578063da3799411461069b57610248565b806377fbb663116100ff57806377fbb663146105795780637f6fd5d91461058c57806393fa4915146105bb57806395d89b41146105ce578063a9059cbb146105ed57610248565b806358421ed2146104d1578063612c8f7f146104fd57806362dd1d2a1461051d578063699f200f1461053d57806370a082311461056657610248565b8063313ce567116101c957806346eee1c41161018d57806346eee1c41461043a57806348b18e541461044d5780634ba0a5ee1461047b5780634ee2cd7e1461049e5780635700242c146104b157610248565b8063313ce567146103c55780633180f8df146103d4578063340a1372146103fc5780634049f1981461040f578063438c0aa31461042757610248565b806318160ddd1161021057806318160ddd1461031757806319ab453c146103675780631fd223641461037a57806323b872dd146103aa5780632ded904a146103bd57610248565b8063024c2ddd1461024d57806306fdde031461028b578063095ea7b3146102bf57806312b9f766146102e2578063133bee5e146102ec575b600080fd5b61027861025b3660046121aa565b604a60209081526000928352604080842090915290825290205481565b6040519081526020015b60405180910390f35b60408051808201909152600f81526e54656c6c6f7220547269627574657360881b60208201525b6040516102829190612481565b6102d26102cd366004612217565b6107d0565b6040519015158152602001610282565b6102ea61089d565b005b6102ff6102fa366004612240565b610907565b6040516001600160a01b039091168152602001610282565b7fe6148e7230ca038d456350e69a91b66968b222bfac9ebfbea6ff0a1fb738016060005260466020527ffffeead1ec15181fd57b4590d95e0c076bccb59e311315e8b38f23c710aa7c3e54610278565b6102ea610375366004612190565b610925565b61038d610388366004612240565b610c91565b604080519283526001600160a01b03909116602083015201610282565b6102d26103b83660046121dc565b610cbc565b6102ea610d72565b60405160128152602001610282565b6103e76103e2366004612240565b610e72565b60408051928352901515602083015201610282565b61027861040a36600461227a565b61105c565b6104176110c5565b60405161028294939291906123bb565b610278610435366004612240565b6111ce565b610278610448366004612240565b6111ef565b6102d261045b366004612258565b603960209081526000928352604080842090915290825290205460ff1681565b6102d2610489366004612190565b604b6020526000908152604090205460ff1681565b6102786104ac366004612217565b6112b6565b6102786104bf366004612240565b60376020526000908152604090205481565b6102d26104df366004612190565b6001600160a01b03166000908152604b602052604090205460ff1690565b61027861050b366004612240565b60009081526046602052604090205490565b61027861052b366004612240565b60486020526000908152604090205481565b6102ff61054b366004612240565b6047602052600090815260409020546001600160a01b031681565b610278610574366004612190565b611521565b61027861058736600461237e565b61152d565b61027861059a36600461237e565b60009182526036602090815260408084209284526005909201905290205490565b6102786105c936600461237e565b611619565b6040805180820190915260038152622a292160e91b60208201526102b2565b6102d26105fb366004612217565b611744565b61061361060e366004612240565b61175a565b604051610282999897969594939291906123ff565b610278610636366004612240565b60466020526000908152604090205481565b61065b610656366004612217565b611985565b604080516001600160801b03938416815292909116602083015201610282565b610278610689366004612240565b60386020526000908152604090205481565b6102786106a9366004612240565b60009081526038602052604090205490565b6107256106c9366004612240565b603660205260009081526040902080546001820154600283015460038401546004909401549293919260ff808316936101008404821693620100008104909216926001600160a01b036301000000909304831692918216911688565b604080519889526020890197909752941515958701959095529115156060860152151560808501526001600160a01b0390811660a085015291821660c08401521660e082015261010001610282565b6102786107823660046121aa565b6001600160a01b039182166000908152604a6020908152604080832093909416825291909152205490565b6102ea6107bb366004612190565b6119c8565b6102ea611b70565b61270f610278565b60006001600160a01b0383166108385760405162461bcd60e51b815260206004820152602260248201527f45524332303a20617070726f766520746f20746865207a65726f206164647265604482015261737360f01b60648201526084015b60405180910390fd5b336000818152604a602090815260408083206001600160a01b03881680855290835292819020869055518581529192917f8c5be1e5ebec7d5bd14f71427d1e84f3dd0314c0f7b2291e5b200ac8c7c3b925910160405180910390a35060015b92915050565b7f7a39905194de50bde334d18b76bbb36dddd11641d4d50b470cb837cf3bae5def60005260476020527fb5f7e7387e8e977cc9c4c9513388b0d7224264b9a0159cd8e8bdd84a9ed504c3546109059030906001600160a01b031661090082611521565b611c6d565b565b6000818152604760205260409020546001600160a01b03165b919050565b7f7a39905194de50bde334d18b76bbb36dddd11641d4d50b470cb837cf3bae5def60005260476020527fb5f7e7387e8e977cc9c4c9513388b0d7224264b9a0159cd8e8bdd84a9ed504c3546001600160a01b031633146109b45760405162461bcd60e51b815260206004820152600a60248201526937b7363c9037bbb732b960b11b604482015260640161082f565b7f3196379cecd16ddcc7bf893acd7d6a077e4587a3cc93ab44d27e4e9269e71e7c60005260466020527f939f0cb044a3b521a69fc71bfb6e3ab5ea43e579e35cbf805938fa780f789d295415610a4c5760405162461bcd60e51b815260206004820152601760248201527f73686f756c64206f6e6c792068617070656e206f6e6365000000000000000000604482015260640161082f565b7f3196379cecd16ddcc7bf893acd7d6a077e4587a3cc93ab44d27e4e9269e71e7c6000908152604660205260017f939f0cb044a3b521a69fc71bfb6e3ab5ea43e579e35cbf805938fa780f789d2981905560405163ce5e11bf60e01b815260048101829052602481018390529091906001600160a01b0384169063ce5e11bf9060440160206040518083038186803b158015610ae757600080fd5b505afa158015610afb573d6000803e3d6000fd5b505050506040513d601f19601f82011682018060405250810190610b1f9190612366565b905061a8c0610b2e82426125b7565b1015610b8d5760405162461bcd60e51b815260206004820152602860248201527f636f6e74726163742073686f756c64206265206174206c6561737420313220686044820152671bdd5c9cc81bdb1960c21b606482015260840161082f565b600080516020612666833981519152600052604760205260008051602061264683398151915280546001600160a01b0319166001600160a01b038516179055610bf2733aa39f73d48739cdbecd9eb788d4657e0d6a6815671f7ffcd53d052400611da0565b610c1873dbbaeee590a2744afc0112ea3bdd89474f476eda6747b9baf09e977c00611da0565b610c3e73503828976d22510aad0201ac7ec88293211d23da679b7c9aa37f7a0000611da0565b610c6573ef7353b92be7cc840b5b2a190b3a555277fc18c96803b7758d4e59e8ac00611da0565b610c8c737a11cda496cc596e2241319982485217cad3996c6825ad26547381775000611da0565b505050565b603a8160058110610ca157600080fd5b6002020180546001909101549091506001600160a01b031682565b6001600160a01b0383166000908152604a60209081526040808320338452909152812054821115610d245760405162461bcd60e51b8152602060048201526012602482015271416c6c6f77616e63652069732077726f6e6760701b604482015260640161082f565b6001600160a01b0384166000908152604a6020908152604080832033845290915281208054849290610d579084906125b7565b90915550610d689050848484611c6d565b5060019392505050565b7ff9fc7fb48c7559e97d53ab4f65d985310377942095551edc1ff9acf706a45a0d600090815260466020527f5975def742d89320ce5e06d2d12f0e1aa78a8affc73e81c651ea1571a11cfaab546201518090610dce90426125b7565b610de190680720edd9487bde0000612570565b610deb9190612550565b427f5975def742d89320ce5e06d2d12f0e1aa78a8affc73e81c651ea1571a11cfaab557fefa19baa864049f50491093580c5433e97e8d5e41f8db1a61108b4fa44cacd9360005260476020527f7d9ee2aaccfe8f70172569ff913448023f3ddb672f2bd893709418983f3ec22d54909150610e6f906001600160a01b031682611da0565b50565b60008051602061266683398151915260009081526047602052600080516020612646833981519152546040516377b03e0d60e01b815260048101849052829182916001600160a01b03909116906377b03e0d9060240160206040518083038186803b158015610ee057600080fd5b505afa158015610ef4573d6000803e3d6000fd5b505050506040513d601f19601f82011682018060405250810190610f189190612366565b90508015610fe757600080516020612666833981519152600052604760205260008051602061264683398151915254610fdb9085906001600160a01b0316637c37b8b482610f676001876125b7565b6040516001600160e01b031960e085901b1681526004810192909252602482015260440160206040518083038186803b158015610fa357600080fd5b505afa158015610fb7573d6000803e3d6000fd5b505050506040513d601f19601f820116820180604052508101906105c99190612366565b60019250925050611057565b600084815260456020526040902080541561104d5780546110409086908390611012906001906125b7565b8154811061103057634e487b7160e01b600052603260045260246000fd5b9060005260206000200154611619565b6001935093505050611057565b6000809350935050505b915091565b600080805b83518110156110be5761107682610100612570565b915083818151811061109857634e487b7160e01b600052603260045260246000fd5b01602001516110aa9060f81c83612538565b9150806110b6816125fe565b915050611061565b5092915050565b60006110cf61213c565b506040805160a0810182526001808252602080830182905282840182905260608301829052608083019190915260008051602061266683398151915260009081526047825260008051602061264683398151915254845163607caea960e11b815294519394919384936001600160a01b039092169263c0f95d52926004808301939192829003018186803b15801561116657600080fd5b505afa15801561117a573d6000803e3d6000fd5b505050506040513d601f19601f8201168201806040525081019061119e9190612366565b6040516020016111b091815260200190565b60405160208183030381529060405280519060200120935090919293565b603381815481106111de57600080fd5b600091825260209091200154905081565b60008051602061266683398151915260009081526047602052600080516020612646833981519152546040516377b03e0d60e01b81526004810184905282916001600160a01b0316906377b03e0d9060240160206040518083038186803b15801561125957600080fd5b505afa15801561126d573d6000803e3d6000fd5b505050506040513d601f19601f820116820180604052508101906112919190612366565b905080156112a0579050610920565b5050600081815260456020526040902054610920565b6001600160a01b038216600090815260496020526040812080541580611310575082816000815481106112f957634e487b7160e01b600052603260045260246000fd5b6000918252602090912001546001600160801b0316115b1561131f576000915050610897565b8054819061132f906001906125b7565b8154811061134d57634e487b7160e01b600052603260045260246000fd5b6000918252602090912001546001600160801b031683106113bb5780548190611378906001906125b7565b8154811061139657634e487b7160e01b600052603260045260246000fd5b600091825260209091200154600160801b90046001600160801b031691506108979050565b805460009081906113ce906002906125b7565b90505b818111156114da57600060026113e78484612538565b6113f2906001612538565b6113fc9190612550565b90508584828154811061141f57634e487b7160e01b600052603260045260246000fd5b6000918252602090912001546001600160801b031614156114825783818154811061145a57634e487b7160e01b600052603260045260246000fd5b600091825260209091200154600160801b90046001600160801b031694506108979350505050565b858482815481106114a357634e487b7160e01b600052603260045260246000fd5b6000918252602090912001546001600160801b031610156114c6578092506114d4565b6114d16001826125b7565b91505b506113d1565b8282815481106114fa57634e487b7160e01b600052603260045260246000fd5b600091825260209091200154600160801b90046001600160801b0316935061089792505050565b600061089782436112b6565b6000805160206126668339815191526000908152604760205260008051602061264683398151915254604051631f0dee2d60e21b815260048101859052602481018490526001600160a01b0390911690637c37b8b49060440160206040518083038186803b15801561159e57600080fd5b505afa9250505080156115ce575060408051601f3d908101601f191682019092526115cb91810190612366565b60015b61161257600083815260456020526040902080548390811061160057634e487b7160e01b600052603260045260246000fd5b90600052602060002001549050610897565b9050610897565b7f6c0e91a96227393eb6e42b88e9a99f7c5ebd588098b549c949baf27ac9509d8f600090815260466020527f9dd7c008ae091f0bb92d79df2a27d29a02d7be98e77be1227c4e243dccabda585482101561169057506000828152604560209081526040808320848452600301909152902054610897565b600080516020612666833981519152600052604760205260008051602061264683398151915254604051630b2d2b0d60e01b8152600481018590526024810184905261173d916001600160a01b031690630b2d2b0d9060440160006040518083038186803b15801561170157600080fd5b505afa158015611715573d6000803e3d6000fd5b505050506040513d6000823e601f3d908101601f1916820160405261040a91908101906122f3565b9392505050565b6000611751338484611c6d565b50600192915050565b600080600080600080600061176d61215a565b5050506000958652505060366020908152604080862080546002820154600383015460048401548551610120810187527f9f47a2659c3d32b749ae717d975e7962959890862423c4318cf86e4ec220291f8c5260058601808952878d205482527f2f9328a9c75282bec25bb04befad06926366736e0030c985108445fa728335e58d52808952878d2054828a01527f9147231ab14efb72c38117f68521ddef8de64f092c18c69dbfb602ffc4de7f478d52808952878d2054828901527f46f7d53798d31923f6952572c6a19ad2d1a8238d26649c2f3493a6d69e425d288d52808952878d205460608301527f1da378694063870452ce03b189f48e04c1aa026348e74e6c86e10738514ad2c48d52808952878d205460808301527f4b4cefd5ced7569ef0d091282b4bca9c52a034c56471a6061afd1bf307a2de7c8d52808952878d205460a08301527f6de96ee4d33a0617f40a846309c8759048857f51b9d59a12d3c3786d4778883d8d52808952878d205460c08301527f30e85ae205656781c1a951cba9f9f53f884833c049d377a2a7046eb5e6d14b268d52808952878d205460e08301527f1da95f11543c9b03927178e07951795dfc95c7501a9d1cf00e13414ca33bc4098d52909752949099205461010080870191909152600190930154919960ff8083169a948304811699506201000083041697506001600160a01b036301000000909204821696509281169493169291565b604960205281600052604060002081815481106119a157600080fd5b6000918252602090912001546001600160801b038082169350600160801b90910416905082565b7fefa19baa864049f50491093580c5433e97e8d5e41f8db1a61108b4fa44cacd9360005260476020527f7d9ee2aaccfe8f70172569ff913448023f3ddb672f2bd893709418983f3ec22d546001600160a01b03163314611aa05760405162461bcd60e51b815260206004820152604760248201527f4f6e6c792074686520476f7665726e616e636520636f6e74726163742063616e60448201527f206368616e67652074686520476f7665726e616e636520636f6e7472616374206064820152666164647265737360c81b608482015260a40161082f565b611aa981611f0c565b611ab257600080fd5b7fefa19baa864049f50491093580c5433e97e8d5e41f8db1a61108b4fa44cacd93600052604760209081527f7d9ee2aaccfe8f70172569ff913448023f3ddb672f2bd893709418983f3ec22d80546001600160a01b0384166001600160a01b0319909116811790915560408051918252918101829052600a8183015269476f7665726e616e636560b01b606082015290517f2a81e9701290f6c4e8f34d15792e30a1c793e3ba20c821dbba5263ea47ba53599181900360800190a150565b7f537aa8e156c05c7907e85d980d0e9e6fe192b51129d3d5944a2d9839aaf32ea0600090815260466020527f2e59f080571cb6da42aff4d46de3c6a48a297c5038643f313c89546f65e4df18546201518090611bcc90426125b7565b611bdf90680720edd9487bde0000612570565b611be99190612550565b427f2e59f080571cb6da42aff4d46de3c6a48a297c5038643f313c89546f65e4df18557f7a39905194de50bde334d18b76bbb36dddd11641d4d50b470cb837cf3bae5def60005260476020527fb5f7e7387e8e977cc9c4c9513388b0d7224264b9a0159cd8e8bdd84a9ed504c354909150610e6f906001600160a01b031682611da0565b80611cc45760405162461bcd60e51b815260206004820152602160248201527f547269656420746f2073656e64206e6f6e2d706f73697469766520616d6f756e6044820152601d60fa1b606482015260840161082f565b6001600160a01b038216611d125760405162461bcd60e51b815260206004820152601560248201527452656365697665722069732030206164647265737360581b604482015260640161082f565b6000611d1d84611521565b905081611d3385611d2e838561258f565b612028565b611d3c84611521565b9150611d4c84611d2e838561250d565b836001600160a01b0316856001600160a01b03167fddf252ad1be2c89b69c2b068fc378daa952ba7f163c4a11628f55a4df523b3ef85604051611d9191815260200190565b60405180910390a35050505050565b80611df75760405162461bcd60e51b815260206004820152602160248201527f547269656420746f206d696e74206e6f6e2d706f73697469766520616d6f756e6044820152601d60fa1b606482015260840161082f565b6001600160a01b038216611e455760405162461bcd60e51b815260206004820152601560248201527452656365697665722069732030206164647265737360581b604482015260640161082f565b6000611e5083611521565b7fe6148e7230ca038d456350e69a91b66968b222bfac9ebfbea6ff0a1fb7380160600090815260466020527ffffeead1ec15181fd57b4590d95e0c076bccb59e311315e8b38f23c710aa7c3e80549293508492839290611eb1908490612538565b90915550611ec5905084611d2e838561250d565b6040518381526001600160a01b038516906000907fddf252ad1be2c89b69c2b068fc378daa952ba7f163c4a11628f55a4df523b3ef9060200160405180910390a350505050565b6000806000836001600160a01b031663fc735e99604051602401611f3b90602080825260009082015260400190565b6040516020818303038152906040529060e01b6020820180516001600160e01b038381831617835250505050604051611f74919061239f565b6000604051808303816000865af19150503d8060008114611fb1576040519150601f19603f3d011682016040523d82523d6000602084013e611fb6565b606091505b5091509150818015611fdc575061232881806020019051810190611fda9190612366565b115b610d685760405162461bcd60e51b815260206004820152601760248201527f4e657720636f6e747261637420697320696e76616c6964000000000000000000604482015260640161082f565b6001600160a01b038216600090815260496020526040902080541580612091575080544390829061205b906001906125b7565b8154811061207957634e487b7160e01b600052603260045260246000fd5b6000918252602090912001546001600160801b031614155b156120e257604080518082019091526001600160801b03438116825283811660208084019182528454600181018655600086815291909120935191518316600160801b029190921617910155610c8c565b805460009082906120f5906001906125b7565b8154811061211357634e487b7160e01b600052603260045260246000fd5b600091825260209091200180546001600160801b03808616600160801b02911617905550505050565b6040518060a001604052806005906020820280368337509192915050565b6040518061012001604052806009906020820280368337509192915050565b80356001600160a01b038116811461092057600080fd5b6000602082840312156121a1578081fd5b61173d82612179565b600080604083850312156121bc578081fd5b6121c583612179565b91506121d360208401612179565b90509250929050565b6000806000606084860312156121f0578081fd5b6121f984612179565b925061220760208501612179565b9150604084013590509250925092565b60008060408385031215612229578182fd5b61223283612179565b946020939093013593505050565b600060208284031215612251578081fd5b5035919050565b6000806040838503121561226a578182fd5b823591506121d360208401612179565b60006020828403121561228b578081fd5b813567ffffffffffffffff8111156122a1578182fd5b8201601f810184136122b1578182fd5b80356122c46122bf826124e5565b6124b4565b8181528560208385010111156122d8578384fd5b81602084016020830137908101602001929092525092915050565b600060208284031215612304578081fd5b815167ffffffffffffffff81111561231a578182fd5b8201601f8101841361232a578182fd5b80516123386122bf826124e5565b81815285602083850101111561234c578384fd5b61235d8260208301602086016125ce565b95945050505050565b600060208284031215612377578081fd5b5051919050565b60008060408385031215612390578182fd5b50508035926020909101359150565b600082516123b18184602087016125ce565b9190910192915050565b848152610100810160208083018660005b60058110156123e9578151835291830191908301906001016123cc565b5050505060c082019390935260e0015292915050565b898152881515602080830191909152881515604083015287151560608301526001600160a01b03878116608084015286811660a0840152851660c083015261022082019060e083018560005b60098110156124685781518352918301919083019060010161244b565b50505050826102008301529a9950505050505050505050565b60006020825282518060208401526124a08160408501602087016125ce565b601f01601f19169190910160400192915050565b604051601f8201601f1916810167ffffffffffffffff811182821017156124dd576124dd61262f565b604052919050565b600067ffffffffffffffff8211156124ff576124ff61262f565b50601f01601f191660200190565b60006001600160801b0380831681851680830382111561252f5761252f612619565b01949350505050565b6000821982111561254b5761254b612619565b500190565b60008261256b57634e487b7160e01b81526012600452602481fd5b500490565b600081600019048311821515161561258a5761258a612619565b500290565b60006001600160801b03838116908316818110156125af576125af612619565b039392505050565b6000828210156125c9576125c9612619565b500390565b60005b838110156125e95781810151838201526020016125d1565b838111156125f8576000848401525b50505050565b600060001982141561261257612612612619565b5060010190565b634e487b7160e01b600052601160045260246000fd5b634e487b7160e01b600052604160045260246000fdfeef4ea54b5b61165ffc2ef656b4303b6e25d2ec33cc6bc62f39864cc7b0cfe7b5fa522e460446113e8fd353d7fa015625a68bc0369712213a42e006346440891ea26469706673582212203fdd2593a5c669eeb5b3fdb9a37aab5fc1e9cd63a2a0a23bb749d2c0b1ef1cab64736f6c63430008030033",
  "linkReferences": {},
  "deployedLinkReferences": {}
}